:10000000D2C00000FEC00000FCC00000FAC000002A
:10001000F8C00000F6C00000F4C00000F2C000000C
:10002000F0C00000EEC00000ECC00000EAC000001C
:10003000E8C00000E6C00000E4C00000E2C000002C
:10004000E0C00000DEC00000DCC00000DAC000003C
:10005000D8C00000D6C00000D4C00000A7C3000074
:10006000EFC300006DC3000042C30000CAC000001F
:10007000C8C00000C6C00000C4C00000C2C000006C
:10008000C0C00000BEC00000BCC00000BAC000007C
:10009000B8C00000B6C00000B4C00000B2C000008C
:1000A000B0C00000AEC00000ACC00000AAC000009C
:1000B000A8C00000A6C00000A4C00000A2C00000AC
:1000C000A0C000009EC000009CC000009AC00000BC
:1000D00098C0000096C0000094C0000092C00000CC
:1000E00090C0000000002200250028002B002E00F8
:1000F0003100340002010000050108010B0100007D
:100100002100240027002A002D00300033000101C7
:100110000000040107010A01050505050705080897
:100120000808020202020A0A080804040404010181
:100130000101010101010303030303030303040796
:1001400007070C0C0C0C0C0C0C0C0202020206062D
:100150000606060606060B0B0B0B0B0B0B0B010220
:1001600010202008081020401020408002010201C9
:100170000804020101020408102040808040201081
:1001800008040201800402018040201008040201DA
:100190000804020101020408102040800102040842
:1001A00010204080690411241FBECFEFD1E2DEBFD2
:1001B000CDBF00E00CBF12E0A0E0B2E0EEE1F0E164
:1001C00000E00BBF02C007900D92A435B107D9F72C
:1001D00023E0A4E5B2E001C01D92A736B207E1F723
:1001E00010E0C3EDD0E000E005C021970109802FA9
:1001F000FE01B8D5C23DD10780E00807B1F7C4D3EE
:100200000CC7FECEE7E6F2E0A089B18982E08C93CC
:10021000A485B5851C92A685B78587E08C93108E42
:10022000A489B58986E08C93A289B3898C91806179
:100230008C93A289B3898C9188608C93A289B389AD
:100240008C9180688C930288F389E02D80818F7D6A
:1002500080830895CF93DF9390E0FC01E25AFE4F34
:100260002491FC01E85EFE4F84918823C1F090E068
:10027000880F991FFC01E250FF4FC591D491FC01FA
:10028000EC51FF4FA591B4919FB7F8948881E22F6C
:10029000E0958E2388838C91E823EC939FBFDF91B8
:1002A000CF910895CF92DF92EF92FF920F931F9319
:1002B000CF93DF936C017A018B01C0E0D0E0CE15C3
:1002C000DF0589F0D8016D918D01D601ED91FC918A
:1002D0000190F081E02DC6011995892B11F47E0162
:1002E00002C02196ECCFC701DF91CF911F910F91F2
:1002F000FF90EF90DF90CF900895FC01918D828D5B
:10030000981761F0828DDF01A80FB11D5D968C9169
:10031000928D9F5F9F73928F90E008958FEF9FEF74
:100320000895FC01918D828D981731F0828DE80F30
:10033000F11D858D90E008958FEF9FEF0895FC01EA
:10034000918D228D892F90E0805C9F4F821B9109B7
:100350008F739927089587E692E0F1DF21E0892BDA
:1003600009F420E0822F0895FC01848DDF01A80F9D
:10037000B11DA35ABF4F2C91848D90E001968F73CD
:100380009927848FA689B7892C93A089B1898C91EC
:1003900080648C93938D848D981306C00288F389B2
:1003A000E02D80818F7D80830895EF92FF920F93DF
:1003B0001F93CF93DF93EC0181E0888F9B8D8C8D11
:1003C000981305C0E889F989808185FD23C0F62E40
:1003D0000B8D10E00F5F1F4F0F731127E02E8C8DD8
:1003E000E8120BC00FB607FCFACFE889F9898081C3
:1003F00085FFF5CFCE01B8DFF2CF8B8DFE01E80F80
:10040000F11DE35AFF4FF0820B8FEA89FB8980814F
:10041000806207C0EE89FF896083E889F98980815D
:100420008064808381E090E0DF91CF911F910F91F4
:10043000FF90EF900895CF93DF93EC01888D882390
:10044000C1F0EA89FB89808185FD05C0A889B98949
:100450008C9186FD0EC00FB607FCF5CF808185FF1D
:10046000F2CFA889B9898C9185FFEDCFCE017CDFD1
:10047000E8CFDF91CF91089580E090E0892B19F0CB
:100480006ADF811125C080E090E0892B41F080E097
:1004900090E0892B21F00E94000081111CC080E0B7
:1004A00090E0892B41F080E090E0892B21F00E94C0
:1004B0000000811113C080E090E0892BA1F080E062
:1004C00090E0892B81F00E94000081110AC00895FC
:1004D0000E940000D8CF0E940000E1CF0E940000DF
:1004E000EACF0C94000008953FB7F8948091590228
:1004F00090915A02A0915B02B0915C0226B5A89B34
:1005000005C02F3F19F00196A11DB11D3FBFBA2FA5
:10051000A92F982F8827820F911DA11DB11DBC0105
:10052000CD0142E0660F771F881F991F4A95D1F7CA
:1005300008958F929F92AF92BF92CF92DF92EF92E7
:10054000FF926B017C01D0DF4B015C01C114D1042F
:10055000E104F104E9F0C8DFDC01CB018819990955
:10056000AA09BB09883E9340A105B10578F321E0B3
:10057000C21AD108E108F10888EE880E83E0981EBF
:10058000A11CB11CC114D104E104F10421F7DECF98
:10059000FF90EF90DF90CF90BF90AF909F908F90A3
:1005A00008952FB7F894609155027091560280918A
:1005B0005702909158022FBF089509D56115710512
:1005C00079F0FB0101900020E9F73197AF01461B5C
:1005D000570BDC01ED91FC910280F381E02D199421
:1005E00080E090E008954F925F926F927F92EF9239
:1005F000FF920F931F93CF93DF93CDB7DEB7A197F1
:100600000FB6F894DEBF0FBECDBF7C01FA01CB015F
:1006100019A2223008F42AE08E010F5D1F4F422EEE
:10062000512C612C712CBF01A3019201D4D4F9018A
:10063000CA01015011096A3014F4605D01C0695C9F
:10064000D8016C93232B242B252B69F7B801C70104
:10065000B5DFA1960FB6F894DEBF0FBECDBFDF9118
:10066000CF911F910F91FF90EF907F906F905F90CF
:100670004F900895CF92DF92EF92FF92CF93DF9346
:100680006C01990FEE08FF08F7FE1BC0E0916702AE
:10069000F09168020190F081E02D6DE287E692E032
:1006A0001995EC0144275527BA014C195D096E09CB
:1006B0007F092AE087E692E096DF7C01EC0EFD1EC2
:1006C00007C02AE0B701A60187E692E08CDF7C0133
:1006D00065E272E087E692E071DF8E0D9F1DDF918B
:1006E000CF91FF90EF90DF90CF90089567CF1F924A
:1006F0000F920FB60F9211240BB60F922F933F93C8
:100700004F935F936F937F938F939F93AF93BF9319
:10071000EF93FF9387E692E027DEFF91EF91BF9181
:10072000AF919F918F917F916F915F914F913F9189
:100730002F910F900BBE0F900FBE0F901F9018952A
:100740001F920F920FB60F9211240BB60F922F9398
:100750008F939F93EF93FF93E0917702F09178024C
:100760008081E0917D02F0917E0282FD12C0908135
:10077000809180028F5F8F7320918102821751F0E8
:10078000E0918002F0E0E959FD4F958F809380025F
:1007900001C08081FF91EF919F918F912F910F90D8
:1007A0000BBE0F900FBE0F901F9018951F920F92C7
:1007B0000FB60F9211242F933F938F939F93AF9374
:1007C000BF938091550290915602A0915702B0912B
:1007D00058023091540223E0230F2D3720F4019664
:1007E000A11DB11D05C026E8230F0296A11DB11D54
:1007F000209354028093550290935602A09357027F
:10080000B09358028091590290915A02A0915B02D4
:10081000B0915C020196A11DB11D80935902909385
:100820005A02A0935B02B0935C02BF91AF919F917B
:100830008F913F912F910F900FBE0F901F901895A1
:100840001F920F920FB60F9211240BB60F922F9397
:100850003F934F935F938F939F93AF93BF93EF9388
:10086000FF93E0915D02F0915E02309709F1828979
:1008700081111EC08089918926853785821793074B
:10088000ACF42EB544855585DA01A80FB91F2C9319
:10089000A281B38180899189A80FB91F8C918EBDE7
:1008A000808991890196918B808B02C081E0848B35
:1008B000FF91EF91BF91AF919F918F915F914F9178
:1008C0003F912F910F900BBE0F900FBE0F901F9076
:1008D00018950F931F93CF93DF93E7E6F2E013820F
:1008E000128288EE93E0A0E0B0E084839583A68333
:1008F000B7838AE092E09183808385EC90E09587CE
:10090000848784EC90E09787868780EC90E0918BD9
:10091000808B81EC90E0938B828B82EC90E0958BC6
:10092000848B86EC90E0978B868B118E128E138EC3
:10093000148EE4E0F3E01682178210861186128688
:1009400013861486158616861786108A118A128ACF
:10095000138A148A158A84E690E00CD2CCE4D3E0A2
:100960009B838A8384E690E005D28C019D838C83EF
:1009700084E690E0FFD19F838E831D870C87DF91F3
:10098000CF911F910F910895789484B5826084BDB2
:1009900084B5816084BD85B5826085BD85B5816083
:1009A00085BD80916E00816080936E001092810001
:1009B00080918100826080938100809181008160BC
:1009C000809381008091800081608093800080917D
:1009D000B10084608093B1008091B0008160809309
:1009E000B00080919100826080939100809191008D
:1009F000816080939100809190008160809390004D
:100A00008091A10082608093A1008091A10081600B
:100A10008093A1008091A00081608093A0008091CC
:100A20002101826080932101809121018160809366
:100A300021018091200181608093200180917A00C2
:100A4000846080937A0080917A00826080937A003B
:100A500080917A00816080937A0080917A0080682A
:100A600080937A001092C1001092480310924903BB
:100A700010924A0310924B03109206031092070340
:100A8000109208031092090360ED77E080E090E097
:100A900050DD87E692E09093470380934603B2DBF4
:100AA00080DD60930603709307038093080390939F
:100AB000090366E172E0809146039091470316DED8
:100AC0006AE070E080E090E034DDC1E0C0931A039A
:100AD00099DB8FEF8EBDC0935F0384E3BBDB83E3C1
:100AE000B9DB82E3B7DB80914C03B4DB10925E0389
:100AF0008CE493E090935E0280935D021092610318
:100B00001092620380EC8CBD68E272E087E692E0AE
:100B1000EDDD2AE045E350E060E070E087E692E03A
:100B200062DD65E272E087E692E048DD6CE272E049
:100B300087E692E0DBDD8FEF9FEF9CDD84EF882E70
:100B400099249394A12CB12C2CDD672B682B692B55
:100B500039F427DD623071058105910508F4F8C08C
:100B600020DD60936302709364028093650290932A
:100B70006602C0905F02D0906002E0906102F09047
:100B800062026C157D058E059F0540F460935F023F
:100B9000709360028093610290936202C0905F0242
:100BA000D0906002E0906102F09062029B01AC0183
:100BB0002C193D094E095F0969017A013AEFC31604
:100BC000D104E104F10408F4C3C060935F027093A0
:100BD000600280936102909362028092120390926D
:100BE0001303A0921403B0921503109216031092EF
:100BF0001703109218031092190380910A03909121
:100C00000B03A0910C03B0910D0380930E039093FE
:100C10000F03A0931003B0931103C3DC60930A0386
:100C200070930B0380930C0390930D03BADC6093D5
:100C30000603709307038093080390930903B1DCC4
:100C40006B017C0165E372E080914603909147035C
:100C50004DDD2AE041E050E060E070E08091460325
:100C600090914703C0DC6CE372E080914603909161
:100C700047033CDD2AE0B701A6018091460390912D
:100C80004703B1DC6EE372E0809146039091470325
:100C90002DDD80910A0390910B03A0910C03B0917C
:100CA0000D03B701A601481B590B6A0B7B0B2AE009
:100CB000809146039091470396DC6EE372E0809149
:100CC00046039091470312DD40910A0350910B03B4
:100CD00060910C0370910D0380910E0390910F03AE
:100CE000A0911003B0911103481B590B6A0B7B0BA9
:100CF0002AE0809146039091470375DC60E472E03E
:100D00008091460390914703F1DC4BDCAB01BC01C1
:100D10002AE0809146039091470365DCE09046030A
:100D2000F090470362E472E0C70148DC65E272E0DC
:100D3000C70144DC62E070E080E090E0FADB31DC87
:100D400060930A0370930B0380930C0390930D033D
:100D500069E472E087E692E0C9DC80E090E08ADC3A
:100D60008BDBF2CEEE0FFF1F881F8BBF0790F69133
:100D7000E02D1994CF93DF938230910510F482E037
:100D800090E0E0916503F091660320E030E0C0E080
:100D9000D0E0309711F14081518148175907C0F0D8
:100DA0004817590761F482819381209719F09B833A
:100DB0008A832BC0909366038093650326C0211518
:100DC000310519F04217530718F49A01BE01DF01EB
:100DD000EF010280F381E02DDCCF2115310509F10F
:100DE000281B390B2430310590F412968D919C917B
:100DF00013976115710521F0FB019383828304C071
:100E00009093660380936503FD01329644C0FD0113
:100E1000E20FF31F81939193225031092D933C935C
:100E20003AC02091630330916403232B41F4209155
:100E300002023091030230936403209363032091F4
:100E40000002309101022115310541F42DB73EB762
:100E50004091040250910502241B350BE09163037D
:100E6000F0916403E217F307A0F42E1B3F0B281741
:100E7000390778F0AC014E5F5F4F2417350748F013
:100E80004E0F5F1F509364034093630381939193CC
:100E900002C0E0E0F0E0CF01DF91CF9108950F9321
:100EA0001F93CF93DF93009709F48CC0FC01329716
:100EB00013821282009165031091660301151105DA
:100EC00081F420813181820F931F2091630330913F
:100ED00064032817390779F5F0936403E0936303FB
:100EE00071C0D80140E050E0AE17BF0750F4129631
:100EF0002D913C911397AD012115310509F1D901CF
:100F0000F3CF9D01DA013383228360817181860FE3
:100F1000971F8217930769F4EC0128813981260F06
:100F2000371F2E5F3F4F318320838A819B819383BC
:100F30008283452B29F4F0936603E093650342C056
:100F40001396FC93EE931297ED01499159919E01EE
:100F5000240F351FE217F30771F480819181840F0C
:100F6000951F029611969C938E938281938113967E
:100F70009C938E931297E0E0F0E0D80112968D9149
:100F80009C911397009719F0F8018C01F6CF8D9181
:100F90009C9198012E5F3F4F820F931F2091630316
:100FA000309164032817390769F4309729F41092B7
:100FB00066031092650302C01382128210936403C9
:100FC00000936303DF91CF911F910F91089581E00A
:100FD00090E0F89422C0A1E21A2EAA1BBB1BFD01CF
:100FE0000DC0AA1FBB1FEE1FFF1FA217B307E40708
:100FF000F50720F0A21BB30BE40BF50B661F771F60
:10100000881F991F1A9469F760957095809590953F
:0E1010009B01AC01BD01CF010895F894FFCF04
:10101E0000006703800000000000D50152019F010F
:10102E007D0191011B02564D4450565F317C315F5C
:10103E00564D4450560D0A00535320005353206909
:10104E006E74722000564D4450455F003A323A009D
:10105E007C005F564D445045006E756D20696E7470
:04106E007273200079
:00000001FF
