:100000000C94F0090C941E0D0C94F70C0C94180A27
:100010000C94180A0C94180A0C94180A0C94180AD8
:100020000C94180A0C94180A0C94180A0C94180AC8
:100030000C94180A0C94180A0C94180A0C94180AB8
:100040000C94AD0C0C94180A0C94F50B0C94CF0B7B
:100050000C94180A0C94180A0C94180A0C94180A98
:100060000C942E0F0C94180A036EDB363D9A999966
:10007000993DABAAAA2A3E000000803F084AD73B20
:100080003BCE016E84BCBFFDC12F3D6C74319ABD67
:1000900056833DDA3D00C77F11BED9E4BB4C3E918B
:1000A0006BAAAABE000000803F072C7AA5BA6CC5D7
:1000B00090DA3B9365FC8BBC53F810FD3C56928361
:1000C0004DBD879D3AB63DCBC9BF5BBE73DA0FC944
:1000D0003F004552524F522120444D5020636F64DF
:1000E0006520766572696669636174696F6E206602
:1000F00061696C65642E004552524F522120444D77
:100100005020636F6E66696775726174696F6E20E7
:10011000766572696669636174696F6E206661698C
:100120006C65642E00526573657474696E67204651
:1001300049464F20616E6420636C656172696E6729
:1001400020494E5420737461747573206F6E65205E
:100150006C6173742074696D652E2E2E0053657466
:1001600074696E6720757020696E7465726E616C5B
:100170002034322D62797465202864656661756C5F
:10018000742920444D50207061636B657420627542
:10019000666665722E2E2E0044697361626C696E0C
:1001A0006720444D502028796F75207475726E2039
:1001B0006974206F6E206C61746572292E2E2E007A
:1001C000444D5020697320676F6F6420746F2067FF
:1001D0006F212046696E616C6C792E0057726974CC
:1001E000696E672066696E616C206D656D6F7279EE
:1001F0002075706461746520372F37202866756E0E
:100200006374696F6E20756E6B6E6F776E292E2E1C
:100210002E0043757272656E7420696E7465727219
:10022000757074207374617475733D0052656164F8
:10023000696E6720696E746572727570742073746C
:10024000617475732E2E2E0052656164696E67208D
:100250004649464F20646174612E2E2E004375720C
:1002600072656E74204649464F20636F756E743D0B
:100270000057616974696E6720666F72204649464F
:100280004F20636F756E74203E20322E2E2E00524A
:10029000656164696E672066696E616C206D656D6D
:1002A0006F72792075706461746520362F3720284D
:1002B00066756E6374696F6E20756E6B6E6F776EA8
:1002C000292E2E2E0043757272656E7420696E742D
:1002D000657272757074207374617475733D005229
:1002E000656164696E6720696E7465727275707499
:1002F000207374617475732E2E2E005265616469CB
:100300006E67204649464F20646174612E2E2E0090
:1003100043757272656E74204649464F20636F754F
:100320006E743D0057616974696E6720666F722054
:100330004649464F20636F756E74203E20322E2E44
:100340002E0057726974696E672066696E616C2051
:100350006D656D6F72792075706461746520352FDD
:1003600037202866756E6374696F6E20756E6B6ECC
:100370006F776E292E2E2E0057726974696E672072
:1003800066696E616C206D656D6F72792075706441
:1003900061746520342F37202866756E6374696F29
:1003A0006E20756E6B6E6F776E292E2E2E00577233
:1003B0006974696E672066696E616C206D656D6F2A
:1003C00072792075706461746520332F3720286638
:1003D000756E6374696F6E20756E6B6E6F776E29C4
:1003E0002E2E2E00526573657474696E6720444D1D
:1003F000502E2E2E00456E61626C696E6720444D52
:10040000502E2E2E00456E61626C696E6720464943
:10041000464F2E2E2E00526573657474696E6720E8
:100420004649464F2E2E2E0053657474696E672020
:100430007A65726F2D6D6F74696F6E206465746577
:100440006374696F6E206475726174696F6E207475
:100450006F20302E2E2E0053657474696E67206DE8
:100460006F74696F6E20646574656374696F6E2064
:100470006475726174696F6E20746F2038302E2E2F
:100480002E0053657474696E67207A65726F2D6DE6
:100490006F74696F6E20646574656374696F6E2034
:1004A0007468726573686F6C6420746F20313536C0
:1004B0002E2E2E0053657474696E67206D6F7469FB
:1004C0006F6E20646574656374696F6E2074687202
:1004D0006573686F6C6420746F20322E2E2E00437B
:1004E000757272656E74204649464F20636F756E53
:1004F000743D0052656164696E67204649464F202D
:10050000636F756E742E2E2E005265736574746958
:100510006E67204649464F2E2E2E00577269746929
:100520006E672066696E616C206D656D6F727920F3
:1005300075706461746520322F37202866756E638C
:1005400074696F6E20756E6B6E6F776E292E2E2E0E
:100550000001B202FFFF0190040923A135016A02E4
:1005600006000160080000000000000000006004B8
:100570004000000001620200000060040040000032
:1005800057726974696E672066696E616C206D656B
:100590006D6F72792075706461746520312F37201A
:1005A0002866756E6374696F6E20756E6B6E6F77FB
:1005B0006E292E2E2E0053657474696E6720582F95
:1005C000592F5A206779726F206F666673657420A1
:1005D00054437320746F2070726576696F75732051
:1005E00076616C7565732E2E2E00436C65617269A1
:1005F0006E67204F54502042616E6B20666C6167BD
:100600002E2E2E0053657474696E6720444D502061
:10061000636F6E66696775726174696F6E20627967
:10062000746573202866756E6374696F6E20756ECD
:100630006B6E6F776E292E2E2E0053657474696E63
:1006400067206779726F2073656E73697469766964
:10065000747920746F202B2F2D203230303020649D
:1006600065672F7365632E2E2E0053657474696E53
:100670006720444C50462062616E647769647468F8
:1006800020746F203432487A2E2E2E0053657474F5
:10069000696E672065787465726E616C2066726140
:1006A0006D652073796E6320746F2054454D505FE3
:1006B0004F55545F4C5B305D2E2E2E005365747485
:1006C000696E672073616D706C652072617465205E
:1006D000746F20323030487A2E2E2E005365747499
:1006E000696E6720444D5020616E64204649464F34
:1006F0005F4F464C4F5720696E7465727275707407
:100700007320656E61626C65642E2E2E00536574D5
:1007100074696E6720636C6F636B20736F757263AF
:100720006520746F205A204779726F2E2E2E005349
:100730007563636573732120444D5020636F6E664B
:10074000696775726174696F6E2077726974746518
:100750006E20616E642076657269666965642E003C
:10076000037B034CCD6C03AB033656760068040262
:10077000CB47A202180400058BC1010C0400000045
:1007800000037F060CC92C979797038903264666BA
:10079000006C02200002400400000000024404003B
:1007A00000000002480400000000024C04000000A9
:1007B0000002500400000000025404000000000287
:1007C000580400000000025C040000000002BC04A9
:1007D0000000000001EC0400004000037F060CC98B
:1007E0002C9797970402030D355D040904872D3576
:1007F0003D00A3010000000001078601FE0741053E
:10080000F120283038077E01300746019A07470457
:10081000F1283038076C04F1283038021602000243
:1008200020627974657320696E20636F6E666967F4
:1008300020646566290057726974696E6720444DAB
:100840005020636F6E66696775726174696F6E20A0
:10085000746F204D5055206D656D6F727920626107
:100860006E6B732028005375636365737321204496
:100870004D5020636F6465207772697474656E20D3
:10088000616E642076657269666965642E00696EC2
:1008900076616C6964210076616C69642100FB00FB
:1008A000003E000B0036000100020003000000655E
:1008B0000054FFEF0000FA80000B128200010002DA
:1008C0000000000000000000000000000000002800
:1008D0000000FFFF4581FFFFFA72000000000000EA
:1008E00003E80000000100017FFFFFFE8001001B04
:1008F0000000000000000000000000000000003EBA
:1009000003304000000002CAE3093E8000002000DE
:10091000000000000000400000006000000041FFF7
:10092000000000000B2A0000165500002182FD8700
:100930002650FD800000001F000000058000000020
:100940000000000100000002000000030000400061
:1009500000000000046F0002653200005EC040002D
:100960000000000000000000000000000000FB8C00
:100970006F5DFD5D08D9007C733B006C12CC3200CA
:10098000139D3200D0D632000800400001F4FFE68B
:100990008079020000000000D0D600002710FB0084
:1009A0000000400000000000000000000000000007
:1009B0000001000000000000010001000000000034
:1009C000FA36FFBC308E0005FBF0FFD95BC8FFD0C4
:1009D0009ABE000010A9FFF41EB200CEBBF70000C3
:1009E000000100000004000200020200000CFFC22F
:1009F00080000001800000CF800040000000000067
:100A000000010000000000000600000000140000CB
:100A100000000000000000000000000000000000D6
:100A200000000000000000000000000000000000C6
:100A300000000000000000000000000000000000B6
:100A40000000033F68B6793528BCC67ED16C8000B3
:100A50000000400000000000B26A0000000000003A
:100A600000000000000000003FF000000030000027
:100A70000000000000000000000000000000000076
:100A80000000000000000000000000000000000066
:100A9000254D002F706D000005AE000C02D0000047
:100AA000000000650054FFEF00000000000000009F
:100AB00001000044000000000C00000001000000E4
:100AC00000000065000000540000FFEF000000007F
:100AD00000000000000000000000000000004000D6
:100AE00000000000000000000000000000004000C6
:100AF00000000000000000000000000000000000F6
:100B000000010000000200000000000000000000E2
:100B100000000000000000000000000000000000D5
:100B20000000000000000000000000000000001BAA
:100B300000000000000000000000000000000000B5
:100B400000000000000000000000000000000000A5
:100B50000000000000000000000040000000001B3A
:100B60000000000000000000000000000000000085
:100B70000000000000000000000000000000000075
:100B80000000000000000000000000000000000065
:100B90000000000000000000000000000000D8DCA1
:100BA000BAA2F1DEB2B8B4A88191F74A907F916AF7
:100BB000F3F9DBA8F9B0BAA080F2CE81F3C2F1C19B
:100BC000F2C3F3CCA2B280F1C6D880BAA7DFDFDFD0
:100BD000F2A7C3CBC5B6F087A2942448703C9540D9
:100BE0006834589B78A2F183922D557DD8B1B4B862
:100BF000A1D09180F270F370F27C80A8F101B098DE
:100C000087D943D886C988BAA1F20EB89780F1A9CE
:100C1000DFDFDFAADFDFDFF2AAC5CDC7A90CC92C51
:100C200097979797F1A989264666B0B4BA80ACDE4B
:100C3000F2CAF1B28C02A9B69800890E161EB8A9A4
:100C4000B4992C547CB08AA896365676F1B9AFB4D4
:100C5000B083C0B8A89711B18F98B9AFF0240844F9
:100C6000106418F1A329557DAF83B593AFF0002828
:100C700050F1A3869F61A6DADEDFD9FAA38696DB60
:100C800031A6D9F8DFBAA68FC2C5C7B28CC1B8A247
:100C9000DFDFDFA3DFDFDFD8D8F1B8A8B286B498F2
:100CA0000D355DB8AA98B0872D353DB2B6BAAF8C78
:100CB00096198F9FA70E161EB49AB8AA872C547C3B
:100CC000B9A3DEDFDFA3B180F2C4CDC9F1B8A9B406
:100CD00099830D355D89B9A32D557DB593A30E1666
:100CE0001EA92C547CB8B4B0F19783A81184A5092F
:100CF00098A383F0DA240844106418D8F1A5295584
:100D00007DA58595021A2E3A565A4048F9F3A3D983
:100D1000F8F098832408441064189782A8F111F021
:100D200098A2240844106418DAF3DED883A594014D
:100D3000D9A302F1A2C3C5C7D8F18492A24DDA2A81
:100D4000D84869D92AD86855DA32D85071D932D8FA
:100D5000705DDA3AD85879D93AD87893A34DDA2A1F
:100D6000D84869D92AD86855DA32D85071D932D8DA
:100D7000705DDA3AD85879D93AD878A88A9AF028A2
:100D800050789EF38818F19F1D98A8D908D8C89F5D
:100D9000129EF315A8DA1210D8F1AFC8978734B5B0
:100DA000B994A421F3D922D8F22DF3D92AD8F23557
:100DB000F3D932D881A4606061D961D86C6869D9EF
:100DC00069D8747071D971D8B1A384193D5DA383BA
:100DD0001A3E5E931030811011B8B0AF8F94F2DAE2
:100DE0003ED8B49AA88729DAF8D8879A35DAF8D89D
:100DF000879A3DDAF8D8B1B9A49885022E56A58114
:100E0000000C14A397B08AF12DD928D84DD948D811
:100E10006DD968D8B1840DDA0ED8A32983DA2C0EE7
:100E2000D8A3844983DA2C4C0ED8B8B0A88A9AF596
:100E300020AADADFD8A840AAD0DADED8A860AADAD9
:100E4000D0DFD8F19786A8319B069907AB97288801
:100E50009BF00C201440B8B0B4A88C9CF00428512E
:100E6000791D301438B282ABD0982C505078789BD2
:100E7000F11AB0F08A9CA82951798B2951798A24DA
:100E800070598B2058718A4469388B3940688A645C
:100E900048318B304960A588200971584468113960
:100EA00064493019F1AC002C547CF08CA804285013
:100EB00078F1889726A85998AC8C02264666F08966
:100EC0009CA8295179247059446938644831A9880B
:100ED00009205970AB11384069A8193148608CA8B5
:100EE0003C415C207C00F187981986A86E767EA92B
:100EF00099882D557D9EB9A38A228A6E8A568A5E6C
:100F00009FB183062646660E2E4E6E9DB8AD002C10
:100F1000547CF2B18CB499B9A32D557D8191AC3834
:100F2000AD3AB58391AC2DD928D84DD948D86DD9D3
:100F300068D88C9DAE29D904AED851D904AED879E1
:100F4000D904D881F39DAD008DAE1981ADD901D8FA
:100F5000F2AEDA26D88E912983A7D9ADADADADF327
:100F60002AD8D8F1B0AC89913E5E76F3AC2E2EF142
:100F7000B18C5A9CAC2C2828289CAC3018A898819D
:100F800028343C9724A728343C9C24F2B089AC91A7
:100F90002C4C6C8A9B2DD9D8D851D9D8D879D9D88E
:100FA000D8F19E88A331DAD8D8912DD928D84DD937
:100FB00048D86DD968D8B18393353D8025DAD8D823
:100FC0008569DAD8D8B49381A328343CF3AB8BF885
:100FD000A391B609B4D9ABDEFAB0879CB9A3DDF111
:100FE000A3A3A3A395F1A3A3A39DF1A3A3A3A3F2FA
:100FF000A3B49080F2A3A3A3A3A3A3A3A3A3A3B288
:10100000A3A3A3A3A3A3B087B599F1A3A3A398F126
:10101000A3A3A3A397A3A3A3A3F39BA3A3DCB9A711
:10102000F1262626D8D8FF206279746573290057E7
:10103000726974696E6720444D5020636F64652047
:10104000746F204D5055206D656D6F72792062610F
:101050006E6B73202800526573657474696E672027
:10106000493243204D617374657220636F6E7472F0
:101070006F6C2E2E2E0053657474696E6720736C2E
:101080006176652030206164647265737320746FCB
:101090002030783638202873656C66292E2E2E0075
:1010A00044697361626C696E6720493243204D6107
:1010B00073746572206D6F64652E2E2E00536574F7
:1010C00074696E6720736C6176652030206164649A
:1010D0007265737320746F20307837462E2E2E0081
:1010E0005A206779726F206F6666736574203D20A1
:1010F0000059206779726F206F6666736574203DB2
:10110000200058206779726F206F666673657420BF
:101110003D200052656164696E67206779726F20B7
:101120006F66667365742054432076616C756573D1
:101130002E2E2E004F54502062616E6B206973205A
:101140000052656164696E67204F54502062616E81
:101150006B2076616C696420666C61672E2E2E00B0
:10116000526573657474696E67206D656D6F727911
:101170002062616E6B2073656C656374696F6E20AD
:10118000746F20302E2E2E005265766973696F6E53
:10119000204020757365725B31365D5B365D203DA6
:1011A0002000436865636B696E67206861726477CD
:1011B000617265207265766973696F6E2E2E2E00DE
:1011C00053656C656374696E67206D656D6F7279C8
:1011D000206279746520362E2E2E0053656C65636F
:1011E00074696E6720757365722062616E6B203161
:1011F000362E2E2E0044697361626C696E6720730F
:101200006C656570206D6F64652E2E2E000A0A5283
:101210006573657474696E67204D5055363035308E
:101220002E2E2E0000000000250028002B000000BC
:101230000000240027002A00040404040404040419
:101240000202020202020303030303030102040871
:101250001020408001020408102001020408102020
:101260002900444D5020496E697469616C697A6146
:1012700074696F6E206661696C65642028636F64B1
:10128000652000444D5020726561647921205761CA
:101290006974696E6720666F722066697273742064
:1012A000696E746572727570742E2E2E00456E61B3
:1012B000626C696E6720696E7465727275707420F5
:1012C000646574656374696F6E2028417264756922
:1012D0006E6F2065787465726E616C20696E7465DE
:1012E00072727570742030292E2E2E00456E616248
:1012F0006C696E6720444D502E2E2E00496E697425
:1013000069616C697A696E6720444D502E2E2E00FB
:101310004D50553630353020636F6E6E656374699D
:101320006F6E206661696C6564004D5055363035CE
:101330003020636F6E6E656374696F6E20737563C2
:101340006365737366756C000A53656E6420616E25
:10135000792063686172616374657220746F2062C2
:101360006567696E20444D502070726F6772616DC1
:101370006D696E6720616E642064656D6F3A200050
:1013800054657374696E672064657669636520636C
:101390006F6E6E656374696F6E732E2E2E00496ECC
:1013A000697469616C697A696E67204932432064A7
:1013B0006576696365732E2E2E004649464F206F71
:1013C000766572666C6F77210000000008000201EC
:1013D00000000304070000000000000000005B1C88
:1013E00011241FBECFEFD8E0DEBFCDBF11E0A0E0DB
:1013F000B1E0E6ECF5E402C005900D92AE34B10721
:10140000D9F723E0AEE4B1E001C01D92AE34B207DB
:10141000E1F719E0C0EFD9E004C02197FE010E9476
:10142000071DCF3ED107C9F70E94E4130C94E122B7
:101430000C940000FC01918D828D981761F0828DD3
:10144000DF01A80FB11D5D968C91928D9F5F9F73F8
:10145000928F90E008958FEF9FEF0895FC01918D9A
:10146000828D981731F0828DE80FF11D858D90E007
:1014700008958FEF9FEF0895FC01918D228D892FA4
:1014800090E0805C9F4F821B91098F73992708958C
:1014900080E692E00E943C0A21E0892B09F420E0DA
:1014A000822F0895FC01848DDF01A80FB11DA35A7E
:1014B000BF4F2C91848D90E001968F739927848F74
:1014C000A689B7892C93A089B1898C9180648C936B
:1014D000938D848D981306C00288F389E02D808156
:1014E0008F7D80830895EF92FF920F931F93CF9388
:1014F000DF93EC0181E0888F9B8D8C8D981305C064
:10150000E889F989808185FD24C0F62E0B8D10E0D5
:101510000F5F1F4F0F731127E02E8C8DE8120CC048
:101520000FB607FCFACFE889F989808185FFF5CFEE
:10153000CE010E94520AF1CF8B8DFE01E80FF11D02
:10154000E35AFF4FF0820B8FEA89FB89808180622A
:1015500007C0EE89FF896083E889F989808180640A
:10156000808381E090E0DF91CF911F910F91FF90F8
:10157000EF900895CF93DF93EC01888D8823C9F015
:10158000EA89FB89808185FD05C0A889B9898C918C
:1015900086FD0FC00FB607FCF5CF808185FFF2CF27
:1015A000A889B9898C9185FFEDCFCE010E94520A9E
:1015B000E7CFDF91CF91089580E090E0892B29F06B
:1015C0000E94480A81110C94000008953FB7F894D6
:1015D0008091110290911202A0911302B091140215
:1015E00026B5A89B05C02F3F19F00196A11DB11D7E
:1015F0003FBFBA2FA92F982F8827820F911DA11DB9
:10160000B11DBC01CD0142E0660F771F881F991FF5
:101610004A95D1F70895089580914E0190E0209168
:101620004F01821B9109089585ED8093BC00809144
:10163000BC0084FDFCCF10923B0208954091C7018D
:10164000262F30E0240F311D21323105DCF42091AA
:101650003B022430C9F4FC0180E090E0861758F486
:101660003091C7012191DC01AB55BE4FA30FB11DD5
:101670002C930196F3CF8091C701680F6093C70147
:1016800080E0089581E0089582E008950895E09152
:101690004F0180914E01E81730F4F0E0E451FE4F25
:1016A000808190E008958FEF9FEF089590914F0112
:1016B00080914E01981750F4E92FF0E0E451FE4F6D
:1016C000208130E09F5F90934F0102C02FEF3FEFEA
:1016D000C9010895CF92DF92EF92FF920F931F936B
:1016E000CF93DF937C01262F972F8A0180913C02B4
:1016F000882391F0C62FD72F6E01C40ED51ECC15AE
:10170000DD0571F06991D701ED91FC910190F081B7
:10171000E02DC7010995F3CF642F822F0E941E0B85
:10172000C801DF91CF911F910F91FF90EF90DF9053
:10173000CF900895CF93DF931F92CDB7DEB7698323
:1017400020913C022223D1F020915F02203240F010
:1017500021E030E0FC013383228380E090E015C07B
:1017600080913D02E82FF0E0E25CFD4F998190838B
:101770008F5F80933D0280935F0205C061E0CE01E0
:1017800001960E941E0B81E090E00F90DF91CF91B7
:10179000089581E08093500108950E948F221F9246
:1017A0000F920FB60F9211242F933F934F935F9395
:1017B0006F937F938F939F93AF93BF93EF93FF9319
:1017C00080E692E00E94520AFF91EF91BF91AF91A3
:1017D0009F918F917F916F915F914F913F912F9149
:1017E0000F900FBE0F901F9018951F920F920FB67B
:1017F0000F9211242F938F939F93EF93FF93E09178
:101800007002F09171028081E0917602F09177028E
:1018100082FD12C09081809179028F5F8F73209139
:101820007A02821751F0E0917902F0E0E05AFD4F20
:10183000958F8093790201C08081FF91EF919F91F4
:101840008F912F910F900FBE0F901F90189590E0E1
:10185000FC01E753FC4E3491FC01E45BFD4E249106
:10186000FC01E85CFD4EE491EE2309F43BC0332318
:1018700039F1333091F038F43130A9F0323001F5DC
:1018800084B58F7D12C0373091F03830A1F03430FC
:10189000B9F4809180008F7D03C0809180008F77A4
:1018A000809380000DC084B58F7784BD09C080917E
:1018B000B0008F7703C08091B0008F7D8093B0001F
:1018C000F0E0EE0FFF1FEC5DFD4EA591B4918FB7D8
:1018D000F894EC91611103C020952E2301C02E2BAA
:1018E0002C938FBF08958F929F92AF92BF92CF9209
:1018F000DF92EF92FF926B017C010E94E60A4B019E
:101900005C01C114D104E104F104F1F00E94E60A83
:10191000DC01CB0188199909AA09BB09883E9340CB
:10192000A105B10570F321E0C21AD108E108F10860
:1019300088EE880E83E0981EA11CB11CC114D1044E
:10194000E104F10419F7DDCFFF90EF90DF90CF9025
:10195000BF90AF909F908F9008951F920F920FB6F7
:101960000F9211242F933F938F939F93AF93BF9325
:1019700080910D0290910E02A0910F02B091100281
:1019800030910C0223E0230F2D3720F40196A11D86
:10199000B11D05C026E8230F0296A11DB11D20939D
:1019A0000C0280930D0290930E02A0930F02B0934D
:1019B00010028091110290911202A0911302B09135
:1019C00014020196A11DB11D809311029093120281
:1019D000A0931302B0931402BF91AF919F918F9186
:1019E0003F912F910F900FBE0F901F9018951F924F
:1019F0000F920FB60F9211242F933F934F935F9343
:101A00006F937F938F939F93AF93BF93EF93FF93C6
:101A1000E0910201F09103010995FF91EF91BF91CF
:101A2000AF919F918F917F916F915F914F913F9176
:101A30002F910F900FBE0F901F9018951F920F922D
:101A40000FB60F9211242F933F934F935F936F9391
:101A50007F938F939F93AF93BF93EF93FF93E09107
:101A60000001F09101010995FF91EF91BF91AF91B4
:101A70009F918F917F916F915F914F913F912F91A6
:101A80000F900FBE0F901F901895EF92FF920F933B
:101A90001F93CF93DF9300D0CDB7DEB7142F91E023
:101AA00090933C0280935E0210923D0210925F027E
:101AB0008DEF92E029833A830E949A0B2981022FAD
:101AC000E22E3A81F32E8E2D801B811740F4F70110
:101AD00061917F018DEF92E00E949A0BF4CF0E94FA
:101AE0009D1091E0811190E0892F0F900F90DF9170
:101AF000CF911F910F91FF90EF900895CF93DF93B7
:101B00001F92CDB7DEB749839E012F5F3F4F41E063
:101B10000E94450D0F90DF91CF9108952F923F9233
:101B20004F925F926F927F928F929F92AF92BF92ED
:101B3000CF92DF92EF92FF920F931F93CF93DF9399
:101B4000CDB7DEB727970FB6F894DEBF0FBECDBF77
:101B50008F83962E742F59018FB7F894C0900D0281
:101B6000D0900E02E0900F02F09010028FBF5F81C4
:101B7000550F5B83812C312C2224239450E05D830C
:101B80004C832801612C712C871608F0A4C0209288
:101B90003C025F8150935E0210923D0210925F0200
:101BA000692D8DEF92E07E830E949A0B0E949D101A
:101BB00020923C025F8150935E0210923D0210928F
:101BC0005F027E8180913B028111FCCF2C813D819F
:101BD000281931092132310514F020E230E0213298
:101BE00008F020E220923B0220923A028FEF80938D
:101BF000390210923802820F809337022092160227
:101C0000809116024B81842B8093160280911502DD
:101C1000813071F410921502809116028093BB00FE
:101C20008091BC0083FDF8CF55EC5093BC0003C0FD
:101C300085EE8093BC0080913B028130E1F380917E
:101C40003802821710F420913802A7E1B2E0ECEEDE
:101C5000F1E08E2F4CEE51E0841B821718F48D9129
:101C60008193F7CF10924F0120934E0190914E0136
:101C700080914F01981749F10115110591F4A501C3
:101C8000430D511D37FC5A955A8349838DEF92E0DD
:101C90007E830E94560BE981FA81808333947E8192
:101CA000E5CF2FB7F89480910D0290910E02A0918C
:101CB0000F02B09110022FBF8C199D09AE09BF0908
:101CC00084159505A605B705D0F2872F713208F067
:101CD00080E2880E59CF0115110509F12FB7F8944C
:101CE00080910D0290910E02A0910F02B09110020E
:101CF0002FBF8C199D09AE09BF0920E030E0801785
:101D00009107A207B30758F0272F30E0832D032C4B
:101D1000000C990B8217930714F433243A94832D03
:101D200027960FB6F894DEBF0FBECDBFDF91CF91DF
:101D30001F910F91FF90EF90DF90CF90BF90AF90E9
:101D40009F908F907F906F905F904F903F902F90DB
:101D50000895BF92CF92DF92EF92FF920F931F935D
:101D6000CF93DF931F92CDB7DEB7F82EE62EC42EA9
:101D7000B22ED02E08EE13E09E012F5F3F4F41E0C0
:101D80000E948E0D882321F1EC2DF0E0EB19F10972
:101D9000319621E030E002C0220F331FBA94E2F7FF
:101DA000215031090E2E01C0220F0A94EAF78D2D21
:101DB00001C0880FEA95EAF7422F4095998149239F
:101DC0002823422B49836E2D8F2D0E947E0D01C04A
:101DD00080E00F90DF91CF911F910F91FF90EF90D6
:101DE000DF90CF90BF900895CF92DF92EF92FF9255
:101DF0000F931F93CF93DF931F92CDB7DEB7F82ECB
:101E0000E62ED42EC22E08EE13E09E012F5F3F4F28
:101E100041E00E948E0D9981CC2041F041E050E0DC
:101E200001C0440FDA94EAF7492B09C021E030E001
:101E3000A90101C0440FDA94EAF740954923498388
:101E40006E2D8F2D0E947E0D0F90DF91CF911F91EF
:101E50000F91FF90EF90DF90CF9008951F920F9217
:101E60000FB60F9211242F933F934F935F936F936D
:101E70007F938F939F93AF93BF93EF93FF93809143
:101E8000B900887F803609F49CC068F5883209F46F
:101E90005BC090F4803109F454C038F4882309F40D
:101EA000F6C0883009F44DC0F6C0883109F44CC042
:101EB000803209F45DC0EFC0803409F468C048F492
:101EC000803309F455C0883309F0E5C080933902A6
:101ED000D8C0803509F44FC0883509F45DC0883416
:101EE00009F0D9C0D6C0883909F4C7C0A8F488372A
:101EF00009F467C038F4883609F463C0803709F400
:101F000060C0C9C0883809F4B8C0803909F45FC01E
:101F1000803809F0C0C05BC0803B09F486C038F44B
:101F2000803A09F466C0883A09F47FC0B4C0803CA6
:101F300009F4A7C0883C09F4A4C0883B09F48AC00E
:101F4000AAC08091160210C0909138028091370289
:101F5000981770F5E091380281E08E0F8093380277
:101F6000F0E0E95EFD4F80818093BB0085EC86C088
:101F7000809339028EC0E091380281E08E0F809309
:101F800038028091BB00F0E0E95EFD4F80839091C4
:101F90003802809137026EC0E091380281E08E0FE6
:101FA000809338028091BB00F0E0E95EFD4F8083B2
:101FB00080913A0281116DC081E08093150284EA1C
:101FC00061C083E080933B021092EB01CFCF809100
:101FD000EB01803208F051C0E091EB0181E08E0FFF
:101FE0008093EB018091BB00F0E0E553FE4F8083CE
:101FF000BDCF85EC8093BC0010923B028091EB0139
:10200000803230F4E091EB01F0E0E553FE4F1082B6
:102010006091EB0170E0E091C901F091CA018BEC95
:1020200091E009951092EB0136C084E080933B0269
:102030001092C8011092C701E091C501F091C6014C
:1020400009958091C701811105C081E08093C70186
:102050001092A501E091C80181E08E0F8093C80124
:10206000F0E0EB55FE4F80818093BB009091C8015A
:102070008091C701981708F479CF85E88093BC0058
:102080000AC085EC8093BC0010923B0204C0109201
:1020900039020E94140BFF91EF91BF91AF919F9174
:1020A0008F917F916F915F914F913F912F910F9001
:1020B0000FBE0F901F901895009769F0FC010190DA
:1020C0000020E9F73197AF01481B590BBC0180E6AE
:1020D00092E00C94B91380E090E008950F931F9361
:1020E000CF93DF938C01C0E0D0E0F801EC0FFD1F2F
:1020F0006491662371F0E0916002F09161020190B9
:10210000F081E02D80E692E00995892B11F021966F
:10211000ECCFCE01DF91CF911F910F910895CF9316
:10212000DF930E946E10EC018DE391E00E945C1041
:102130008C0F9D1FDF91CF91089520915F029091A8
:102140005E02213208F04AC080913B028111FCCF2F
:1021500032E030933B0231E030933A023FEF30936C
:1021600039021092380220933702AEE3B2E047E121
:1021700052E0FA013E2F341B321718F43D9131938F
:10218000F9CF1092160220911602990F922B90937C
:10219000160290911502913061F4109215029091FF
:1021A00016029093BB009091BC0093FDF8CF95EC84
:1021B00001C095EE9093BC0090913B029230E1F308
:1021C000909139029F3F79F080913902803241F03D
:1021D00080913902803331F084E005C081E003C092
:1021E00082E001C083E010923D0210925F021092E3
:1021F0003C0208950F931F93CF93DF93C9E1D3E07F
:1022000008EE13E02AE133E041E06AE388810E94AE
:102210008E0D8981DF91CF911F910F91089521E05B
:1022200042E06AE6809119030C94F40E482F6EE6A2
:10223000809119030C947E0D2F923F924F925F92E2
:102240006F927F928F929F92AF92BF92CF92DF92C6
:10225000EF92FF920F931F93CF93DF933C015B01AB
:10226000342EC22F202E4F716DE6809119030E94EB
:102270007E0D8C2F0E94161180E190E00E94982024
:102280006C01002331F080E190E00E949820582EEC
:10229000492EE12CF12CEA14FB0408F06DC0C701B3
:1022A0004096A816B90618F4DA2DDE1901C0D0E15F
:1022B0008D2F90E020E031E02C1B310928173907E1
:1022C00014F4DC2FD195F301EE0DFF1D222059F0FF
:1022D000952DA52DB42D8A2F891B8D1730F484914F
:1022E0008D933196F8CF5E2E4F2E252D342D4D2F08
:1022F0006FE6809119030E94450D8D2E912CC1141B
:10230000D10429F1432D4F716DE6809119030E948C
:102310007E0D8C2F0E94161108EE13E096014D2FB2
:102320006FE6809119030E948E0DA401B601852DE0
:10233000942D0E949422892B51F0C6010E942D21D8
:10234000222021F1852D942D0E942D211FC0E80C03
:10235000F91CCD0FEA14FB0408F09DCFC11101C098
:102360003394432D4F716DE6809119030E947E0DC9
:102370008C2F0E9416118FCFC6010E942D21222082
:1023800039F0852D942D0E942D2102C080E001C0DE
:1023900081E0DF91CF911F910F91FF90EF90DF903F
:1023A000CF90BF90AF909F908F907F906F905F90F5
:1023B0004F903F902F9008958F929F92AF92BF922F
:1023C0000F931F93CF93DF93CDB7DEB7A1970FB6CF
:1023D000F894DEBF0FBECDBF19A2423008F44AE028
:1023E0008E010F5D1F4F842E912CA12CB12CA501C5
:1023F00094010E94E51CE62FB901CA0101501109A0
:10240000EA3014F4E05D01C0E95CD801EC93232BC1
:10241000242B252B61F7C8010E945C10A1960FB6F2
:10242000F894DEBF0FBECDBFDF91CF911F910F910A
:10243000BF90AF909F908F900895CF93DF93682FB8
:1024400070E080E090E040E10E94DC11EC018DE35F
:1024500091E00E945C108C0F9D1FDF91CF91089539
:102460000F931F93462F08EE13E09C0164E78091C1
:1024700019030E948E0D1F910F9108950F931F93C2
:10248000CF93DF93C9E1D3E008EE13E02AE133E014
:1024900042E062E788810E948E0D898190E0982F4A
:1024A00088272A81822BDF91CF911F910F91089568
:1024B000CF92DF92EF92FF92CF93DF936B017C017B
:1024C000E0916002F09161020190F081E02D6DE2F7
:1024D00080E692E00995EC0166277727CB016C191D
:1024E0007D098E099F094AE00E94DC118C0F9D1F17
:1024F000DF91CF91FF90EF90DF90CF900895CF9331
:10250000DF93BC01990F880B990B97FF03C00E94C2
:10251000581203C04AE00E94DC11EC018DE391E007
:102520000E945C108C0F9D1FDF91CF910895EF9258
:10253000FF920F931F93CF93DF931F92CDB7DEB718
:102540007A0189019E012F5F3F4F41E00E948E0D6D
:10255000882339F029812E7730E035952795F701CA
:1025600020830F90DF91CF911F910F91FF90EF90FB
:1025700008954F925F926F927F928F929F92AF9247
:10258000BF92CF92DF92EF92FF926B017C01B42E4B
:102590009B01AC010E947E20882319F080E491E029
:1025A00027C026013701E89477F82FEF3FEF4FE778
:1025B0005FE7C301B2010E947E2081110DC02FEFA1
:1025C0003FEF4FE75FE7C301B2010E94071E1816F5
:1025D0001CF484E491E00CC02FEF3FEF4FE75FE481
:1025E000C701B6010E94BA1F181684F488E491E06E
:1025F000FF90EF90DF90CF90BF90AF909F908F9023
:102600007F906F905F904F900C945C102FEF3FEF96
:102610004FE75FECC701B6010E94071E87FDE6CFBA
:1026200020E030E0A901C701B6010E94071E87FF24
:1026300011C0E0916002F09161020190F081E02D03
:102640006DE280E692E009954C01F7FAF094F7F814
:10265000F09402C0812C912CA12C60E070E080E00D
:102660009FE3AB1441F020E030E040E251E40E94EF
:102670000C1EA394F6CF9B01AC01C701B6010E94CA
:102680000E1D2B013C010E947E1E6B017C010E94ED
:10269000AD1E9B01AC01C301B2010E940D1D2B01B7
:1026A0003C014AE0C701B6010E94DC117C01E80C44
:1026B000F91CBB2031F08CE491E00E945C10E80E24
:1026C000F91EDB2CDD2021F120E030E040E251E476
:1026D000C301B2010E94C71F2B013C010E947E1E54
:1026E0004B01A12CB12C4AE0C501B4010E94DC11C0
:1026F000E80EF91EC501B4010E94AD1E9B01AC019C
:10270000C301B2010E940D1D2B013C01DA94DACF06
:10271000C701FF90EF90DF90CF90BF90AF909F9058
:102720008F907F906F905F904F900895CF93DF933D
:10273000EA0191E090933C0280935E0210923D0288
:1027400010925F028DEF92E00E949A0B69818DEFEB
:1027500092E00E949A0B68818DEF92E00E949A0BA2
:102760000E949D1091E0811190E0892FDF91CF911F
:102770000895CF92DF92EF92FF920F931F93CF9322
:10278000DF936C017A018B01C0E0D0E0CE15DF054C
:1027900089F0D8016D918D01D601ED91FC910190E8
:1027A000F081E02DC6010995892B11F47E0102C04C
:1027B0002196ECCFC701DF91CF911F910F91FF9030
:1027C000EF90DF90CF900895CF93DF93CDB7DEB732
:1027D000CA5AD1090FB6F894DEBF0FBECDBF7894A8
:1027E00084B5826084BD84B5816084BD85B5826016
:1027F00085BD85B5816085BD80916E0081608093C7
:102800006E0010928100809181008260809381002F
:10281000809181008160809381008091800081603F
:10282000809380008091B10084608093B10080919A
:10283000B00081608093B00080917A0084608093C2
:102840007A0080917A00826080937A0080917A0089
:10285000816080937A0080917A00806880937A000A
:102860001092C10010924F0110924E0110923D0241
:1028700010925F0210923B0281E080933A02109224
:10288000150261E082E10E94270C61E083E10E9471
:10289000270C8091B9008E7F8093B9008091B90098
:1028A0008D7F8093B90088E48093B80085E480939D
:1028B000BC0088E18093B800E0917002F091710251
:1028C00082E08083E0916C02F0916D021082E091D1
:1028D0006E02F0916F0280E1808310927802E091A5
:1028E0007402F091750286E08083E0917202F091AB
:1028F0007302808180618083E0917202F0917302A3
:10290000808188608083E0917202F09173028081FF
:1029100080688083E0917202F091730280818F7DE4
:1029200080838EE993E10E948F1001E023E042E072
:102930006BE6809119030E94A90E00E022E044E0BA
:102940006BE1809119030E94A90E22E044E06CE142
:10295000809119030E94A90E20E046E06BE6809169
:1029600019030E94F40E80E893E10E948F1028EE74
:1029700033E04AE153E065E7809119030E94971222
:10298000E0901A03F12C8CE291E00E945C10C701E8
:102990000E947F1224E3E216F10419F080E193E132
:1029A00002C08AE293E10E948F1088E493E10E94C2
:1029B0008F1080E692E00E943C0A892B31F080E67D
:1029C00092E00E941A0A892BA1F780E692E00E9409
:1029D0003C0A892BD1F380E692E00E943C0A892BC5
:1029E00031F080E692E00E941A0A892BA1F78CEF61
:1029F00092E10E948F108DE092E10E948F1021E001
:102A000047E06BE6809119030E94F40E6EE170E0DE
:102A100080E090E00E94730C85EF91E10E948F109E
:102A200020E046E06BE6809119030E94F40E8BEDE6
:102A300091E10E948F1040E76DE6809119030E949A
:102A40007E0D80EC91E10E948F1086E00E941611AD
:102A500082EA91E10E948F1008EE13E02AE133E050
:102A600041E06FE6809119030E948E0D10911A03C8
:102A700088E891E10E946E10812F0E941D1280E66D
:102A800091E10E948F1040E06DE6809119030E9451
:102A90007E0D81E491E10E948F1008EE13E09E010B
:102AA0002F5F3F4F41E060E0809119030E948E0D3F
:102AB0001981117010931A0384E391E10E946E1042
:102AC000111103C08EE898E002C087E998E00E94E7
:102AD0008F1083E191E10E948F1028EE33E04AE1EC
:102AE00053E060E0809119030E94971280901A03CE
:102AF00028EE33E04AE153E061E0809119030E943F
:102B0000971290901A0328EE33E04AE153E062E016
:102B1000809119030E949712A0901A0382E091E11C
:102B20000E946E10882D082C000C990B0E947F12B9
:102B300081EF90E10E946E10892D092C000C990BF9
:102B40000E947F1280EE90E10E946E108A2D0A2C66
:102B5000000C990B0E947F128DEB90E10E948F1068
:102B60004FE765E2809119030E947E0D80EA90E1B3
:102B70000E948F1020E045E06AE6809119030E94D0
:102B8000F40E86E790E10E948F1048E665E280919E
:102B900019030E947E0D86E590E10E948F1021E0CE
:102BA00041E06AE6809119030E94F40E64E170E04E
:102BB00080E090E00E94730C8FE290E10E946E1022
:102BC0004AE069E877E080E090E00E94DC1187E26B
:102BD00090E10E948F1001E020E040E069E877E09A
:102BE0008EE998E00E941C11882309F4A6C386E6AA
:102BF00098E00E948F1086E398E00E946E104AE0F1
:102C000060EC70E080E090E00E94DC1180E298E0EF
:102C10000E948F1088E090E00E949820B82E192F13
:102C2000E12CF12CF701E05AF84F4491F701EF59EC
:102C3000F84F2491670183E0C80ED11CF701EE59CB
:102C4000F84FE491EE23D1F1EE2EF12CE330D8F0E1
:102C5000B7018B2D912FC655DF4F2883CA5AD0401C
:102C6000C755DF4F4883C95AD0400E94C521B82EAE
:102C7000192FC755DF4F4881C95AD040C655DF4F7D
:102C80002881CA5AD040AB2DB12F80E090E08E153C
:102C90009F0548F4F601E80FF91FE05AF84FE49158
:102CA000ED930196F4CF00E0B7018B2D912F0E9498
:102CB0001C11EC0CFD1C81111BC010C094E0E90E2E
:102CC000F11CF601E05AF84FE491E13039F442E3A7
:102CD00068E3809119030E947E0D0AC08B2D912F0D
:102CE0000E942D2187EF90E00E948F1012E02AC3EE
:102CF000A0ECEA16F10408F495CF8B2D912F0E94D9
:102D00002D218FE297E00E948F108DE097E00E94C6
:102D10008F1003E023E042E06BE6809119030E94EC
:102D2000A90E8CED96E00E948F1042E168E380913D
:102D300019030E947E0D8CEB96E00E948F1044E0F8
:102D400069E1809119030E947E0D8CE896E00E9453
:102D50008F1001E023E045E06AE1809119030E94B1
:102D6000A90E8AE696E00E948F1003E023E042E07D
:102D70006AE1809119030E94A90E8AE396E00E94FD
:102D80008F1022E044E06BE1809119030E94A90EAC
:102D900084E096E00E948F1043E060E78091190381
:102DA0000E947E0D40E061E7809119030E947E0D34
:102DB0008AEE95E00E948F1020E040E060E0809174
:102DC00019030E94F40E86EB95E00E948F10082DE7
:102DD00026E046E060E0809119030E94A90E092DCB
:102DE00026E046E061E0809119030E94A90E0A2DB9
:102DF00026E046E062E0809119030E94A90E80E877
:102E000095E00E948F10E12CF12CF701EF5AFA4F58
:102E1000E491A1E8B0E0AC0FBD1FAE0DB11DEC9385
:102E200081E08E0DBFEFEB1AFB0A23E02E1568F749
:102E3000CD57DF4F6881C358D04070E09B012E5FB3
:102E40003F4F90E02817390704F700E0CE57DF4FD7
:102E50002881C258D040CF57DF4F4881C158D04059
:102E600081E890E08C0F9D1F03960E941C118BE15E
:102E700095E00E948F1080E0F701EF5AFA4FE4913D
:102E8000A1E8B0E0AC0FBD1FA80FB11DEC938F5FA0
:102E90009FEFE91AF90A843078F3CD57DF4F688144
:102EA000C358D04070E0AB014E5F5F4F282F30E039
:102EB000421753070CF700E0CE57DF4F2881C25866
:102EC000D040CF57DF4F4881C158D04081E890E0D3
:102ED0008C0F9D1F03960E941C1189E095E00E94B3
:102EE0008F100E940F1183EF94E00E948F100E94B8
:102EF0003E12182FD92E8FED94E00E946E10812F74
:102F00009D2D0E94D31C612FCE0101960E9430128C
:102F100084EB94E00E948F1042E06FE180911903EE
:102F20000E947E0D82E894E00E948F104CE961E2DD
:102F3000809119030E947E0D87E594E00E948F1016
:102F400040E560E2809119030E947E0D88E294E0E2
:102F50000E948F1040E062E2809119030E947E0D72
:102F600086E194E00E948F100E940F1185E094E0AA
:102F70000E948F1021E046E06AE6809119030E94CA
:102F8000F40E85EF93E00E948F1021E047E06AE69F
:102F9000809119030E94F40E84EE93E00E948F103A
:102FA00021E043E06AE6809119030E94F40E8EEA64
:102FB00093E00E948F1080E0F701EF5AFA4FE491FE
:102FC000A1E8B0E0AC0FBD1FA80FB11DEC938F5F5F
:102FD000AFEFEA1AFA0A843078F3CD57DF4F6881F1
:102FE000C358D04070E0AB014E5F5F4F282F30E0F8
:102FF000421753070CF700E0CE57DF4F2881C25825
:10300000D040CF57DF4F4881C158D04081E890E091
:103010008C0F9D1F03960E941C1188E793E00E946D
:103020008F1080E0F701EF5AFA4FE491A1E8B0E089
:10303000AC0FBD1FA80FB11DEC938F5FBFEFEB1A54
:10304000FB0A843078F3CD57DF4F6881C358D040F6
:1030500070E0AB014E5F5F4F282F30E042175307FF
:103060000CF700E0CE57DF4F2881C258D040CF5731
:10307000DF4F4881C158D04081E890E08C0F9D1F00
:1030800003960E941C1182E493E00E948F1080E05E
:10309000F701EF5AFA4FE491A1E8B0E0AC0FBD1F81
:1030A000A80FB11DEC938F5F2FEFE21AF20A843064
:1030B00078F3CD57DF4F6881C358D04070E0AB0143
:1030C0004E5F5F4F282F30E0421753070CF700E0A8
:1030D000CE57DF4F2881C258D040CF57DF4F4881AD
:1030E000C158D04081E890E08C0F9D1F03960E944C
:1030F0001C1184E293E00E948F100E943E126C012A
:1031000083E0C816D104C8F380E193E00E946E10FA
:10311000C6010E94D31C8BEF92E00E948F106C2D91
:10312000CE0101960E9430128FED92E00E948F1026
:103130000E94FA10182F85EC92E00E946E10812FE9
:103140000E941D128FE892E00E948F1080E0F7012C
:10315000EF5AFA4FE491A1E8B0E0AC0FBD1FA80F01
:10316000B11DEC938F5F9FEFE91AF90A843078F371
:10317000CD57DF4F3880C358D040832C912CA40109
:103180004E5F5F4F282F30E04217530704F7CE57AA
:10319000DF4FB880C258D040CF57DF4F2880C1588A
:1031A000D040422D4F716DE6809119030E947E0D33
:1031B0008B2D0E941611C12CD12C612C7724739475
:1031C00071E8472E512C4C0E5D1EA3E04A0E511C97
:1031D000C814D90498F5C60140968816990618F4C3
:1031E000A32CAC1802C050E1A52E8A2D90E09301CB
:1031F0002B1931092817390714F4AB2CA19492012B
:103200002C0D3D1D08EE13E04A2D6FE68091190349
:103210000E948E0DCA0CD11CBA0CC814D904C0F679
:10322000B11001C02394422D4F716DE680911903B6
:103230000E947E0D8B2D0E941611CACF81E792E06D
:103240000E948F100E943E126C010397D8F38DE507
:1032500092E00E946E10C6010E94D31C88E492E0A6
:103260000E948F106C2DCE0101960E9430128CE2CC
:1032700092E00E948F100E94FA10182F82E192E0D3
:103280000E946E10812F0E941D128CED91E00E9411
:103290008F10F701EF5AFA4F80E09491A1E8B0E067
:1032A000AC0FBD1FA80FB11D9C938F5F843010F42D
:1032B0003196F3CFCD57DF4F6881C358D04070E0CF
:1032C000AB014E5F5F4F282F30E04217530784F762
:1032D00000E0CE57DF4F2881C258D040CF57DF4F94
:1032E0004881C158D04081E890E08C0F9D1F039623
:1032F0000E941C1180EC91E00E948F1088E991E0FF
:103300000E948F1020E047E06AE6809119030E9436
:10331000F40E8DE591E00E948F108AE290E0909388
:103320001C0380931B0385E291E00E948F100E9492
:103330000F110E94FA1010E005C082ED90E00E948B
:103340008F1011E01093510180911903CD56DF4F7A
:1033500019821882C359D040AE014D565F4F63E1C8
:103360000E94961380911903CF56DF4F198218825D
:10337000C159D040AE014F565F4F65E10E94961390
:1033800080911903CF57DF4F19821882C158D0405E
:10339000AE014F575F4F67E10E949613809119036A
:1033A0001A821982AE014F5F5F4F6AE00E94961346
:1033B00011112FC08CEE92E10E948F1021E047E0A6
:1033C0006AE6809119030E94F40E8DEA92E10E9450
:1033D0008F1089EC9BE09093010180930001809114
:1033E0006900836080936900E89A0E94FA108093D4
:1033F0009F0183E892E10E948F1081E08093A401F5
:1034000080911B0390911C039093A1018093A001D4
:1034100010C082E692E10E946E106091510170E04E
:1034200080E090E04AE00E94DC1180E692E10E9498
:103430008F10E9E5F2E12491E5E4F2E1849188233B
:1034400099F090E0880F991FFC01E25DFD4EA59177
:10345000B491FC01EC5DFD4E859194918FB7F89489
:10346000EC91E22BEC938FBF11E08091A4018823B3
:1034700039F12091A2013091A3018091A001909196
:10348000A10140915001411103C028173907C8F329
:10349000109250010E94FA10F82E80939F010E9412
:1034A0003E129093A3018093A201F4FC03C0811506
:1034B000944049F40E940F118AEB93E10E948F100F
:1034C0000E94DC0AD2CFF1FEFBCFE090A201F09087
:1034D000A301C090A001D090A101EC14FD0438F428
:1034E0000E943E129093A3018093A201EECF6C2D17
:1034F0008FE591E00E943012EC18FD08F092A301D4
:10350000E092A201A0906301B12CBA2CAA24809170
:103510006401A80EB11CC0906701D12CDC2CCC2416
:1035200080916801C80ED11CE0906B01F12CFE2C3B
:10353000EE2480916C01E80EF11C60915F0170E057
:10354000762F662780916001680F711D072E000C91
:10355000880B990B0E94AF1E20E030E040E858E352
:103560000E94C71F2B013C016093090370930A035B
:1035700080930B0390930C03B501BB0C880B990B44
:103580000E94AF1E20E030E040E858E30E94C71FD1
:103590004B015C0160930D0370930E0380930F0346
:1035A00090931003B601DD0C880B990B0E94AF1E9F
:1035B00020E030E040E858E30E94C71FCB56DF4FC1
:1035C000688379838A839B83C559D04060931103B4
:1035D000709312038093130390931403B701FF0CAD
:1035E000880B990B0E94AF1E20E030E040E858E3C2
:1035F0000E94C71F6B017C01609315037093160333
:103600008093170390931803A3019201C301B201A1
:103610000E940E1DC756DF4F688379838A839B8380
:10362000C959D040A30192010E94C71FC356DF4F62
:10363000688379838A839B83CD59D040A501940107
:10364000C501B4010E940E1D2B013C01A50194018E
:103650000E94C71F9B01AC01C356DF4F688179816F
:103660008A819B81CD59D0400E940E1D20E030E020
:1036700040E85FE30E940D1DCF55DF4F68837983DB
:103680008A839B83C15AD040CB56DF4F2881398132
:103690004A815B81C559D040C301B2010E94C71F56
:1036A000CB55DF4F688379838A839B83C55AD0408B
:1036B000A7019601C756DF4F688179818A819B8176
:1036C000C959D0400E94C71F9B01AC01CB55DF4FA9
:1036D000688179818A819B81C55AD0400E940D1DE5
:1036E000CF55DF4F288139814A815B81C15AD04053
:1036F0000E94A81D6093530170935401809355015B
:1037000090935601A7019601C301B2010E94C71F01
:103710002B013C01CB56DF4F288139814A815B81E7
:10372000C559D040C756DF4F688179818A819B8116
:10373000C959D0400E94C71F9B01AC01C301B2010F
:103740000E940E1D0E947A1DDC01CB01B0588093AF
:10375000570190935801A0935901B0935A01A701C2
:103760009601C701B6010E940E1DA70196010E9495
:10377000C71F9B01AC01C356DF4F688179818A81E5
:103780009B81CD59D0400E940E1D20E030E040E8E2
:103790005FE30E940D1D2B013C01CB56DF4F2881BA
:1037A00039814A815B81C559D040CA01B9010E9463
:1037B0000E1DA70196010E94C71F6B017C01A50188
:1037C0009401C756DF4F688179818A819B81C959ED
:1037D000D0400E94C71F9B01AC01C701B6010E94E7
:1037E0000D1DA30192010E94A81D60935B017093BF
:1037F0005C0180935D0190935E0186E391E00E94FD
:103800005C1020E030E044E353E460915301709198
:10381000540180915501909156010E94C71F2BEDD4
:103820003FE049E450E40E940C1E42E00E94B912BD
:103830008BE391E00E945C1020E030E044E353E42D
:1038400060915701709158018091590190915A01EE
:103850000E94C71F2BED3FE049E450E40E940C1E7C
:1038600042E00E94B9128BE391E00E945C1020E0DC
:1038700030E044E353E460915B0170915C0180911E
:103880005D0190915E010E94C71F2BED3FE049E46E
:1038900050E40E940C1E42E00E94B9128DE391E0B8
:1038A0000E945C10609152016127609352018DE08B
:1038B0000E94270C05CEE0E6F2E01382128288EE29
:1038C00093E0A0E0B0E084839583A683B78320E1F2
:1038D00031E03183208325EC30E03587248724ECE8
:1038E00030E03787268720EC30E0318B208B21ECCD
:1038F00030E0338B228B22EC30E0358B248B26ECAE
:1039000030E0378B268B118E128E138E148EEDEFD6
:10391000F2E01382128284839583A683B78380E2C8
:1039200091E09183808388E680931903E9E0F3E0D6
:1039300080E090E0A0E8BFE380839183A283B3831B
:1039400014821582168217821086118612861386BB
:103950001486158616861786E4E4F3E01182108239
:103960001382128215821482EEE3F3E01182108238
:103970001382128215821482E8E3F3E0118210822E
:103980001382128215821482ECE2F3E0108211821B
:103990001282138214821582168217821086118673
:1039A000128613860895CF93DF93BC0180E090E0E8
:1039B0004AE00E94DC11EC018DE391E00E945C1072
:1039C0008C0F9D1FDF91CF910895A1E21A2EAA1BA3
:1039D000BB1BFD010DC0AA1FBB1FEE1FFF1FA217BF
:1039E000B307E407F50720F0A21BB30BE40BF50BBC
:1039F000661F771F881F991F1A9469F76095709545
:103A0000809590959B01AC01BD01CF010895EE0F0B
:103A1000FF1F0590F491E02D09945058BB27AA2769
:103A20000E94251D0C94801F0E94721F38F00E9476
:103A3000791F20F039F49F3F19F426F40C94341FB9
:103A40000EF4E095E7FB0C942E1FE92F0E94911FC6
:103A500058F3BA17620773078407950720F079F4C3
:103A6000A6F50C94B31F0EF4E0950B2EBA2FA02DE3
:103A70000B01B90190010C01CA01A0011124FF271B
:103A8000591B99F0593F50F4503E68F11A16F04016
:103A9000A22F232F342F4427585FF3CF4695379515
:103AA0002795A795F0405395C9F77EF41F16BA0BDA
:103AB000620B730B840BBAF09150A1F0FF0FBB1F88
:103AC000661F771F881FC2F70EC0BA0F621F731FD1
:103AD000841F48F4879577956795B795F7959E3F2E
:103AE00008F0B0CF9395880F08F09927EE0F9795BF
:103AF000879508959F939F77EEE389379E0728F473
:103B0000E8E6F0E00E945E1F0CC00E94EA1E90589A
:103B1000A2EA2AED3FE049EC5FE30E94251D0E94E6
:103B2000801F0F9007FC905808950E94721F60F04C
:103B300080E891E009F49EEF0E94791F28F040E8A8
:103B400051E071F45EEF0CC00C94341F0C94B31F61
:103B5000E92FE0780E94911F40F3092E052AB1F366
:103B6000261737074807590738F00E2E07F8E025C3
:103B700069F0E025E0640AC0EF6307F8009407FAF3
:103B8000DB01B9019D01DC01CA01AD01EF930E9487
:103B9000231E0E94801F0E94D81D5F91552339F07B
:103BA0002BED3FE049E450FD49EC0C940E1D0895C7
:103BB000DF93DD27B92FBF7740E85FE316161706BE
:103BC00048075B0718F4D92F0E94BF1F9F938F935C
:103BD0007F936F930E947A20ECE7F0E00E94371FFA
:103BE0000E94801F2F913F914F915F910E94DA1F99
:103BF000DD2351F09058A2EA2AED3FE049EC5FE363
:103C0000D0785D270E94251DDF910C94801F0E94B3
:103C10000A1F08F481E008950E94201E0C94801F62
:103C20000E94791F58F00E94721F40F029F45F3FF4
:103C300029F00C942E1F51110C94B41F0C94341FB6
:103C40000E94911F68F39923B1F3552391F3951BBB
:103C5000550BBB27AA2762177307840738F09F5FAD
:103C60005F4F220F331F441FAA1FA9F335D00E2E1A
:103C70003AF0E0E832D091505040E695001CCAF787
:103C80002BD0FE2F29D0660F771F881FBB1F26174A
:103C900037074807AB07B0E809F0BB0B802DBF0121
:103CA000FF2793585F4F3AF09E3F510578F00C94F0
:103CB0002E1F0C94B41F5F3FE4F3983ED4F3869517
:103CC00077956795B795F7959F5FC9F7880F911D11
:103CD0009695879597F90895E1E0660F771F881FFD
:103CE000BB1F621773078407BA0720F0621B730BB0
:103CF000840BBA0BEE1F88F7E09508950E94991F78
:103D000088F09F5798F0B92F9927B751B0F0E1F09C
:103D1000660F771F881F991F1AF0BA95C9F714C04C
:103D2000B13091F00E94B31FB1E008950C94B31F1D
:103D3000672F782F8827B85F39F0B93FCCF3869585
:103D400077956795B395D9F73EF4909580957095E2
:103D500061957F4F8F4F9F4F0895E89409C097FB5F
:103D60003EF490958095709561957F4F8F4F9F4F52
:103D70009923A9F0F92F96E9BB279395F695879596
:103D800077956795B795F111F8CFFAF4BB0F11F459
:103D900060FF1BC06F5F7F4F8F4F9F4F16C0882300
:103DA00011F096E911C0772321F09EE8872F762F36
:103DB00005C0662371F096E8862F70E060E02AF077
:103DC0009A95660F771F881FDAF7880F9695879563
:103DD00097F90895DF93CF931F930F938B01EC0115
:103DE000E9EAF0E00E94371F0E94801F9801AE01AF
:103DF0008B01EC0160E070E080E89FE30E940D1D04
:103E00000E943A209801AE010F911F91CF91DF914E
:103E10000C94DA1F990F0008550FAA0BE0E8FEEF8B
:103E200016161706E807F907C0F012161306E4077E
:103E3000F50798F0621B730B840B950B39F40A2677
:103E400061F0232B242B252B21F408950A2609F455
:103E5000A140A6958FEF811D811D089597F99F6759
:103E600080E870E060E008959FEF80EC0895DF93B4
:103E7000CF931F930F93FF92EF92DF927B018C0100
:103E8000689406C0DA2EEF010E94DA1FFE01E89462
:103E9000A5912591359145915591A6F3EF010E9489
:103EA000251DFE019701A801DA9469F7DF90EF90D4
:103EB000FF900F911F91CF91DF9108959F938F9362
:103EC0007F936F93FF93EF939B01AC010E94C71FF9
:103ED000EF91FF910E94371F2F913F914F915F917A
:103EE0000C94C71F00240A94161617061806090614
:103EF000089500240A941216130614060506089560
:103F0000092E0394000C11F4882352F0BB0F40F4E7
:103F1000BF2B11F460FF04C06F5F7F4F8F4F9F4F27
:103F2000089557FD9058440F551F59F05F3F71F0A9
:103F30004795880F97FB991F61F09F3F79F0879510
:103F40000895121613061406551FF2CF4695F1DF99
:103F500008C0161617061806991FF1CF8695710529
:103F6000610508940895E894BB2766277727CB015D
:103F700097F908950E940A1F08F48FEF08959B0196
:103F8000AC0160E070E080E89FE30C940C1E0E949E
:103F9000DA1F0C94801F0E94721F38F00E94791F54
:103FA00020F0952311F00C942E1F0C94341F112433
:103FB0000C94B41F0E94911F70F3959FC1F3950F4D
:103FC00050E0551F629FF001729FBB27F00DB11D9D
:103FD000639FAA27F00DB11DAA1F649F6627B00D2D
:103FE000A11D661F829F2227B00DA11D621F739F16
:103FF000B00DA11D621F839FA00D611D221F749F24
:104000003327A00D611D231F849F600D211D822F6A
:10401000762F6A2F11249F5750409AF0F1F0882391
:104020004AF0EE0FFF1FBB1F661F771F881F9150BE
:104030005040A9F79E3F510580F00C942E1F0C9420
:10404000B41F5F3FE4F3983ED4F386957795679568
:10405000B795F795E7959F5FC1F7FE2B880F911DE8
:104060009695879597F9089519F416F40C94341FD2
:104070000C9483200E94991FB8F39923C9F3B6F3D7
:104080009F57550B87FF0E9491200024A0E640EA2D
:10409000900180585695979528F4805C660F771F9D
:1040A000881F20F026173707480730F4621B730B70
:1040B000840B202931294A2BA69517940794202593
:1040C00031254A2758F7660F771F881F20F02617DB
:1040D0003707480730F4620B730B840B200D311D3A
:1040E000411DA09581F7B901842F9158880F9695AD
:1040F000879508959B01AC010C94C71F0E940A1F6D
:10410000880B990B08959F3F31F0915020F48795CB
:1041100077956795B795880F911D9695879597F92F
:10412000089591505040660F771F881FD2F7089569
:10413000CF93DF938230910510F482E090E0E0911C
:104140004C03F0914D0320E030E0C0E0D0E0309728
:1041500011F14081518148175907C0F0481759079C
:1041600061F482819381209719F09B838A832BC00D
:1041700090934D0380934C0326C02115310519F00F
:104180004217530718F49A01BE01DF01EF010280C4
:10419000F381E02DDCCF2115310509F1281B390B06
:1041A0002430310590F412968D919C9113976115EE
:1041B000710521F0FB019383828304C090934D032A
:1041C00080934C03FD01329644C0FD01E20FF31FC2
:1041D00081939193225031092D933C933AC02091C1
:1041E0004A0330914B03232B41F420910601309177
:1041F000070130934B0320934A032091040130912F
:1042000005012115310541F42DB73EB74091080154
:1042100050910901241B350BE0914A03F0914B03A7
:10422000E217F307A0F42E1B3F0B2817390778F08D
:10423000AC014E5F5F4F2417350748F04E0F5F1FEC
:1042400050934B0340934A038193919302C0E0E063
:10425000F0E0CF01DF91CF9108950F931F93CF939B
:10426000DF93009709F48CC0FC013297138212820D
:1042700000914C0310914D030115110581F420812B
:104280003181820F931F20914A0330914B032817ED
:10429000390779F5F0934B03E0934A0371C0D801D5
:1042A00040E050E0AE17BF0750F412962D913C91BC
:1042B0001397AD012115310509F1D901F3CF9D0106
:1042C000DA013383228360817181860F971F821701
:1042D000930769F4EC0128813981260F371F2E5F7F
:1042E0003F4F318320838A819B8193838283452B37
:1042F00029F4F0934D03E0934C0342C01396FC93D2
:10430000EE931297ED01499159919E01240F351FAB
:10431000E217F30771F480819181840F951F029653
:1043200011969C938E938281938113969C938E9386
:104330001297E0E0F0E0D80112968D919C911397CE
:10434000009719F0F8018C01F6CF8D919C9198019E
:104350002E5F3F4F820F931F20914A0330914B03F2
:104360002817390769F4309729F410924D031092F9
:104370004C0302C01382128210934B0300934A0332
:10438000DF91CF911F910F910895A0E0B0E0EBEC89
:10439000F1E20C94AE22EC01009721F4CB010E94D3
:1043A0009820B8C0FC01E60FF71F9C01225031098C
:1043B000E217F30708F4ACC0D9010D911C911197D5
:1043C00006171707B0F00530110508F49FC0C801A3
:1043D00004978617970708F499C002501109061B25
:1043E000170B019311936D937C93CF010E942D21A4
:1043F0008DC05B01A01AB10A4C01800E911EA091E4
:104400004C03B0914D0340E050E0E12CF12C1097AB
:1044100009F44AC0A815B905D1F56D907C901197A3
:10442000630182E0C80ED11CCA14DB0480F1A30131
:104430004A195B096A0182E0C80ED11C1296BC9031
:1044400012971396AC91B5E0CB16D10440F0B2822E
:10445000A38351834083D9016D937C930AC00E5F7F
:104460001F4FC301800F911FF90191838083EB2DB2
:10447000FA2FE114F10431F0D7011396FC93EE9377
:10448000129744C0F0934D03E0934C033FC08D91CD
:104490009C9111974817590708F4AC017D011296B9
:1044A0000D90BC91A02DB3CF80914A0390914B0306
:1044B00088159905E1F446175707C8F4809104015F
:1044C00090910501009741F48DB79EB74091080186
:1044D00050910901841B950BE817F907C8F4F09374
:1044E0004B03E0934A03F901718360830FC0CB0152
:1044F0000E9498207C01009759F0A801BE010E94FB
:10450000A122CE010E942D21C70104C0CE0102C00C
:1045100080E090E0CDB7DEB7EEE00C94CA2281E0F7
:1045200090E0F8940C94E122FB01DC0104C08D9131
:104530000190801921F441505040C8F7881B990B15
:104540000895FB01DC0102C001900D9241505040E2
:10455000D8F708952F923F924F925F926F927F9279
:104560008F929F92AF92BF92CF92DF92EF92FF9283
:104570000F931F93CF93DF93CDB7DEB7CA1BDB0B2F
:104580000FB6F894DEBF0FBECDBF09942A883988D4
:1045900048885F846E847D848C849B84AA84B984DB
:1045A000C884DF80EE80FD800C811B81AA81B981E7
:1045B000CE0FD11D0FB6F894DEBF0FBECDBFED01FB
:0645C0000895F894FFCFFE
:1045C6000B0B0B0B00004E038000E80300000000FD
:1045D600730AB9133C0A1A0A2E0ABA0A0000000026
:1045E6009A0B6A0B0C0B560B470B460B64657669E8
:1045F60063654964200065756C657209000D0A00E3
:0E4606006E616E00696E66006F7666002E00B3
:107E0000112484B714BE81FFF0D085E080938100F7
:107E100082E08093C00088E18093C10086E0809377
:107E2000C20080E18093C4008EE0C9D0259A86E02C
:107E300020E33CEF91E0309385002093840096BBD3
:107E4000B09BFECF1D9AA8958150A9F7CC24DD24C4
:107E500088248394B5E0AB2EA1E19A2EF3E0BF2EE7
:107E6000A2D0813461F49FD0082FAFD0023811F036
:107E7000013811F484E001C083E08DD089C08234E0
:107E800011F484E103C0853419F485E0A6D080C0E4
:107E9000853579F488D0E82EFF2485D0082F10E0AE
:107EA000102F00270E291F29000F111F8ED06801E7
:107EB0006FC0863521F484E090D080E0DECF843638
:107EC00009F040C070D06FD0082F6DD080E0C81688
:107ED00080E7D80618F4F601B7BEE895C0E0D1E017
:107EE00062D089930C17E1F7F0E0CF16F0E7DF06D8
:107EF00018F0F601B7BEE89568D007B600FCFDCFD4
:107F0000A601A0E0B1E02C9130E011968C91119780
:107F100090E0982F8827822B932B1296FA010C0160
:107F200087BEE89511244E5F5F4FF1E0A038BF0790
:107F300051F7F601A7BEE89507B600FCFDCF97BE46
:107F4000E89526C08437B1F42ED02DD0F82E2BD052
:107F50003CD0F601EF2C8F010F5F1F4F84911BD097
:107F6000EA94F801C1F70894C11CD11CFA94CF0C13
:107F7000D11C0EC0853739F428D08EE10CD085E9AC
:107F80000AD08FE07ACF813511F488E018D01DD067
:107F900080E101D065CF982F8091C00085FFFCCF94
:107FA0009093C60008958091C00087FFFCCF809118
:107FB000C00084FD01C0A8958091C6000895E0E648
:107FC000F0E098E1908380830895EDDF803219F02E
:107FD00088E0F5DFFFCF84E1DECF1F93182FE3DFCA
:107FE0001150E9F7F2DF1F91089580E0E8DFEE27F6
:047FF000FF270994CA
:027FFE00040479
:0400000300007E007B
:00000001FF