:100000000C9458000C9480000C9480000C94800098
:100010000C9480000C9480000C9480000C94800060
:100020000C9480000C9480000C9480000C94800050
:100030000C9480000C9480000C9480000C94800040
:100040000C9402040C9480000C94D0030C94AA032A
:100050000C9480000C9480000C9480000C94800020
:100060000C944C040C948000000000002500280033
:100070002B00040404040404040402020202020229
:10008000030303030303010204081020408001025C
:1000900004081020010204081020000000080002DB
:1000A00001000003040700000000000000007A05C2
:1000B00011241FBECFEFD8E0DEBFCDBF11E0A0E01E
:1000C000B1E0E8EFFDE002C005900D92A032B1076B
:1000D000D9F722E0A0E2B1E001C01D92A638B20734
:1000E000E1F710E0C8E5D0E004C02197FE010E94CE
:1000F000EF06C735D107C9F70E94B3050C94FA067D
:100100000C940000382F2091DC019091DB0121320A
:1001100008F049C08091B8018111FCCF42E04093C2
:10012000B8013093B7013FEF3093B6011092B5019B
:100130002093B401ABEBB1E044E951E0FA013E2F6A
:10014000341B321718F43D913193F9CF109293017B
:1001500020919301990F922B90939301909192018A
:10016000913061F410929201909193019093BB00B1
:100170009091BC0093FDF8CF95EC01C095EE909363
:10018000BC009091B8019230E1F39091B6019F3F8D
:1001900079F08091B601803241F08091B6018033D0
:1001A00031F084E005C081E003C082E001C083E05B
:1001B0001092BA011092DC011092B901089590E0FA
:1001C000FC01E656FF4F2491FC01EA57FF4F3491A2
:1001D000FC01EE58FF4FE491EE23B1F1222339F1F7
:1001E000233091F038F42130A9F0223001F584B5A4
:1001F0008F7D12C0273091F02830A1F02430B9F45F
:10020000809180008F7D03C0809180008F778093E4
:1002100080000DC084B58F7784BD09C08091B00087
:100220008F7703C08091B0008F7D8093B000F0E0A5
:10023000EE0FFF1FE859FF4FA591B4918FB7F894C7
:10024000EC913E2B3C938FBF0895CF92DF92EF92BB
:10025000FF920F931F93CF93DF936C017A018B0171
:10026000C0E0D0E0CE15DF0589F0D8016D918D0199
:10027000D601ED91FC910190F081E02DC601099528
:10028000892B11F47E0102C02196ECCFC701DF91CA
:10029000CF911F910F91FF90EF90DF90CF90089535
:1002A000FC01918D828D981761F0828DDF01A80F7E
:1002B000B11D5D968C91928D9F5F9F73928F90E0A0
:1002C00008958FEF9FEF0895FC01918D828D98170F
:1002D00031F0828DE80FF11D858D90E008958FEF4C
:1002E0009FEF0895FC01918D228D892F90E0805C15
:1002F0009F4F821B91098F73992708958DED91E08F
:100300000E94720121E0892B09F420E0822F0895D8
:10031000FC01848DDF01A80FB11DA35ABF4F2C91A2
:10032000848D90E001968F739927848FA689B78971
:100330002C93A089B1898C9180648C93938D848D4A
:10034000981306C00288F389E02D80818F7D808319
:100350000895EF92FF920F931F93CF93DF93EC01D9
:1003600081E0888F9B8D8C8D981305C0E889F98971
:10037000808185FD24C0F62E0B8D10E00F5F1F4F8E
:100380000F731127E02E8C8DE8120CC00FB607FCFE
:10039000FACFE889F989808185FFF5CFCE010E94E7
:1003A0008801F1CF8B8DFE01E80FF11DE35AFF4F5D
:1003B000F0820B8FEA89FB898081806207C0EE8919
:1003C000FF896083E889F98980818064808381E086
:1003D00090E0DF91CF911F910F91FF90EF900895E2
:1003E000682F8DED91E00C94A901CF93DF93EC0180
:1003F000888D8823C9F0EA89FB89808185FD05C045
:10040000A889B9898C9186FD0FC00FB607FCF5CF7E
:10041000808185FFF2CFA889B9898C9185FFEDCFC6
:10042000CE010E948801E7CFDF91CF91089580E04F
:1004300090E0892B29F00E947E0181110C9400002C
:1004400008953FB7F89480916C0190916D01A0914F
:100450006E01B0916F0126B5A89B05C02F3F19F022
:100460000196A11DB11D3FBFBA2FA92F982F882734
:10047000820F911DA11DB11DBC01CD0142E0660F8F
:10048000771F881F991F4A95D1F7089585ED8093AE
:10049000BC008091BC0084FDFCCF1092B80108958F
:1004A00040914201262F30E0240F311D21323105C9
:1004B000DCF42091B8012430C9F4FC0180E090E024
:1004C000861758F4309142012191DC01A05EBE4FA5
:1004D000A30FB11D2C930196F3CF80914201680FB9
:1004E0006093420180E0089581E0089582E00895DC
:1004F0000895E091710180917001E81730F4F0E007
:10050000EE58FE4F808190E008958FEF9FEF0895A1
:100510009091710180917001981750F4E92FF0E0EB
:10052000EE58FE4F208130E09F5F9093710102C032
:100530002FEF3FEFC90108958091700190E0209165
:100540007101821B91090895CF92DF92EF92FF9281
:100550000F931F93CF93DF937C01262F972F8A0150
:100560008091B901882391F0C62FD72F6E01C40E58
:10057000D51ECC15DD0571F06991D701ED91FC9187
:100580000190F081E02DC7010995F3CF642F822FF0
:100590000E945002C801DF91CF911F910F91FF90EF
:1005A000EF90DF90CF900895CF93DF931F92CDB758
:1005B000DEB769832091B9012223D1F02091DC01BB
:1005C000203240F021E030E0FC013383228380E0E0
:1005D00090E015C08091BA01E82FF0E0E554FE4F9D
:1005E000998190838F5F8093BA018093DC0105C06D
:1005F00061E0CE0101960E94500281E090E00F90F0
:10060000DF91CF910895CF93C62F91E09093B901D8
:1006100098E69093DB011092BA011092DC01682FEA
:100620008AE792E00E94D4026C2F8AE792E00E944F
:10063000D40281E0CF910C9482009091B801911185
:10064000FCCF813208F080E291E09093B801909362
:10065000B7012FEF2093B6011092B501280F209318
:10066000B4019093930190919301906D90939301B5
:1006700090919201913061F41092920190919301C6
:100680009093BB009091BC0093FDF8CF95EC01C016
:1006900095EE9093BC009091B8019130E1F3909168
:1006A000B501981710F48091B501A4E9B1E022E7F3
:1006B00031E0F9019E2F921B981718F49D919193A8
:1006C000F9CF10927101809370010895CF9391E05A
:1006D0009093B90198E69093DB011092BA011092C1
:1006E000DC01682F8AE792E00E94D40281E00E9438
:1006F000820082E090E00E941D038AE792E00E945F
:100700008802C82F8AE792E00E94880220E030E049
:100710003C2F822B932BCF91089591E09093B901B8
:1007200098E69093DB011092BA011092DC01682FD9
:100730008AE792E00E94D40281E00E94820081E078
:1007400090E00E941D038AE792E00E9488020895CB
:100750000E94F5061F920F920FB60F9211242F934D
:100760003F934F935F936F937F938F939F93AF9339
:10077000BF93EF93FF938DED91E00E948801FF916D
:10078000EF91BF91AF919F918F917F916F915F9109
:100790004F913F912F910F900FBE0F901F90189582
:1007A0001F920F920FB60F9211242F938F939F9346
:1007B000EF93FF93E091ED01F091EE018081E091E4
:1007C000F301F091F40182FD12C090818091F60155
:1007D0008F5F8F732091F701821751F0E091F6013E
:1007E000F0E0E352FE4F958F8093F60101C08081C7
:1007F000FF91EF919F918F912F910F900FBE0F90CE
:100800001F9018951F920F920FB60F9211242F93DD
:100810003F938F939F93AF93BF9380916801909183
:100820006901A0916A01B0916B013091670123E0E9
:10083000230F2D3720F40196A11DB11D05C026E818
:10084000230F0296A11DB11D2093670180936801BB
:1008500090936901A0936A01B0936B0180916C0140
:1008600090916D01A0916E01B0916F010196A11D53
:10087000B11D80936C0190936D01A0936E01B093B4
:100880006F01BF91AF919F918F913F912F910F90E9
:100890000FBE0F901F9018951F920F920FB60F92D8
:1008A00011242F933F934F935F936F937F938F9375
:1008B0009F93AF93BF93EF93FF938091B900887F8D
:1008C000803609F49CC068F5883209F45BC090F466
:1008D000803109F454C038F4882309F4F6C0883014
:1008E00009F44DC0F6C0883109F44CC0803209F4D7
:1008F0005DC0EFC0803409F468C048F4803309F467
:1009000055C0883309F0E5C08093B601D8C0803562
:1009100009F44FC0883509F45DC0883409F0D9C0A6
:10092000D6C0883909F4C7C0A8F4883709F467C06D
:1009300038F4883609F463C0803709F460C0C9C050
:10094000883809F4B8C0803909F45FC0803809F0EC
:10095000C0C05BC0803B09F486C038F4803A09F41B
:1009600066C0883A09F47FC0B4C0803C09F4A7C0CF
:10097000883C09F4A4C0883B09F48AC0AAC08091CD
:10098000930110C09091B5018091B401981770F552
:10099000E091B50181E08E0F8093B501F0E0EC5657
:1009A000FE4F80818093BB0085EC86C08093B601AA
:1009B0008EC0E091B50181E08E0F8093B5018091EA
:1009C000BB00F0E0EC56FE4F80839091B501809122
:1009D000B4016EC0E091B50181E08E0F8093B50146
:1009E0008091BB00F0E0EC56FE4F80838091B70110
:1009F00081116DC081E08093920184EA61C083E03F
:100A00008093B80110926601CFCF80916601803249
:100A100008F051C0E091660181E08E0F809366017D
:100A20008091BB00F0E0EA5BFE4F8083BDCF85EC98
:100A30008093BC001092B80180916601803230F43E
:100A4000E0916601F0E0EA5BFE4F10826091660182
:100A500070E0E0914401F091450186E491E0099550
:100A60001092660136C084E08093B8011092430171
:100A700010924201E0914001F0914101099580916D
:100A80004201811105C081E0809342011092200152
:100A9000E091430181E08E0F80934301F0E0E05E3E
:100AA000FE4F80818093BB00909143018091420171
:100AB000981708F479CF85E88093BC000AC085ECCC
:100AC0008093BC001092B80104C01092B6010E943D
:100AD0004602FF91EF91BF91AF919F918F917F91CE
:100AE0006F915F914F913F912F910F900FBE0F909B
:100AF0001F901895EDEDF1E01382128288EE93E0DD
:100B0000A0E0B0E084839583A683B78324E031E03E
:100B10003183208325EC30E03587248724EC30E0D6
:100B20003787268720EC30E0318B208B21EC30E0BA
:100B3000338B228B22EC30E0358B248B26EC30E09B
:100B4000378B268B118E128E138E148EEAE7F2E00D
:100B50001382128284839583A683B78384E191E014
:100B6000918380830895789484B5826084BD84B530
:100B7000816084BD85B5826085BD85B5816085BD98
:100B800080916E00816080936E0010928100809150
:100B900081008260809381008091810081608093D8
:100BA0008100809180008160809380008091B100FD
:100BB00084608093B1008091B00081608093B00028
:100BC00080917A00846080937A0080917A008260BC
:100BD00080937A0080917A00816080937A0080917E
:100BE0007A00806880937A001092C100E091ED0154
:100BF000F091EE0182E08083E091E901F091EA0159
:100C00001082E091EB01F091EC0187E0808310927B
:100C1000F501E091F101F091F20186E08083E0912D
:100C2000EF01F091F001808180618083E091EF011C
:100C3000F091F001808188608083E091EF01F09174
:100C4000F001808180688083E091EF01F091F001F4
:100C500080818F7D808310927101109270011092BB
:100C6000BA011092DC011092B80181E08093B701C3
:100C70001092920182E10E94DF0083E10E94DF0076
:100C80008091B9008E7F8093B9008091B9008D7FEB
:100C90008093B90088E48093B80085E48093BC0019
:100CA0008BE60E948D03682F60688BE60E94030329
:100CB0000E9421024B015C0184E6C82ED12CE12C5C
:100CC000F12C0E942102DC01CB0188199909AA09A3
:100CD000BB09883E9340A105B10558F021E0C21A36
:100CE000D108E108F10888EE880E83E0981EA11C67
:100CF000B11CC114D104E104F10419F768E08CE1DE
:100D00000E94030387E70E9466038AE70E94660346
:100D10008DE70E9466038AE10E948D03887F682F19
:100D200061608AE10E94030369E089E10E94030394
:100D30008DED91E00E947201892B09F44DC08DED7B
:100D400091E00E94500199278534910521F080356A
:100D50009105A1F03DC068E783E20E9403038AE6A3
:100D60000E948D03682F60648AE60E94030385E475
:100D700090E030C00C97DCF4CD2B71F582E70E9437
:100D80006603C0E0D0E089319105A4F30CE010E0E7
:100D900084E70E948D0301501109D1F72C9683E757
:100DA00090E00E94F00182E70E946603ECCF80E5AC
:100DB00090E00E94F001CCE0D0E084E70E948D0337
:100DC000682F8DED91E00E94A9012197B1F704C031
:100DD0008FE390E00E94F0010E941702A9CFEE0F6E
:100DE000FF1F0590F491E02D099481E090E0F894C4
:080DF0000C94FA06F894FFCF01
:100DF80000000000A9012501720150016401F501FC
:100E080000000000D402A4029C0288027902780241
:107E0000112484B714BE81FFF0D085E080938100F7
:107E100082E08093C00088E18093C10086E0809377
:107E2000C20080E18093C4008EE0C9D0259A86E02C
:107E300020E33CEF91E0309385002093840096BBD3
:107E4000B09BFECF1D9AA8958150A9F7CC24DD24C4
:107E500088248394B5E0AB2EA1E19A2EF3E0BF2EE7
:107E6000A2D0813461F49FD0082FAFD0023811F036
:107E7000013811F484E001C083E08DD089C08234E0
:107E800011F484E103C0853419F485E0A6D080C0E4
:107E9000853579F488D0E82EFF2485D0082F10E0AE
:107EA000102F00270E291F29000F111F8ED06801E7
:107EB0006FC0863521F484E090D080E0DECF843638
:107EC00009F040C070D06FD0082F6DD080E0C81688
:107ED00080E7D80618F4F601B7BEE895C0E0D1E017
:107EE00062D089930C17E1F7F0E0CF16F0E7DF06D8
:107EF00018F0F601B7BEE89568D007B600FCFDCFD4
:107F0000A601A0E0B1E02C9130E011968C91119780
:107F100090E0982F8827822B932B1296FA010C0160
:107F200087BEE89511244E5F5F4FF1E0A038BF0790
:107F300051F7F601A7BEE89507B600FCFDCF97BE46
:107F4000E89526C08437B1F42ED02DD0F82E2BD052
:107F50003CD0F601EF2C8F010F5F1F4F84911BD097
:107F6000EA94F801C1F70894C11CD11CFA94CF0C13
:107F7000D11C0EC0853739F428D08EE10CD085E9AC
:107F80000AD08FE07ACF813511F488E018D01DD067
:107F900080E101D065CF982F8091C00085FFFCCF94
:107FA0009093C60008958091C00087FFFCCF809118
:107FB000C00084FD01C0A8958091C6000895E0E648
:107FC000F0E098E1908380830895EDDF803219F02E
:107FD00088E0F5DFFFCF84E1DECF1F93182FE3DFCA
:107FE0001150E9F7F2DF1F91089580E0E8DFEE27F6
:047FF000FF270994CA
:027FFE00040479
:0400000300007E007B
:00000001FF