:100000000C945D000C9485000C9485000C94850084
:100010000C9485000C9485000C9485000C9485004C
:100020000C9485000C9485000C9485000C9485003C
:100030000C9485000C9485000C9485000C9485002C
:100040000C9486030C9485000C9454030C942E039A
:100050000C9485000C9485000C9485000C9485000C
:100060000C9485000C9485000000000025002800F9
:100070002B0000000008000201000003040700003C
:1000800000000000000000000000240027002A00FB
:10009000010204081020408001020408102001021F
:1000A00004081020040404040404040402020202EC
:1000B0000202030303030303D00311241FBECFEF87
:1000C000D8E0DEBFCDBF11E0A0E0B1E0E8E8FDE0A0
:1000D00002C005900D92AC3DB107D9F723E0ACED1D
:1000E000B1E001C01D92A130B207E1F710E0CDE50B
:1000F000D0E004C02197FE010E948C06CC35D107C8
:10010000C9F70E9414040C94C2060C940000EAE1A2
:10011000F2E0A089B18982E08C93A485B5851C9218
:10012000A685B78587E08C93108EA489B58986E073
:100130008C93A289B3898C9180618C93A289B389B5
:100140008C9188608C93A289B3898C9180688C9300
:100150000288F389E02D80818F7D80830895CF927E
:10016000DF92EF92FF920F931F93CF93DF936C0177
:100170007A018B01C0E0D0E0CE15DF0589F0D8010F
:100180006D918D01D601ED91FC910190F081E02DF2
:10019000C6010995892B11F47E0102C02196ECCF8E
:1001A000C701DF91CF911F910F91FF90EF90DF90EA
:1001B000CF900895FC01918D828D981761F0828D0A
:1001C000DF01A80FB11D5D968C91928D9F5F9F738B
:1001D000928F90E008958FEF9FEF0895FC01918D2D
:1001E000828D981731F0828DE80FF11D858D90E09A
:1001F00008958FEF9FEF0895FC01918D228D892F37
:1002000090E0805C9F4F821B91098F73992708951E
:100210008AE192E00E94FC0021E0892B09F420E0B1
:10022000822F0895FC01848DDF01A80FB11DA35A10
:10023000BF4F2C91848D90E001968F739927848F06
:10024000A689B7892C93A089B1898C9180648C93FD
:10025000938D848D981306C00288F389E02D8081E8
:100260008F7D80830895EF92FF920F931F93CF931A
:10027000DF93EC0181E0888F9B8D8C8D981305C0F6
:10028000E889F989808185FD24C0F62E0B8D10E068
:100290000F5F1F4F0F731127E02E8C8DE8120CC0DB
:1002A0000FB607FCFACFE889F989808185FFF5CF81
:1002B000CE010E941201F1CF8B8DFE01E80FF11DDE
:1002C000E35AFF4FF0820B8FEA89FB8980818062BD
:1002D00007C0EE89FF896083E889F989808180649D
:1002E000808381E090E0DF91CF911F910F91FF908B
:1002F000EF900895CF93DF93EC01888D8823C9F0A8
:10030000EA89FB89808185FD05C0A889B9898C911E
:1003100086FD0FC00FB607FCF5CF808185FFF2CFB9
:10032000A889B9898C9185FFEDCFCE010E94120179
:10033000E7CFDF91CF91089580E090E0892B29F0FD
:100340000E94080181110C940000089590E0FC01C6
:10035000EE58FF4F3491FC01E057FF4F2491FC0110
:10036000EC55FF4FE491EE2309F43BC0332339F100
:10037000333091F038F43130A9F0323001F584B5E2
:100380008F7D12C0373091F03830A1F03430B9F49D
:10039000809180008F7D03C0809180008F77809353
:1003A00080000DC084B58F7784BD09C08091B000F6
:1003B0008F7703C08091B0008F7D8093B000F0E014
:1003C000EE0FFF1FE859FF4FA591B4918FB7F89436
:1003D000EC91611103C020952E2301C02E2B2C938C
:1003E0008FBF0895CF93DF93EC0160E08AE00E9415
:1003F000A6018BE891E00197F1F72097E1F0809159
:1004000006028EBDA6E0B2E0E7E0F2E0CE018A5F30
:100410009D4FE817F90741F031910DB407FEFDCF6C
:100420002EB53EBD2D93F5CFCB5FDD4F0DB407FE4E
:10043000FDCF8EB588838BE891E00197F1F761E0FD
:100440008AE0DF91CF910C94A601CF93DF9390E0E7
:10045000FC01E057FF4F2491FC01EC55FF4F8491C4
:10046000882361F190E0880F991FFC01EA57FF4F44
:10047000C591D491FC01E859FF4FA591B491611148
:1004800009C09FB7F8948881209582238883EC91D6
:100490002E230BC0623061F49FB7F8943881822F0D
:1004A000809583238883EC912E2B2C939FBF06C0CD
:1004B0008FB7F894E8812E2B28838FBFDF91CF91DF
:1004C00008953FB7F8948091E1019091E201A091E5
:1004D000E301B091E40126B5A89B05C02F3F19F0B8
:1004E0000196A11DB11D3FBFBA2FA92F982F8827B4
:1004F000820F911DA11DB11DBC01CD0142E0660F0F
:10050000771F881F991F4A95D1F708958F929F9260
:10051000AF92BF92CF92DF92EF92FF926B017C017C
:100520000E9461024B015C01C114D104E104F10499
:10053000F1F00E946102DC01CB0188199909AA0936
:10054000BB09883E9340A105B10570F321E0C21AB2
:10055000D108E108F10888EE880E83E0981EA11CFE
:10056000B11CC114D104E104F10419F7DDCFFF90EF
:10057000EF90DF90CF90BF90AF909F908F900895B5
:100580002FB7F8946091DD017091DE018091DF0159
:100590009091E0012FBF08950E94920661157105A8
:1005A00079F0FB0101900020E9F73197AF01461B7C
:1005B000570BDC01ED91FC910280F381E02D099451
:1005C00080E090E008954F925F926F927F92EF9259
:1005D000FF920F931F93CF93DF93CDB7DEB7A19711
:1005E0000FB6F894DEBF0FBECDBF7C01FA01CB0180
:1005F00019A2223008F42AE08E010F5D1F4F422E0F
:10060000512C612C712CBF01A30192010E94A00604
:10061000F901CA01015011096A3014F4605D01C08A
:10062000695CD8016C93232B242B252B61F7B8012F
:10063000C7010E94CE02A1960FB6F894DEBF0FBE8E
:10064000CDBFDF91CF911F910F91FF90EF907F90E1
:100650006F905F904F9008950C94CE021F920F926E
:100660000FB60F9211242F933F934F935F936F9385
:100670007F938F939F93AF93BF93EF93FF938AE101
:1006800092E00E941201FF91EF91BF91AF919F9173
:100690008F917F916F915F914F913F912F910F902B
:1006A0000FBE0F901F9018951F920F920FB60F92CA
:1006B00011242F938F939F93EF93FF93E0912A023E
:1006C000F0912B028081E0913002F091310282FDA5
:1006D00012C09081809133028F5F8F73209134021A
:1006E000821751F0E0913302F0E0E65EFD4F958F06
:1006F0008093330201C08081FF91EF919F918F9190
:100700002F910F900FBE0F901F9018951F920F9270
:100710000FB60F9211242F933F938F939F93AF9314
:10072000BF938091DD019091DE01A091DF01B09136
:10073000E0013091DC0123E0230F2D3720F40196F6
:10074000A11DB11D05C026E8230F0296A11DB11DF4
:100750002093DC018093DD019093DE01A093DF0103
:10076000B093E0018091E1019091E201A091E30159
:10077000B091E4010196A11DB11D8093E101909318
:10078000E201A093E301B093E401BF91AF919F9187
:100790008F913F912F910F900FBE0F901F90189542
:1007A000EAE1F2E01382128288EE93E0A0E0B0E08A
:1007B00084839583A683B7838BE991E091838083BB
:1007C00085EC90E09587848784EC90E09787868716
:1007D00080EC90E0918B808B81EC90E0938B828B0E
:1007E00082EC90E0958B848B86EC90E0978B868BE7
:1007F000118E128E138E148EE7EBF2E016821782A2
:10080000108611861286138614861586168617861C
:10081000108A118A128A138A148A158AEFEFF2E07D
:1008200080E5808311820895789484B5826084BDC8
:1008300084B5816084BD85B5826085BD85B58160E4
:1008400085BD80916E00816080936E001092810062
:10085000809181008260809381008091810081601D
:1008600080938100809180008160809380008091DE
:10087000B10084608093B1008091B000816080936A
:10088000B00080917A00846080937A0080917A0031
:10089000826080937A0080917A00816080937A00F0
:1008A00080917A00806880937A001092C100109243
:1008B000FB021092FC021092FD021092FE021092B6
:1008C000B9021092BA021092BB021092BC0260ED03
:1008D00077E080E090E00E9486028AE192E09093C7
:1008E000FA028093F9020E9487000E94C00260937E
:1008F000B9027093BA028093BB029093BC0267EA7C
:1009000071E08091F9029091FA020E942C036AE052
:1009100070E080E090E00E94860281E08093CD024A
:100920000E948700CFB7F8948091E501811127C01C
:10093000EEEAF0E08491EAE9F0E09491E82FF0E04B
:10094000EE0FFF1FEA57FF4FA591B491EC91E923F9
:1009500021F461E08AE00E94A60161E08AE00E9441
:1009600025028CB580618CBD8CB580648CBD61E046
:100970008DE00E94250261E08BE00E9425028091BB
:10098000E5018F5F8093E501CFBF61E08AE00E94BF
:10099000250261E083E00E94250262E08CE00E9473
:1009A000250260E082E00E94250260E083E00E9470
:1009B000A60161E08AE00E94A601C9E6D1E0699142
:1009C0007991FB01E190BF01F12CA70186E092E053
:1009D0000E949706C7010E94F201F1E0C739DF07C4
:1009E00071F7E6EEF1E0119281E0E93FF807D9F7FF
:1009F00061E083E00E94A60194EF892E99249394EC
:100A0000A12CB12C0E94C002672B682B692B41F4EA
:100A10000E94C002623071058105910508F40AC187
:100A20000E94C0026093020270930302809304024A
:100A3000909305020091FE011091FF0120910002A8
:100A400030910102601771078207930740F46093A9
:100A5000FE017093FF0180930002909301020091C8
:100A6000FE011091FF0120910002309101026B0103
:100A70007C01C01AD10AE20AF30A970186010A3FF3
:100A800011052105310508F4D5C06093FE0170936E
:100A9000FF0180930002909301028092C502909220
:100AA000C602A092C702B092C8021092C902109268
:100AB000CA021092CB021092CC028091BD0290919A
:100AC000BE02A091BF02B091C0028093C102909378
:100AD000C202A093C302B093C4020E94C0026093FA
:100AE000BD027093BE028093BF029093C0020E9429
:100AF000C0026093B9027093BA028093BB029093D4
:100B0000BC020E94C0026B017C0169EB71E0809124
:100B1000F9029091FA020E942C032AE041E050E091
:100B200060E070E08091F9029091FA020E94E30285
:100B300060EC71E08091F9029091FA020E942C031E
:100B40002AE0B701A6018091F9029091FA020E9471
:100B5000E30262EC71E08091F9029091FA020E9446
:100B60002C038091BD029091BE02A091BF02B09172
:100B7000C002B701A601481B590B6A0B7B0B2AE088
:100B80008091F9029091FA020E94E30262EC71E016
:100B90008091F9029091FA020E942C034091BD02CB
:100BA0005091BE026091BF027091C0028091C1025B
:100BB0009091C202A091C302B091C402481B590B8C
:100BC0006A0B7B0B2AE08091F9029091FA020E9455
:100BD000E30264EC71E08091F9029091FA020E94C4
:100BE0002C030E94C002AB01BC012AE08091F902F3
:100BF0009091FA020E94E302C091F902D091FA02A8
:100C000066EC71E0CE010E94CE0266EB71E0CE018F
:100C10000E94CE0262E070E080E090E00E948602D6
:100C20000E94C0026093BD027093BE028093BF0217
:100C30009093C002E0906601F12CA70167E671E095
:100C400086E092E00E949706C7010E94F20180911F
:100C5000060290E09093FD018093FC016DEC71E041
:100C60008AE192E00E942C03E090FC01F090FD01EB
:100C7000C8E0D0E000E810E0C8018E219F21892B58
:100C800011F460E301C061E3E0911A02F0911B02EC
:100C90000190F081E02D8AE192E009951595079584
:100CA000219751F766EB71E08AE192E00E94CE0253
:100CB00063ED71E08AE192E00E942C03C090FA019A
:100CC000D090FB010D2C000CEE08FF08F7FE14C0BD
:100CD000E0911A02F0911B020190F081E02D6DE28B
:100CE0008AE192E0099544275527BA014C195D091C
:100CF0006E097F092AE003C02AE0B701A6018AE154
:100D000092E00E94E30266EB71E08AE192E00E94C9
:100D1000CE020E949C0176CEEE0FFF1F0590F4914B
:100D2000E02D099481E090E0F8940C94C206FB0158
:100D3000DC0102C001900D9241505040D8F7089557
:100D4000A1E21A2EAA1BBB1BFD010DC0AA1FBB1FCF
:100D5000EE1FFF1FA217B307E407F50720F0A21B41
:100D6000B30BE40BF50B661F771F881F991F1A94AE
:100D700069F760957095809590959B01AC01BD01D8
:080D8000CF010895F894FFCFA4
:100D8800022503023D010226270530010215A702AC
:100D9800207E022302022627022550022400023D5B
:100DA8000102220102210002230214B00000000007
:100DB8000000000000000000000000000000000526
:100DC8002A7EB863A905307EB863A9023D010231C5
:100DD80013022627022201022100052A7EB863A9F0
:100DE80005307EB863A902070060015A0157015413
:100DF8000151014E014B0145013F012A0127012400
:100E08000121011E011B011801150112010F010921
:100E180001060103010001000000003301AF00FCDE
:100E280000DA00EE007A01564D4450565F317C31AD
:100E38005F564D4450560D0A00564D4450455F00CC
:100E48003A323A007C005F564D4450450073746155
:0C0E5800742000697372636E7420000047
:107E0000112484B714BE81FFF0D085E080938100F7
:107E100082E08093C00088E18093C10086E0809377
:107E2000C20080E18093C4008EE0C9D0259A86E02C
:107E300020E33CEF91E0309385002093840096BBD3
:107E4000B09BFECF1D9AA8958150A9F7CC24DD24C4
:107E500088248394B5E0AB2EA1E19A2EF3E0BF2EE7
:107E6000A2D0813461F49FD0082FAFD0023811F036
:107E7000013811F484E001C083E08DD089C08234E0
:107E800011F484E103C0853419F485E0A6D080C0E4
:107E9000853579F488D0E82EFF2485D0082F10E0AE
:107EA000102F00270E291F29000F111F8ED06801E7
:107EB0006FC0863521F484E090D080E0DECF843638
:107EC00009F040C070D06FD0082F6DD080E0C81688
:107ED00080E7D80618F4F601B7BEE895C0E0D1E017
:107EE00062D089930C17E1F7F0E0CF16F0E7DF06D8
:107EF00018F0F601B7BEE89568D007B600FCFDCFD4
:107F0000A601A0E0B1E02C9130E011968C91119780
:107F100090E0982F8827822B932B1296FA010C0160
:107F200087BEE89511244E5F5F4FF1E0A038BF0790
:107F300051F7F601A7BEE89507B600FCFDCF97BE46
:107F4000E89526C08437B1F42ED02DD0F82E2BD052
:107F50003CD0F601EF2C8F010F5F1F4F84911BD097
:107F6000EA94F801C1F70894C11CD11CFA94CF0C13
:107F7000D11C0EC0853739F428D08EE10CD085E9AC
:107F80000AD08FE07ACF813511F488E018D01DD067
:107F900080E101D065CF982F8091C00085FFFCCF94
:107FA0009093C60008958091C00087FFFCCF809118
:107FB000C00084FD01C0A8958091C6000895E0E648
:107FC000F0E098E1908380830895EDDF803219F02E
:107FD00088E0F5DFFFCF84E1DECF1F93182FE3DFCA
:107FE0001150E9F7F2DF1F91089580E0E8DFEE27F6
:047FF000FF270994CA
:027FFE00040479
:0400000300007E007B
:00000001FF