:100000000C9458000C9480000C9480000C94800098
:100010000C9480000C9480000C9480000C94800060
:100020000C9480000C9480000C9480000C94800050
:100030000C9480000C9480000C9480000C94800040
:100040000C942C030C9480000C94FA020C94D402AF
:100050000C9480000C9480000C9480000C94800020
:100060000C9476030C94800000000000250028000A
:100070002B00040404040404040402020202020229
:10008000030303030303010204081020408001025C
:1000900004081020010204081020000000080002DB
:1000A0000100000304070000000000000000B10A86
:1000B00011241FBECFEFD8E0DEBFCDBF11E0A0E01E
:1000C000B1E0EEECFAE102C005900D92AA39B10759
:1000D000D9F723E0AAE9B1E001C01D92A835B20723
:1000E000E1F710E0C8E5D0E004C02197FE010E94CE
:1000F000FC0AC735D107C9F70E94AD060C94650DFF
:100100000C940000FC01918D828D981761F0828D16
:10011000DF01A80FB11D5D968C91928D9F5F9F733B
:10012000928F90E008958FEF9FEF0895FC01918DDD
:10013000828D981731F0828DE80FF11D858D90E04A
:1001400008958FEF9FEF0895FC01918D228D892FE7
:1001500090E0805C9F4F821B91098F7399270895CF
:1001600087E692E00E94A40021E0892B09F420E0B8
:10017000822F0895FC01848DDF01A80FB11DA35AC1
:10018000BF4F2C91848D90E001968F739927848FB7
:10019000A689B7892C93A089B1898C9180648C93AE
:1001A000938D848D981306C00288F389E02D808199
:1001B0008F7D80830895EF92FF920F931F93CF93CB
:1001C000DF93EC0181E0888F9B8D8C8D981305C0A7
:1001D000E889F989808185FD24C0F62E0B8D10E019
:1001E0000F5F1F4F0F731127E02E8C8DE8120CC08C
:1001F0000FB607FCFACFE889F989808185FFF5CF32
:10020000CE010E94BA00F1CF8B8DFE01E80FF11DE7
:10021000E35AFF4FF0820B8FEA89FB89808180626D
:1002200007C0EE89FF896083E889F989808180644D
:10023000808381E090E0DF91CF911F910F91FF903B
:10024000EF900895CF93DF93EC01888D8823C9F058
:10025000EA89FB89808185FD05C0A889B9898C91CF
:1002600086FD0FC00FB607FCF5CF808185FFF2CF6A
:10027000A889B9898C9185FFEDCFCE010E94BA0083
:10028000E7CFDF91CF91089580E090E0892B29F0AE
:100290000E94B00081110C94000008953FB7F894BB
:1002A0008091E6019091E701A091E801B091E90108
:1002B00026B5A89B05C02F3F19F00196A11DB11DC1
:1002C0003FBFBA2FA92F982F8827820F911DA11DFC
:1002D000B11DBC01CD0142E0660F771F881F991F39
:1002E0004A95D1F708958F929F92AF92BF92CF9285
:1002F000DF92EF92FF926B017C010E944E014B0155
:100300005C01C114D104E104F104F1F00E944E013A
:10031000DC01CB0188199909AA09BB09883E9340E1
:10032000A105B10570F321E0C21AD108E108F10876
:1003300088EE880E83E0981EA11CB11CC114D10464
:10034000E104F10419F7DDCFFF90EF90DF90CF903B
:10035000BF90AF909F908F9008952FB7F8946091C1
:10036000E2017091E3018091E4019091E5012FBFDA
:10037000089585ED8093BC008091BC0084FDFCCF86
:100380001092420208954091BC01262F30E0240FC4
:10039000311D21323105DCF4209142022430C9F4B0
:1003A000FC0180E090E0861758F43091BC01219167
:1003B000DC01A656BE4FA30FB11D2C930196F3CFBF
:1003C0008091BC01680F6093BC0180E0089581E0DA
:1003D000089582E008950895E091FB018091FA016B
:1003E000E81730F4F0E0E450FE4F808190E008958B
:1003F0008FEF9FEF08959091FB018091FA0198177C
:1004000050F4E92FF0E0E450FE4F208130E09F5F90
:100410009093FB0102C02FEF3FEFC9010895809137
:10042000FA0190E02091FB01821B91090895CF927F
:10043000DF92EF92FF920F931F93CF93DF937C0194
:10044000262F972F8A0180914302882391F0C62F8F
:10045000D72F6E01C40ED51ECC15DD0571F0699144
:10046000D701ED91FC910190F081E02DC701099534
:10047000F3CF642F822F0E94C301C801DF91CF9177
:100480001F910F91FF90EF90DF90CF900895CF9341
:10049000DF931F92CDB7DEB76983209143022223F9
:1004A000D1F020916602203240F021E030E0FC01E2
:1004B0003383228380E090E015C080914402E82FCE
:1004C000F0E0EB5BFD4F998190838F5F8093440256
:1004D0008093660205C061E0CE0101960E94C301CF
:1004E00081E090E00F90DF91CF9108950E941A0C67
:1004F000CF9391E09093430298E690936502109217
:10050000440210926602682F8CE493E00E94470236
:1005100081E00E94F70482E090E00E9454058CE4A0
:1005200093E00E94FB01C82F8CE493E00E94FB0142
:1005300020E030E03C2F822B932BCF91089591E067
:100540009093430298E690936502109244021092B1
:100550006602682F8CE493E00E94470281E00E94CB
:10056000F70481E090E00E9454058CE493E00E943F
:10057000FB010895CF93C62F91E09093430298E634
:10058000909365021092440210926602682F8CE4E8
:1005900093E00E9447026C2F8CE493E00E94470294
:1005A00081E0CF910C94F7041F920F920FB60F9237
:1005B00011242F933F934F935F936F937F938F9368
:1005C0009F93AF93BF93EF93FF9387E692E00E94D0
:1005D000BA00FF91EF91BF91AF919F918F917F9161
:1005E0006F915F914F913F912F910F900FBE0F90A0
:1005F0001F9018951F920F920FB60F9211242F93F0
:100600008F939F93EF93FF93E0917702F09178029D
:100610008081E0917D02F0917E0282FD12C0908186
:10062000809180028F5F8F7320918102821751F039
:10063000E0918002F0E0E959FD4F958F80938002B0
:1006400001C08081FF91EF919F918F912F910F9029
:100650000FBE0F901F9018951F920F920FB60F921A
:1006600011242F933F938F939F93AF93BF938091C8
:10067000E2019091E301A091E401B091E501309194
:10068000E10123E0230F2D3720F40196A11DB11DB8
:1006900005C026E8230F0296A11DB11D2093E1019C
:1006A0008093E2019093E301A093E401B093E5010C
:1006B0008091E6019091E701A091E801B091E901F4
:1006C0000196A11DB11D8093E6019093E701A093CF
:1006D000E801B093E901BF91AF919F918F913F9154
:1006E0002F910F900FBE0F901F9018951F920F9291
:1006F0000FB60F9211242F933F934F935F936F93F5
:100700007F938F939F93AF93BF93EF93FF938091CA
:10071000B900887F803609F49CC068F5883209F4F6
:100720005BC090F4803109F454C038F4882309F494
:10073000F6C0883009F44DC0F6C0883109F44CC0C9
:10074000803209F45DC0EFC0803409F468C048F419
:10075000803309F455C0883309F0E5C08093400226
:10076000D8C0803509F44FC0883509F45DC088349D
:1007700009F0D9C0D6C0883909F4C7C0A8F48837B1
:1007800009F467C038F4883609F463C0803709F487
:1007900060C0C9C0883809F4B8C0803909F45FC0A6
:1007A000803809F0C0C05BC0803B09F486C038F4D3
:1007B000803A09F466C0883A09F47FC0B4C0803C2E
:1007C00009F4A7C0883C09F4A4C0883B09F48AC096
:1007D000AAC080911D0210C090913F0280913E02FC
:1007E000981770F5E0913F0281E08E0F80933F02F1
:1007F000F0E0E25EFD4F80818093BB0085EC86C017
:10080000809340028EC0E0913F0281E08E0F809382
:100810003F028091BB00F0E0E25EFD4F808390914B
:100820003F0280913E026EC0E0913F0281E08E0F58
:1008300080933F028091BB00F0E0E25EFD4F808339
:100840008091410281116DC081E080931C0284EA95
:1008500061C083E0809342021092E001CFCF80918B
:10086000E001803208F051C0E091E00181E08E0F9C
:100870008093E0018091BB00F0E0E054FE4F808364
:10088000BDCF85EC8093BC00109242028091E001C4
:10089000803230F4E091E001F0E0E054FE4F10824D
:1008A0006091E00170E0E091BE01F091BF0180EC49
:1008B00091E009951092E00136C084E080934202F5
:1008C0001092BD011092BC01E091BA01F091BB0100
:1008D00009958091BC01811105C081E08093BC0124
:1008E00010929A01E091BD0181E08E0F8093BD01CD
:1008F000F0E0E656FE4F80818093BB009091BD01F1
:100900008091BC01981708F479CF85E88093BC00EA
:100910000AC085EC8093BC001092420204C0109281
:1009200040020E94B901FF91EF91BF91AF919F9159
:100930008F917F916F915F914F913F912F910F9088
:100940000FBE0F901F901895CF92DF92EF92FF92FB
:100950000F931F93CF93DF936C017A018B01C0E05B
:10096000D0E0CE15DF0589F0D8016D918D01D6015B
:10097000ED91FC910190F081E02DC6010995892B44
:1009800011F47E0102C02196ECCFC701DF91CF9117
:100990001F910F91FF90EF90DF90CF900895E7E6C1
:1009A000F2E0A089B18982E08C93A485B5851C9280
:1009B000A685B78587E08C93108EA489B58986E0DB
:1009C0008C93A289B3898C9180618C93A289B3891D
:1009D0008C9188608C93A289B3898C9180688C9368
:1009E0000288F389E02D80818F7D80830895382FE0
:1009F0002091660290916502213208F049C08091F1
:100A000042028111FCCF42E0409342023093410206
:100A10003FEF3093400210923F0220933E02A5E444
:100A2000B2E04EE152E0FA013E2F341B321718F4C7
:100A30003D913193F9CF10921D0220911D02990F23
:100A4000922B90931D0290911C02913061F41092B0
:100A50001C0290911D029093BB009091BC0093FDED
:100A6000F8CF95EC01C095EE9093BC0090914202B6
:100A70009230E1F3909140029F3F79F080914002E3
:100A8000803241F080914002803331F084E005C033
:100A900081E003C082E001C083E010924402109222
:100AA0006602109243020895909142029111FCCF88
:100AB000813208F080E291E09093420290934102EB
:100AC0002FEF2093400210923F02280F20933E0206
:100AD00090931D0290911D02906D90931D02909134
:100AE0001C02913061F410921C0290911D029093AF
:100AF000BB009091BC0093FDF8CF95EC01C095EE42
:100B00009093BC00909142029130E1F390913F02AA
:100B1000981710F480913F02AEE1B2E02CEF31E083
:100B2000F9019E2F921B981718F49D919193F9CF7C
:100B30001092FB018093FA01089590E0FC01E656C3
:100B4000FF4F2491FC01EA57FF4F3491FC01EE580E
:100B5000FF4FE491EE23B1F1222339F1233091F0DC
:100B600038F42130A9F0223001F584B58F7D12C010
:100B7000273091F02830A1F02430B9F48091800022
:100B80008F7D03C0809180008F77809380000DC09F
:100B900084B58F7784BD09C08091B0008F7703C082
:100BA0008091B0008F7D8093B000F0E0EE0FFF1FCA
:100BB000E859FF4FA591B4918FB7F894EC913E2B73
:100BC0003C938FBF08956115710579F0FB01019089
:100BD0000020E9F73197AF01461B570BDC01ED917F
:100BE000FC910280F381E02D099480E090E008956B
:100BF0004F925F926F927F92EF92FF920F931F93AB
:100C0000CF93DF93CDB7DEB7A1970FB6F894DEBFD1
:100C10000FBECDBF7C01FA01CB0119A2223008F42E
:100C20002AE08E010F5D1F4F422E512C612C712C3A
:100C3000BF01A30192010E94430DF901CA010150B5
:100C400011096A3014F4605D01C0695CD8016C93CD
:100C5000232B242B252B61F7B801C7010E94E30544
:100C6000A1960FB6F894DEBF0FBECDBFDF91CF9136
:100C70001F910F91FF90EF907F906F905F904F903A
:100C80000895CF92DF92EF92FF92CF93DF936B01A3
:100C90007C01E0916702F09168020190F081E02D03
:100CA0006DE287E692E00995EC0144275527BA01E9
:100CB0004C195D096E097F092AE087E692E00E94DF
:100CC000F8058C0F9D1FDF91CF91FF90EF90DF9083
:100CD000CF900895CF93DF93AC01990F660B770BFC
:100CE00077FF05C0CB01BA010E94410605C02AE08A
:100CF00087E692E00E94F805EC0161E371E087E687
:100D000092E00E94E3058C0F9D1FDF91CF91089523
:100D1000AC01990F660B770B77FF04C0CB01BA01CA
:100D20000C9441062AE087E692E00C94F8050F93B4
:100D30001F93CF93DF93EC010E94E3058C0161E3E5
:100D400071E0CE010E94E305800F911FDF91CF91EA
:100D50001F910F9108950C94E305789484B58260F7
:100D600084BD84B5816084BD85B5826085BD85B54F
:100D7000816085BD80916E00816080936E001092CD
:100D80008100809181008260809381008091810048
:100D900081608093810080918000816080938000D9
:100DA0008091B10084608093B1008091B000816037
:100DB0008093B00080917A00846080937A00809163
:100DC0007A00826080937A0080917A0081608093BB
:100DD0007A0080917A00806880937A001092C10036
:100DE000109248031092490310924A0310924B0349
:100DF0001092060310920703109208031092090341
:100E000060ED77E080E090E00E94730187E692E079
:100E100090934703809346030E94CF040E94AD0144
:100E2000609306037093070380930803909309036C
:100E300062E271E080914603909147030E94AB0605
:100E40006AE070E080E090E00E947301C1E0C0932E
:100E50001A030E94CF0464E371E087E692E00E94E7
:100E600097061092FB011092FA0110924402109220
:100E7000660210924202C093410210921C0282E16B
:100E80000E949D0583E10E949D058091B9008E7F9F
:100E90008093B9008091B9008D7F8093B90088E478
:100EA0008093B80085E48093BC0085E70E949F0290
:100EB000C82F6FE371E087E692E00E94AB068C2FAB
:100EC00090E00E946A068BE60E949F02682F60688D
:100ED0008BE60E94BA0264E670E080E090E00E9437
:100EE000730168E08CE10E94BA0287E70E947802F1
:100EF0007C018AE70E9478028C018DE70E947802CB
:100F0000EC0164E471E087E692E00E94AB06C70161
:100F10000E946A0669E471E087E692E00E94AB06EF
:100F2000C8010E946A066EE471E087E692E00E94C2
:100F3000AB06CE010E946A06C0E0D0E08C2F0E9472
:100F40009F02182F63E571E087E692E00E94AB06EE
:100F5000CE010E94880668E571E087E692E00E9473
:100F6000AB06812F90E00E946A062196CF37D1050B
:100F700029F78AE10E949F02887F682F61608AE1D9
:100F80000E94BA0269E089E10E94BA0268E783E23E
:100F90000E94BA028AE60E949F02682F60648AE675
:100FA0000E94BA020E94AD01672B682B692B41F4A5
:100FB0000E94AD01623071058105910508F40AC1F6
:100FC0000E94AD016093F6017093F7018093F801E0
:100FD0009093F9010091F2011091F3012091F40135
:100FE0003091F501601771078207930740F4609311
:100FF000F2017093F3018093F4019093F501009155
:10100000F2011091F3012091F4013091F5016B018F
:101010007C01C01AD10AE20AF30A970186010A3F4D
:1010200011052105310508F4D5C06093F2017093D4
:10103000F3018093F4019093F50114EFE12EFF2466
:10104000F39400E010E0E0921203F0921303009397
:1010500014031093150310921603109217031092A5
:1010600018031092190380910A0390910B03A09129
:101070000C03B0910D0380930E0390930F03A09384
:101080001003B09311030E94AD0160930A037093A3
:101090000B0380930C0390930D030E94AD016093AA
:1010A00006037093070380930803909309030E943B
:1010B000AD016B017C016CE571E08091460390917C
:1010C00047030E94AB062AE041E050E060E070E098
:1010D00080914603909147030E94F80563E671E012
:1010E00080914603909147030E94AB062AE0B70126
:1010F000A60180914603909147030E94F80565E69A
:1011000071E080914603909147030E94AB06809165
:101110000A0390910B03A0910C03B0910D03B7014A
:10112000A601481B590B6A0B7B0B2AE080914603F2
:10113000909147030E94F80565E671E080914603AF
:10114000909147030E94AB0640910A0350910B0314
:1011500060910C0370910D0380910E0390910F0329
:10116000A0911003B0911103481B590B6A0B7B0B24
:101170002AE080914603909147030E94F80567E6B4
:1011800071E080914603909147030E94AB060E9454
:10119000AD01AB01BC012AE0809146039091470369
:1011A0000E94F80569E671E080914603909147033B
:1011B0000E94970662E070E080E090E00E94730178
:1011C0000E94AD0160930A0370930B0380930C039C
:1011D00090930D0382E70E947802C0E0D0E089314D
:1011E00091056CF00CE010E084E70E949F02015032
:1011F0001109D1F72C9682E70E947802F0CF0C9764
:1012000034F4209709F07CC0C0E0D0E088C184E7C6
:101210000E949F02C82E84E70E949F02D82E84E776
:101220000E949F02082F84E70E949F02E82E84E715
:101230000E949F02182F84E70E949F02F82E60E709
:1012400071E087E692E00E94AB068D2D90E09C292C
:101250000E9488066AE571E087E692E00E94AB068C
:101260008E2D90E0902B0E9488066AE571E087E65B
:1012700092E00E94AB068F2D90E0912B0E94880691
:1012800063E771E087E692E00E94AB0684E70E9484
:101290009F02C82E84E70E949F02D82E84E70E94F6
:1012A0009F02082F84E70E949F02E82E84E70E9495
:1012B0009F02182F84E70E949F02F82E8D2D90E048
:1012C0009C290E9488066AE571E087E692E00E9408
:1012D000AB068E2D90E0902B0E9488066AE571E0A7
:1012E00087E692E00E94AB068F2D90E0912B0E9442
:1012F000880661E371E087E692E00E94E3052C96A0
:101300000E94AD016B017C018091EE019091EF0193
:10131000A091F001B091F101AE010D2E000C660B11
:10132000770B8A019B01080F191F2A1F3B1FC90158
:10133000B8010093EE011093EF012093F001309378
:10134000F1014090EA015090EB016090EC01709047
:10135000ED01411451046104710449F4C092EA01A1
:10136000D092EB01E092EC01F092ED01D8C00E9426
:10137000260C4B015C01C701B60164197509860989
:1013800097090E94260C20E030E04AE754E40E94CE
:101390006F0B9B01AC01C501B4010E946F0B6B0187
:1013A0007C014B015C0167E771E087E692E00E94F7
:1013B000AB06A7019601C701B6010E94150C882350
:1013C00019F06CE771E01AC026013701E89477F84C
:1013D0002FEF3FEF4FE75FE7C301B2010E94150C0B
:1013E000811111C02FEF3FEF4FE75FE7C301B2015B
:1013F0000E941F0C18163CF460E871E087E692E04A
:101400000E94E30586C02FEF3FEF4FE75FE4C7017F
:10141000B6010E94100C18161CF464E871E0EECFBF
:101420002FEF3FEF4FE75FECC701B6010E941F0CA3
:1014300087FDF3CF20E030E0A901C701B6010E948B
:101440001F0C87FF11C0E0916702F09168020190C4
:10145000F081E02D6DE287E692E0099546015701A3
:10146000B7FAB094B7F8B0942AE037ED43EA5BE3FB
:10147000C501B4010E94030B4B015C010E94E10B0A
:101480006B017C010E94240C9B01AC01C501B401DD
:101490000E94020B4B015C012AE0B701A60187E61E
:1014A00092E00E94F8056DE371E087E692E00E9409
:1014B000E30520E030E040E251E4C501B4010E94C0
:1014C000850C4B015C010E94E10B6B01E12CF12CBE
:1014D0002AE0B701A60187E692E00E94F805C7015D
:1014E000B6010E94240C9B01AC01C501B4010E940D
:1014F000020B20E030E040E251E40E94850C0E94A3
:10150000E10BAB0160E070E02AE087E692E00E9428
:10151000F80561E371E087E692E00E94E3058091BF
:10152000000190910101C817D90769F068E871E0DE
:1015300087E692E00E94AB06CE010E946A06D09335
:101540000101C09300018AE30E949F0284FF06C04C
:1015500061E971E087E692E00E9497060E944401EB
:1015600021CDE7E6F2E01382128288EE93E0A0E05C
:10157000B0E084839583A683B78326E031E031838E
:10158000208325EC30E03587248724EC30E0378752
:10159000268720EC30E0318B208B21EC30E0338B40
:1015A000228B22EC30E0358B248B26EC30E0378B1D
:1015B000268B118E128E138E148EE4E0F3E01682C9
:1015C0001782108611861286138614861586168653
:1015D0001786108A118A128A138A148A158AECE4F3
:1015E000F3E01382128284839583A683B78386E116
:1015F00091E0918380830895EE0FFF1F0590F49191
:10160000E02D09945058BB27AA270E941A0B0C946E
:10161000090D0E94FB0C38F00E94020D20F039F4F5
:101620009F3F19F426F40C94F80C0EF4E095E7FBB8
:101630000C94F20CE92F0E941A0D58F3BA176207A6
:1016400073078407950720F079F4A6F50C943C0DF8
:101650000EF4E0950B2EBA2FA02D0B01B9019001CD
:101660000C01CA01A0011124FF27591B99F0593F11
:1016700050F4503E68F11A16F040A22F232F342F59
:101680004427585FF3CF469537952795A795F040A7
:101690005395C9F77EF41F16BA0B620B730B840BBC
:1016A000BAF09150A1F0FF0FBB1F661F771F881F74
:1016B000C2F70EC0BA0F621F731F841F48F48795CC
:1016C00077956795B795F7959E3F08F0B0CF9395BE
:1016D000880F08F09927EE0F9795879508950E9437
:1016E000830B0C94090D0E94020D58F00E94FB0C14
:1016F00040F029F45F3F29F00C94F20C51110C9446
:101700003D0D0C94F80C0E941A0D68F39923B1F367
:10171000552391F3951B550BBB27AA276217730717
:10172000840738F09F5F5F4F220F331F441FAA1FAB
:10173000A9F335D00E2E3AF0E0E832D09150504067
:10174000E695001CCAF72BD0FE2F29D0660F771F15
:10175000881FBB1F261737074807AB07B0E809F0FB
:10176000BB0B802DBF01FF2793585F4F3AF09E3F80
:10177000510578F00C94F20C0C943D0D5F3FE4F3AE
:10178000983ED4F3869577956795B795F7959F5FC3
:10179000C9F7880F911D9695879597F90895E1E00F
:1017A000660F771F881FBB1F621773078407BA076E
:1017B00020F0621B730B840BBA0BEE1F88F7E095C9
:1017C00008950E94220D88F09F5798F0B92F99270D
:1017D000B751B0F0E1F0660F771F881F991F1AF01C
:1017E000BA95C9F714C0B13091F00E943C0DB1E038
:1017F00008950C943C0D672F782F8827B85F39F037
:10180000B93FCCF3869577956795B395D9F73EF4B4
:1018100090958095709561957F4F8F4F9F4F08955C
:101820000E94610C08F48FEF08950E94610C880BF0
:10183000990B089581E090E0F8940C94650D0E9456
:10184000610C08F481E00895E89409C097FB3EF428
:1018500090958095709561957F4F8F4F9F4F9923FD
:10186000A9F0F92F96E9BB279395F695879577957B
:101870006795B795F111F8CFFAF4BB0F11F460FF3B
:101880001BC06F5F7F4F8F4F9F4F16C0882311F093
:1018900096E911C0772321F09EE8872F762F05C0A7
:1018A000662371F096E8862F70E060E02AF09A9542
:1018B000660F771F881FDAF7880F9695879597F937
:1018C0000895990F0008550FAA0BE0E8FEEF1616D1
:1018D0001706E807F907C0F012161306E407F50724
:1018E00098F0621B730B840B950B39F40A2661F098
:1018F000232B242B252B21F408950A2609F4A1403B
:10190000A6958FEF811D811D08950E94980C0C945F
:10191000090D0E94FB0C38F00E94020D20F0952367
:1019200011F00C94F20C0C94F80C11240C943D0D55
:101930000E941A0D70F3959FC1F3950F50E0551F4B
:10194000629FF001729FBB27F00DB11D639FAA2714
:10195000F00DB11DAA1F649F6627B00DA11D661F63
:10196000829F2227B00DA11D621F739FB00DA11D84
:10197000621F839FA00D611D221F749F3327A00D3E
:10198000611D231F849F600D211D822F762F6A2FDA
:1019900011249F5750409AF0F1F088234AF0EE0F3F
:1019A000FF1FBB1F661F771F881F91505040A9F76C
:1019B0009E3F510580F00C94F20C0C943D0D5F3F5E
:1019C000E4F3983ED4F3869577956795B795F795A8
:1019D000E7959F5FC1F7FE2B880F911D9695879520
:1019E00097F9089597F99F6780E870E060E008959F
:1019F0009FEF80EC089500240A9416161706180627
:101A00000906089500240A94121613061406050602
:101A10000895092E0394000C11F4882352F0BB0F93
:101A200040F4BF2B11F460FF04C06F5F7F4F8F4FF6
:101A30009F4F089557FD9058440F551F59F05F3F31
:101A400071F04795880F97FB991F61F09F3F79F0E0
:101A500087950895121613061406551FF2CF469562
:101A6000F1DF08C0161617061806991FF1CF8695E4
:101A70007105610508940895E894BB2766277727C8
:101A8000CB0197F90895A1E21A2EAA1BBB1BFD01F9
:101A90000DC0AA1FBB1FEE1FFF1FA217B307E4074D
:101AA000F50720F0A21BB30BE40BF50B661F771FA5
:101AB000881F991F1A9469F7609570958095909585
:0E1AC0009B01AC01BD01CF010895F894FFCF4A
:101ACE00FFFF00000000DB00A404A40082009600CB
:101ADE00220100000000470217020F02FB01EC0179
:101AEE00EB01564D4450565F317C315F564D44509C
:101AFE00560D0A00737461727475702E2E2E007658
:101B0E00616C200061786F200061796F2000617A2E
:101B1E006F20007265672000203D2000564D445016
:101B2E00455F003A323A007C005F564D4450450006
:101B3E006120002067200062707320006E616E00CD
:101B4E00696E66006F7666006669666F636E7420F6
:0A1B5E00004F766572666C6F770029
:00000001FF
