:100000000C9458000C9480000C9480000C94800098
:100010000C9480000C9480000C9480000C94800060
:100020000C9480000C9480000C9480000C94800050
:100030000C9480000C9480000C9480000C94800040
:100040000C942C030C9480000C94FA020C94D402AF
:100050000C9480000C9480000C9480000C94800020
:100060000C9476030C94800000000000250028000A
:100070002B00040404040404040402020202020229
:10008000030303030303010204081020408001025C
:1000900004081020010204081020000000080002DB
:1000A0000100000304070000000000000000B30985
:1000B00011241FBECFEFD8E0DEBFCDBF11E0A0E01E
:1000C000B1E0EAE5F4E102C005900D92AA38B1076B
:1000D000D9F723E0AAE8B1E001C01D92A034B2072D
:1000E000E1F710E0C8E5D0E004C02197FE010E94CE
:1000F000FE09C735D107C9F70E94A3060C942B0A45
:100100000C940000FC01918D828D981761F0828D16
:10011000DF01A80FB11D5D968C91928D9F5F9F733B
:10012000928F90E008958FEF9FEF0895FC01918DDD
:10013000828D981731F0828DE80FF11D858D90E04A
:1001400008958FEF9FEF0895FC01918D228D892FE7
:1001500090E0805C9F4F821B91098F7399270895CF
:100160008FE492E00E94A40021E0892B09F420E0B2
:10017000822F0895FC01848DDF01A80FB11DA35AC1
:10018000BF4F2C91848D90E001968F739927848FB7
:10019000A689B7892C93A089B1898C9180648C93AE
:1001A000938D848D981306C00288F389E02D808199
:1001B0008F7D80830895EF92FF920F931F93CF93CB
:1001C000DF93EC0181E0888F9B8D8C8D981305C0A7
:1001D000E889F989808185FD24C0F62E0B8D10E019
:1001E0000F5F1F4F0F731127E02E8C8DE8120CC08C
:1001F0000FB607FCFACFE889F989808185FFF5CF32
:10020000CE010E94BA00F1CF8B8DFE01E80FF11DE7
:10021000E35AFF4FF0820B8FEA89FB89808180626D
:1002200007C0EE89FF896083E889F989808180644D
:10023000808381E090E0DF91CF911F910F91FF903B
:10024000EF900895CF93DF93EC01888D8823C9F058
:10025000EA89FB89808185FD05C0A889B9898C91CF
:1002600086FD0FC00FB607FCF5CF808185FFF2CF6A
:10027000A889B9898C9185FFEDCFCE010E94BA0083
:10028000E7CFDF91CF91089580E090E0892B29F0AE
:100290000E94B00081110C94000008953FB7F894BB
:1002A0008091D6019091D701A091D801B091D90148
:1002B00026B5A89B05C02F3F19F00196A11DB11DC1
:1002C0003FBFBA2FA92F982F8827820F911DA11DFC
:1002D000B11DBC01CD0142E0660F771F881F991F39
:1002E0004A95D1F708958F929F92AF92BF92CF9285
:1002F000DF92EF92FF926B017C010E944E014B0155
:100300005C01C114D104E104F104F1F00E944E013A
:10031000DC01CB0188199909AA09BB09883E9340E1
:10032000A105B10570F321E0C21AD108E108F10876
:1003300088EE880E83E0981EA11CB11CC114D10464
:10034000E104F10419F7DDCFFF90EF90DF90CF903B
:10035000BF90AF909F908F9008952FB7F8946091C1
:10036000D2017091D3018091D4019091D5012FBF1A
:10037000089585ED8093BC008091BC0084FDFCCF86
:1003800010922A0208954091AC01262F30E0240FEC
:10039000311D21323105DCF420912A022430C9F4C8
:1003A000FC0180E090E0861758F43091AC01219177
:1003B000DC01A657BE4FA30FB11D2C930196F3CFBE
:1003C0008091AC01680F6093AC0180E0089581E0FA
:1003D000089582E008950895E091E3018091E2019B
:1003E000E81730F4F0E0EC51FE4F808190E0089582
:1003F0008FEF9FEF08959091E3018091E2019817AC
:1004000050F4E92FF0E0EC51FE4F208130E09F5F87
:100410009093E30102C02FEF3FEFC901089580914F
:10042000E20190E02091E301821B91090895CF92AF
:10043000DF92EF92FF920F931F93CF93DF937C0194
:10044000262F972F8A0180912B02882391F0C62FA7
:10045000D72F6E01C40ED51ECC15DD0571F0699144
:10046000D701ED91FC910190F081E02DC701099534
:10047000F3CF642F822F0E94C301C801DF91CF9177
:100480001F910F91FF90EF90DF90CF900895CF9341
:10049000DF931F92CDB7DEB7698320912B02222311
:1004A000D1F020914E02203240F021E030E0FC01FA
:1004B0003383228380E090E015C080912C02E82FE6
:1004C000F0E0E35DFD4F998190838F5F80932C0274
:1004D00080934E0205C061E0CE0101960E94C301E7
:1004E00081E090E00F90DF91CF9108950E94040A7F
:1004F000CF9391E090932B0298E690934D02109247
:100500002C0210924E02682F84E393E00E9447026F
:1005100081E00E94F70482E090E00E94540584E3A9
:1005200093E00E94FB01C82F84E393E00E94FB014B
:1005300020E030E03C2F822B932BCF91089591E067
:1005400090932B0298E690934D0210922C021092F9
:100550004E02682F84E393E00E94470281E00E94EC
:10056000F70481E090E00E94540584E393E00E9448
:10057000FB010895CF93C62F91E090932B0298E64C
:1005800090934D0210922C0210924E02682F84E339
:1005900093E00E9447026C2F84E393E00E9447029D
:1005A00081E0CF910C94F7041F920F920FB60F9237
:1005B00011242F933F934F935F936F937F938F9368
:1005C0009F93AF93BF93EF93FF938FE492E00E94CA
:1005D000BA00FF91EF91BF91AF919F918F917F9161
:1005E0006F915F914F913F912F910F900FBE0F90A0
:1005F0001F9018951F920F920FB60F9211242F93F0
:100600008F939F93EF93FF93E0915F02F0916002CD
:100610008081E0916502F091660282FD12C09081B6
:10062000809168028F5F8F7320916902821751F069
:10063000E0916802F0E0E15BFD4F958F80936802E6
:1006400001C08081FF91EF919F918F912F910F9029
:100650000FBE0F901F9018951F920F920FB60F921A
:1006600011242F933F938F939F93AF93BF938091C8
:10067000D2019091D301A091D401B091D5013091D4
:10068000D10123E0230F2D3720F40196A11DB11DC8
:1006900005C026E8230F0296A11DB11D2093D101AC
:1006A0008093D2019093D301A093D401B093D5014C
:1006B0008091D6019091D701A091D801B091D90134
:1006C0000196A11DB11D8093D6019093D701A093EF
:1006D000D801B093D901BF91AF919F918F913F9174
:1006E0002F910F900FBE0F901F9018951F920F9291
:1006F0000FB60F9211242F933F934F935F936F93F5
:100700007F938F939F93AF93BF93EF93FF938091CA
:10071000B900887F803609F49CC068F5883209F4F6
:100720005BC090F4803109F454C038F4882309F494
:10073000F6C0883009F44DC0F6C0883109F44CC0C9
:10074000803209F45DC0EFC0803409F468C048F419
:10075000803309F455C0883309F0E5C0809328023E
:10076000D8C0803509F44FC0883509F45DC088349D
:1007700009F0D9C0D6C0883909F4C7C0A8F48837B1
:1007800009F467C038F4883609F463C0803709F487
:1007900060C0C9C0883809F4B8C0803909F45FC0A6
:1007A000803809F0C0C05BC0803B09F486C038F4D3
:1007B000803A09F466C0883A09F47FC0B4C0803C2E
:1007C00009F4A7C0883C09F4A4C0883B09F48AC096
:1007D000AAC08091050210C0909127028091260244
:1007E000981770F5E091270281E08E0F8093270221
:1007F000F0E0EA5FFD4F80818093BB0085EC86C00E
:10080000809328028EC0E091270281E08E0F8093B2
:1008100027028091BB00F0E0EA5FFD4F808390915A
:100820002702809126026EC0E091270281E08E0FA0
:10083000809327028091BB00F0E0EA5FFD4F808348
:100840008091290281116DC081E08093040284EAC5
:1008500061C083E080932A021092D001CFCF8091B3
:10086000D001803208F051C0E091D00181E08E0FBC
:100870008093D0018091BB00F0E0E055FE4F808373
:10088000BDCF85EC8093BC0010922A028091D001EC
:10089000803230F4E091D001F0E0E055FE4F10825C
:1008A0006091D00170E0E091AE01F091AF0180EB7A
:1008B00091E009951092D00136C084E080932A021D
:1008C0001092AD011092AC01E091AA01F091AB0140
:1008D00009958091AC01811105C081E08093AC0144
:1008E00010928A01E091AD0181E08E0F8093AD01FD
:1008F000F0E0E657FE4F80818093BB009091AD0100
:100900008091AC01981708F479CF85E88093BC00FA
:100910000AC085EC8093BC0010922A0204C0109299
:1009200028020E94B901FF91EF91BF91AF919F9171
:100930008F917F916F915F914F913F912F910F9088
:100940000FBE0F901F901895CF92DF92EF92FF92FB
:100950000F931F93CF93DF936C017A018B01C0E05B
:10096000D0E0CE15DF0589F0D8016D918D01D6015B
:10097000ED91FC910190F081E02DC6010995892B44
:1009800011F47E0102C02196ECCFC701DF91CF9117
:100990001F910F91FF90EF90DF90CF900895EFE4BB
:1009A000F2E0A089B18982E08C93A485B5851C9280
:1009B000A685B78587E08C93108EA489B58986E0DB
:1009C0008C93A289B3898C9180618C93A289B3891D
:1009D0008C9188608C93A289B3898C9180688C9368
:1009E0000288F389E02D80818F7D80830895382FE0
:1009F00020914E0290914D02213208F049C0809121
:100A00002A028111FCCF42E040932A02309329024E
:100A10003FEF309328021092270220932602ADE286
:100A2000B2E046E052E0FA013E2F341B321718F4D0
:100A30003D913193F9CF1092050220910502990F53
:100A4000922B9093050290910402913061F41092E0
:100A50000402909105029093BB009091BC0093FD1D
:100A6000F8CF95EC01C095EE9093BC0090912A02CE
:100A70009230E1F3909128029F3F79F08091280213
:100A8000803241F080912802803331F084E005C04B
:100A900081E003C082E001C083E010922C0210923A
:100AA0004E0210922B02089590912A029111FCCFD0
:100AB000813208F080E291E090932A02909329021B
:100AC0002FEF2093280210922702280F209326024E
:100AD0009093050290910502906D9093050290917C
:100AE0000402913061F410920402909105029093F7
:100AF000BB009091BC0093FDF8CF95EC01C095EE42
:100B00009093BC0090912A029130E1F390912702DA
:100B1000981710F480912702A6E0B2E024EE31E0AD
:100B2000F9019E2F921B981718F49D919193F9CF7C
:100B30001092E3018093E201089590E0FC01E656F3
:100B4000FF4F2491FC01EA57FF4F3491FC01EE580E
:100B5000FF4FE491EE23B1F1222339F1233091F0DC
:100B600038F42130A9F0223001F584B58F7D12C010
:100B7000273091F02830A1F02430B9F48091800022
:100B80008F7D03C0809180008F77809380000DC09F
:100B900084B58F7784BD09C08091B0008F7703C082
:100BA0008091B0008F7D8093B000F0E0EE0FFF1FCA
:100BB000E859FF4FA591B4918FB7F894EC913E2B73
:100BC0003C938FBF08956115710579F0FB01019089
:100BD0000020E9F73197AF01461B570BDC01ED917F
:100BE000FC910280F381E02D099480E090E008956B
:100BF0004F925F926F927F92EF92FF920F931F93AB
:100C0000CF93DF93CDB7DEB7A1970FB6F894DEBFD1
:100C10000FBECDBF7C01FA01CB0119A2223008F42E
:100C20002AE08E010F5D1F4F422E512C612C712C3A
:100C3000BF01A30192010E94090AF901CA010150F2
:100C400011096A3014F4605D01C0695CD8016C93CD
:100C5000232B242B252B61F7B801C7010E94E30544
:100C6000A1960FB6F894DEBF0FBECDBFDF91CF9136
:100C70001F910F91FF90EF907F906F905F904F903A
:100C80000895CF92DF92EF92FF92CF93DF93AB0163
:100C9000BC0177FF23C06A017B01E0914F02F09114
:100CA00050020190F081E02D6DE28FE492E0099511
:100CB000EC0144275527BA014C195D096E097F09DB
:100CC0002AE08FE492E00E94F8058C0F9D1FDF91CF
:100CD000CF91FF90EF90DF90CF9008952AE08FE4BE
:100CE00092E0DF91CF91FF90EF90DF90CF900C9446
:100CF000F805CF93DF93BC01990F880B990B0E94E5
:100D00004106EC0161E371E08FE492E00E94E305AB
:100D10008C0F9D1FDF91CF9108950F931F93CF9359
:100D2000DF93EC010E94E3058C0161E371E0CE01E9
:100D30000E94E305800F911FDF91CF911F910F91CA
:100D400008950C94E305789484B5826084BD84B5DD
:100D5000816084BD85B5826085BD85B5816085BDB6
:100D600080916E00816080936E001092810080916E
:100D700081008260809381008091810081608093F6
:100D80008100809180008160809380008091B1001B
:100D900084608093B1008091B00081608093B00046
:100DA00080917A00846080937A0080917A008260DA
:100DB00080937A0080917A00816080937A0080919C
:100DC0007A00806880937A001092C10010923003FC
:100DD0001092310310923203109233031092EE02FC
:100DE0001092EF021092F0021092F10260ED77E0A3
:100DF00080E090E00E9473018FE492E090932F03D3
:100E000080932E030E94CF040E94AD016093EE02F6
:100E10007093EF028093F0029093F10262E271E02E
:100E200080912E0390912F030E94A1066AE070E04A
:100E300080E090E00E947301C1E0C09302030E9431
:100E4000CF0464E371E08FE492E00E948D0610927B
:100E5000E3011092E20110922C0210924E021092C5
:100E60002A02C09329021092040282E10E949D0589
:100E700083E10E949D058091B9008E7F8093B90027
:100E80008091B9008D7F8093B90088E48093B80089
:100E900085E48093BC0085E70E949F02C82F6FE322
:100EA00071E08FE492E00E94A1068C2F90E00E94F6
:100EB00079068BE60E949F02682F60688BE60E948D
:100EC000BA0264E670E080E090E00E94730168E09E
:100ED0008CE10E94BA0287E70E9478027C018AE7CF
:100EE0000E9478028C018DE70E947802EC0164E494
:100EF00071E08FE492E00E94A106C7010E9479068A
:100F000069E471E08FE492E00E94A106C8010E94AA
:100F100079066EE471E08FE492E00E94A106CE01B2
:100F20000E947906C12CD12C76018C2D0E949F0243
:100F3000C82F63E571E08FE492E00E94A106C7012B
:100F4000B6010E94410668E571E08FE492E00E94DC
:100F5000A1068C2F90E00E9479068FEFC81AD80A5C
:100F6000E80AF80A8FE7C816D104E104F104E9F6AB
:100F70008AE10E949F02887F682F61608AE10E9457
:100F8000BA0263E689E10E94BA0268E783E20E943E
:100F9000BA028AE60E949F02682F606C8AE60E946D
:100FA000BA0284EFC82EDD24D394E12CF12C0E94E8
:100FB000AD01672B682B692B41F40E94AD016230B3
:100FC00071058105910508F404C10E94AD0160938B
:100FD000DE017093DF018093E0019093E1010091C5
:100FE000DA011091DB012091DC013091DD01601705
:100FF00071078207930740F46093DA017093DB0175
:101000008093DC019093DD010091DA011091DB0106
:101010002091DC013091DD014B015C01801A910AC5
:10102000A20AB30A950184010A3F11052105310581
:1010300008F4CFC06093DA017093DB018093DC0188
:101040009093DD01C092FA02D092FB02E092FC0282
:10105000F092FD021092FE021092FF021092000325
:10106000109201038091F2029091F302A091F40298
:10107000B091F5028093F6029093F702A093F802E4
:10108000B093F9020E94AD016093F2027093F302F3
:101090008093F4029093F5020E94AD016093EE02FA
:1010A0007093EF028093F0029093F1020E94AD01E1
:1010B0004B015C016CE571E080912E0390912F0350
:1010C0000E94A1062AE041E050E060E070E08091DB
:1010D0002E0390912F030E94F80563E671E0809142
:1010E0002E0390912F030E94A1062AE0B501A401CE
:1010F00080912E0390912F030E94F80565E671E020
:1011000080912E0390912F030E94A1068091F202FC
:101110009091F302A091F402B091F502B501A401FF
:10112000481B590B6A0B7B0B2AE080912E03909190
:101130002F030E94F80565E671E080912E039091DF
:101140002F030E94A1064091F2025091F302609198
:10115000F4027091F5028091F6029091F702A0914D
:10116000F802B091F902481B590B6A0B7B0B2AE07D
:1011700080912E0390912F030E94F80567E671E09D
:1011800080912E0390912F030E94A1060E94AD0131
:10119000AB01BC012AE080912E0390912F030E94A5
:1011A000F80569E671E080912E0390912F030E946B
:1011B0008D0662E070E080E090E00E9473010E9482
:1011C000AD016093F2027093F3028093F402909366
:1011D000F50282E70E9478028931910544F0CCE063
:1011E000D0E084E70E949F022197D9F7F2CF0C97B5
:1011F0000CF490C084E70E949F02A82E84E70E940E
:101200009F02082F84E70E949F02B82E84E70E9465
:101210009F02D82F84E70E949F02182F84E70E9424
:101220009F02C82F60E771E08FE492E00E94A10660
:10123000602F70E07A29072E000C880B990B0E9412
:1012400041066AE571E08FE492E00E94A1066D2FED
:1012500070E07B29072E000C880B990B0E94410639
:101260006AE571E08FE492E00E94A1066C2F70E0C5
:10127000712B072E000C880B990B0E94410663E727
:1012800071E08FE492E00E94A10684E70E949F0231
:10129000A82E84E70E949F02082F84E70E949F02E5
:1012A000B82E84E70E949F02D82F84E70E949F02F5
:1012B000182F84E70E949F02C82F602F70E07A29C0
:1012C000072E000C880B990B0E9441066AE571E01D
:1012D0008FE492E00E94A1066D2F70E07B29072E1B
:1012E000000C880B990B0E9441066AE571E08FE4BF
:1012F00092E00E94A1066C2F70E0712B072E000C6B
:10130000880B990B0E94410661E371E08FE492E043
:101310000E94E3058091000190910101892BA9F0C1
:1013200067E771E08FE492E00E94A10660E070E060
:10133000CB010E94410661E371E08FE492E00E94DC
:10134000E30510920101109200018AE30E949F02BE
:1013500084FF06C060E871E08FE492E00E948D0691
:101360000E94440124CEEFE4F2E01382128288EE60
:1013700093E0A0E0B0E084839583A683B78326E062
:1013800031E03183208325EC30E03587248724EC5D
:1013900030E03787268720EC30E0318B208B21EC42
:1013A00030E0338B228B22EC30E0358B248B26EC23
:1013B00030E0378B268B118E128E138E148EECEE4E
:1013C000F2E0168217821086118612861386148622
:1013D000158616861786108A118A128A138A148A2D
:1013E000158AE4E3F3E01382128284839583A68353
:1013F000B78386E191E0918380830895EE0FFF1F0C
:101400000590F491E02D099481E090E0F8940C941B
:101410002B0AA1E21A2EAA1BBB1BFD010DC0AA1F9D
:10142000BB1FEE1FFF1FA217B307E407F50720F04D
:10143000A21BB30BE40BF50B661F771F881F991FC8
:101440001A9469F760957095809590959B01AC0111
:0A145000BD01CF010895F894FFCF0D
:10145A00FFFF00000000DB00A404A4008200960045
:10146A00220100000000470217020F02FB01EC01F3
:10147A00EB01564D4450565F317C315F564D445016
:10148A00560D0A00737461727475702E2E2E0076D2
:10149A00616C200061786F200061796F2000617AA9
:1014AA006F20007265672000203D2000564D445091
:1014BA00455F003A323A007C005F564D4450450081
:1014CA00612000206720006669666F636E742000E1
:0A14DA004F766572666C6F770000B4
:00000001FF
