:100000000C945D000C9485000C9485000C94850084
:100010000C9485000C9485000C9485000C9485004C
:100020000C9485000C9485000C9485000C9485003C
:100030000C9485000C9485000C9485000C9485002C
:100040000C944D040C9485000C941B040C94F50343
:100050000C9485000C9485000C9485000C9485000C
:100060000C9485000C9485000000000024002700FB
:100070002A0000000000250028002B0004040404CE
:100080000404040402020202020203030303030342
:10009000010204081020408001020408102001021F
:1000A00004081020000000080002010000030407FB
:1000B0000000000000000000970411241FBECFEFD5
:1000C000D8E0DEBFCDBF11E0A0E0B1E0E8E0FEE0A7
:1000D00002C005900D92A639B107D9F722E0A6E932
:1000E000B1E001C01D92A835B207E1F710E0CDE5FF
:1000F000D0E004C02197FE010E94F706CC35D1075D
:10010000C9F70E94C7040C9402070C940000CF9218
:10011000DF92EF92FF920F931F93CF93DF936C01C7
:100120007A018B01C0E0D0E0CE15DF0589F0D8015F
:100130006D918D01D601ED91FC910190F081E02D42
:10014000C6010995892B11F47E0102C02196ECCFDE
:10015000C701DF91CF911F910F91FF90EF90DF903A
:10016000CF900895FC01918D828D981761F0828D5A
:10017000DF01A80FB11D5D968C91928D9F5F9F73DB
:10018000928F90E008958FEF9FEF0895FC01918D7D
:10019000828D981731F0828DE80FF11D858D90E0EA
:1001A00008958FEF9FEF0895FC01918D228D892F87
:1001B00090E0805C9F4F821B91098F73992708956F
:1001C0008CEA91E00E94D40021E0892B09F420E020
:1001D000822F0895FC01848DDF01A80FB11DA35A61
:1001E000BF4F2C91848D90E001968F739927848F57
:1001F000A689B7892C93A089B1898C9180648C934E
:10020000938D848D981306C00288F389E02D808138
:100210008F7D80830895EF92FF920F931F93CF936A
:10022000DF93EC0181E0888F9B8D8C8D981305C046
:10023000E889F989808185FD24C0F62E0B8D10E0B8
:100240000F5F1F4F0F731127E02E8C8DE8120CC02B
:100250000FB607FCFACFE889F989808185FFF5CFD1
:10026000CE010E94EA00F1CF8B8DFE01E80FF11D57
:10027000E35AFF4FF0820B8FEA89FB89808180620D
:1002800007C0EE89FF896083E889F98980818064ED
:10029000808381E090E0DF91CF911F910F91FF90DB
:1002A000EF900895CF93DF93EC01888D8823C9F0F8
:1002B000EA89FB89808185FD05C0A889B9898C916F
:1002C00086FD0FC00FB607FCF5CF808185FFF2CF0A
:1002D000A889B9898C9185FFEDCFCE010E94EA00F3
:1002E000E7CFDF91CF91089580E090E0892B29F04E
:1002F0000E94E00081110C94000008953FB7F8942B
:1003000080919B0190919C01A0919D01B0919E01D3
:1003100026B5A89B05C02F3F19F00196A11DB11D60
:100320003FBFBA2FA92F982F8827820F911DA11D9B
:10033000B11DBC01CD0142E0660F771F881F991FD8
:100340004A95D1F708952AEF30E08091BC0087FDEF
:1003500003C021503109C8F781E0121613060CF0D2
:1003600080E008958093BB0084E88093BC000E94E5
:10037000A301882339F08091B900887F883221F465
:1003800080E0089581E0089582E00895DF92EF9281
:10039000FF920F931F93CF93DF93D62F8A01F82EEE
:1003A000FF0CC3E084EBE82E94E8D92EE092BC0069
:1003B0000E94A3018823B1F09091B900987F9830F2
:1003C00011F0903179F4F092BB00D092BC000E9401
:1003D000A301882339F09091B900987F903211F4ED
:1003E000C15021F78D2F0E94B201F80180810E9437
:1003F000B20184E98093BC000E94A30181E0DF91F7
:10040000CF911F910F91FF90EF90DF9008953F9251
:100410004F925F926F927F928F929F92AF92BF9214
:10042000CF92DF92EF92FF920F931F93CF93DF93C0
:10043000C62ED42F79019FB7F89440909701509021
:1004400098016090990170909A019FBFC82FCC0FBE
:1004500043E0D42E54EBB52E64E8A62EB092BC0037
:100460000E94A301882319F18091B900887F883008
:1004700011F08031E1F4C093BB00A092BC000E9457
:10048000A3018823A1F08091B900887F803221F4F4
:10049000DA94D110E3CF0BC0883149F4C092BB008D
:1004A00084E88093BC000E94A301811148C08FEFB3
:1004B0001FC08091BB00F60181936F01FFEFEF1A1F
:1004C000FF0AE814F90409F47BC0EA14FB0409F0FC
:1004D00074C0C093BC000E94A301882341F38091A3
:1004E000B900982F907F903521F3887F01F78D2FE9
:1004F0000115110509F46AC09FB7F894409197015E
:10050000509198016091990170919A019FBF44198F
:1005100055096609770920E030E040175107620766
:10052000730708F453C04D2F50E0282F082E000CFD
:10053000330B241735070CF049C08FEF47C080916B
:10054000B900887F883209F0B2CF93E0D92E24EB2E
:10055000C22EC16034E8B32EC092BC000E94A30139
:10056000882309F4A4CF9091B900987F983019F0AE
:10057000903109F09CCFC093BB00B092BC000E94A8
:10058000A301882309F493CF9091B900987F983400
:1005900021F4DA94D110E0CF8ACF903409F087CFDC
:1005A00067018D2E912CE12CF12C540181E0A81AC9
:1005B000B10884EC382EC4E884CF3092BC008BCFD5
:1005C00084E98093BC000E94A30191CFDF91CF9179
:1005D0001F910F91FF90EF90DF90CF90BF90AF9061
:1005E0009F908F907F906F905F904F903F90089575
:1005F000BF92CF92DF92EF92FF920F931F93CF9310
:10060000DF9300D0CDB7DEB7F82EE62EC42EB22E83
:10061000D02E08EE13E09E012E5F3F4F41E00E9476
:100620000702882349F14C2D50E04B1951094F5FC7
:100630005F4F21E030E002C0220F331FBA94E2F78F
:1006400021503109042E01C0220F0A94EAF78D2DA2
:1006500001C0880F4A95EAF7322F30959A8193238B
:100660002823292B2A832983AE014F5F5F4F6E2DEC
:100670008F2D0E94C60101C080E00F900F90DF9186
:10068000CF911F910F91FF90EF90DF90CF90BF908F
:100690000895009769F0FC0101900020E9F7319777
:1006A000AF01481B590BBC018CEA91E00C94870008
:1006B00080E090E00895CF93DF930E944903EC011E
:1006C00080E191E00E9449038C0F9D1FDF91CF9143
:1006D00008958F929F92AF92BF920F931F93CF93E3
:1006E000DF93CDB7DEB7A1970FB6F894DEBF0FBE8C
:1006F000CDBF19A2423008F44AE08E010F5D1F4FB2
:10070000842E912CA12CB12CA50194010E94D50618
:10071000E62FB901CA0101501109EA3014F4E05D75
:1007200001C0E95CD801EC93232B242B252B61F726
:10073000C8010E944903A1960FB6F894DEBF0FBE10
:10074000CDBFDF91CF911F910F91BF90AF909F9040
:100750008F900895CF92DF92EF92FF92CF93DF9325
:100760006B017C01E091AC01F091AD010190F08151
:10077000E02D6DE28CEA91E00995EC016627772780
:10078000CB016C197D098E099F094AE00E9469031B
:100790008C0F9D1FDF91CF91FF90EF90DF90CF9056
:1007A0000895CF93DF93BC01990F880B990B97FFA6
:1007B00003C00E94AA0303C04AE00E946903EC013F
:1007C00080E191E00E9449038C0F9D1FDF91CF9142
:1007D0000895BC01990F880B990B97FD0C94AA03FF
:1007E0004AE00C9469030E94FD061F920F920FB617
:1007F0000F9211242F933F934F935F936F937F93A7
:100800008F939F93AF93BF93EF93FF938CEA91E005
:100810000E94EA00FF91EF91BF91AF919F918F915C
:100820007F916F915F914F913F912F910F900FBEEC
:100830000F901F9018951F920F920FB60F921124D0
:100840002F938F939F93EF93FF93E091BC01F091CF
:10085000BD018081E091C201F091C30182FD12C00F
:1008600090818091C5018F5F8F732091C60182179F
:1008700051F0E091C501F0E0E455FE4F958F809373
:10088000C50101C08081FF91EF919F918F912F91C0
:100890000F900FBE0F901F9018951F920F920FB6DA
:1008A0000F9211242F933F938F939F93AF93BF93F6
:1008B0008091970190919801A0919901B0919A012E
:1008C0003091960123E0230F2D3720F40196A11DCE
:1008D000B11D05C026E8230F0296A11DB11D20936E
:1008E00096018093970190939801A0939901B093FA
:1008F0009A0180919B0190919C01A0919D01B091E2
:100900009E010196A11DB11D80939B0190939C01B6
:10091000A0939D01B0939E01BF91AF919F918F9144
:100920003F912F910F900FBE0F901F901895ECEAFA
:10093000F1E01382128288EE93E0A0E0B0E08483BD
:100940009583A683B78384E091E09183808385ECCF
:1009500090E09587848784EC90E09787868780EC89
:1009600090E0918B808B81EC90E0938B828B82EC7A
:1009700090E0958B848B86EC90E0978B868B118E24
:10098000128E138E148E88E6809349020895CF93B9
:10099000DF9300D0CDB7DEB7789484B5826084BD94
:1009A00084B5816084BD85B5826085BD85B5816073
:1009B00085BD80916E00816080936E0010928100F1
:1009C00080918100826080938100809181008160AC
:1009D000809381008091800081608093800080916D
:1009E000B10084608093B1008091B00081608093F9
:1009F000B00080917A00846080937A0080917A00C0
:100A0000826080937A0080917A00816080937A007E
:100A100080917A00806880937A001092C1001092D1
:100A2000BC0088B1806388B91092B9008CE08093D3
:100A3000B80084E08093BC00E091BC01F091BD015E
:100A400082E08083E091B801F091B9011082E091D9
:100A5000BA01F091BB0183E380831092C401E0915D
:100A6000C001F091C10186E08083E091BE01F09168
:100A7000BF01808180618083E091BE01F091BF0160
:100A8000808188608083E091BE01F091BF01808108
:100A900080688083E091BE01F091BF0180818F7DED
:100AA00080838BE491E00E945B0301E023E042E05D
:100AB0006BE6809149020E94F80200E022E044E0E7
:100AC0006BE1809149020E94F80222E044E06CE16F
:100AD000809149020E94F802F090490208EE13E06A
:100AE0009E012F5F3F4F41E06BE68F2D0E94070272
:100AF00099819F7B99839A83AE014E5F5F4F6BE62E
:100B00008F2D0E94C60187E691E00E945B039E0143
:100B10002F5F3F4F41E065E7809149020E94070245
:100B2000882339F089818E7790E095958795809319
:100B30004A02E0904A02F12C85E891E00E944903C4
:100B4000C7010E94D10328E3E216F10419F081E302
:100B500091E002C083E191E00E945B03FDE9EF2E8A
:100B6000F0E0FF2EF7012491A9E8CA2EA0E0DA2ECA
:100B7000F6018491882399F090E0880F991FFC0179
:100B8000E859FF4FA591B4918E589F4FFC014591B4
:100B900054918FB7F8949C91292B2C938FBF3324B9
:100BA000339408EE13E02AE432E04EE06BE38091E8
:100BB00049020E94070280914A0290E0982F8827FC
:100BC00020914B02822B9093AB018093AA018091DC
:100BD0004C0290E0982F882720914D02822B909311
:100BE000A9018093A80180914E0290E0982F882758
:100BF00020914F02822B9093A7018093A6018091B0
:100C0000520290E0982F882720915302822B9093D4
:100C1000A5018093A4018091540290E0982F882729
:100C200020915502822B9093A3018093A201809181
:100C3000560290E0982F882720915702822B90939C
:100C4000A1018093A0018FE891E00E944903809167
:100C5000AA019091AB010E94E90383E991E00E940F
:100C600049038091A8019091A9010E94E90383E9B9
:100C700091E00E9449038091A6019091A7010E94F2
:100C8000E90383E991E00E9449038091A4019091D6
:100C9000A5010E94E90383E991E00E944903809144
:100CA000A2019091A3010E94E90383E991E00E94CF
:100CB00049038091A0019091A1010E94D10330913C
:100CC0009F01332530939F01E1EBF0E08491F70120
:100CD0002491F6019491992309F43EC0882339F1B7
:100CE000833091F038F48130A9F0823001F584B579
:100CF0008F7D12C0873091F08830A1F08430B9F434
:100D0000809180008F7D03C0809180008F778093D9
:100D100080000DC084B58F7784BD09C08091B0007C
:100D20008F7703C08091B0008F7D8093B000E92F52
:100D3000F0E0EE0FFF1FCF018E589F4FFC01A591F1
:100D4000B4918FB7F8949C91311103C02095292359
:100D500001C0292B2C938FBF0E947E014B015C01A7
:100D60008AE0482E512C612C712C0E947E01DC01FE
:100D7000CB0188199909AA09BB09883E9340A105AE
:100D8000B10558F0F1E04F1A51086108710828EEDA
:100D9000820E23E0921EA11CB11C41145104610477
:100DA000710419F70E947401FCCEA1E21A2EAA1B4D
:100DB000BB1BFD010DC0AA1FBB1FEE1FFF1FA2170B
:100DC000B307E407F50720F0A21BB30BE40BF50B08
:100DD000661F771F881F991F1A9469F76095709591
:100DE000809590959B01AC01BD01CF010895EE0F58
:100DF000FF1F0590F491E02D099481E090E0F894B4
:080E00000C940207F894FFCFE7
:100E0800000000000B018700D400B200C6005201A8
:100E18000D0A004D50553630353020636F6E6E65C3
:100E28006374696F6E207375636365737366756C3D
:100E3800004D50553630353020636F6E6E656374E3
:100E4800696F6E206661696C656400496E697469D2
:100E5800616C697A696E67204932432064657669F6
:100E68006365732E2E2E0054657374696E67206453
:100E7800657669636520636F6E6E656374696F6E0E
:100E8800732E2E2E006465766963654964200061BF
:060E98002F673A0900007B
:107E0000112484B714BE81FFF0D085E080938100F7
:107E100082E08093C00088E18093C10086E0809377
:107E2000C20080E18093C4008EE0C9D0259A86E02C
:107E300020E33CEF91E0309385002093840096BBD3
:107E4000B09BFECF1D9AA8958150A9F7CC24DD24C4
:107E500088248394B5E0AB2EA1E19A2EF3E0BF2EE7
:107E6000A2D0813461F49FD0082FAFD0023811F036
:107E7000013811F484E001C083E08DD089C08234E0
:107E800011F484E103C0853419F485E0A6D080C0E4
:107E9000853579F488D0E82EFF2485D0082F10E0AE
:107EA000102F00270E291F29000F111F8ED06801E7
:107EB0006FC0863521F484E090D080E0DECF843638
:107EC00009F040C070D06FD0082F6DD080E0C81688
:107ED00080E7D80618F4F601B7BEE895C0E0D1E017
:107EE00062D089930C17E1F7F0E0CF16F0E7DF06D8
:107EF00018F0F601B7BEE89568D007B600FCFDCFD4
:107F0000A601A0E0B1E02C9130E011968C91119780
:107F100090E0982F8827822B932B1296FA010C0160
:107F200087BEE89511244E5F5F4FF1E0A038BF0790
:107F300051F7F601A7BEE89507B600FCFDCF97BE46
:107F4000E89526C08437B1F42ED02DD0F82E2BD052
:107F50003CD0F601EF2C8F010F5F1F4F84911BD097
:107F6000EA94F801C1F70894C11CD11CFA94CF0C13
:107F7000D11C0EC0853739F428D08EE10CD085E9AC
:107F80000AD08FE07ACF813511F488E018D01DD067
:107F900080E101D065CF982F8091C00085FFFCCF94
:107FA0009093C60008958091C00087FFFCCF809118
:107FB000C00084FD01C0A8958091C6000895E0E648
:107FC000F0E098E1908380830895EDDF803219F02E
:107FD00088E0F5DFFFCF84E1DECF1F93182FE3DFCA
:107FE0001150E9F7F2DF1F91089580E0E8DFEE27F6
:047FF000FF270994CA
:027FFE00040479
:0400000300007E007B
:00000001FF