:100000000C9466000C94FB040C94D4040C948E00A5
:100010000C948E000C948E000C948E000C948E0028
:100020000C948E000C948E000C948E000C948E0018
:100030000C948E000C948E000C948E000C948E0008
:100040000C948A040C948E000C9458040C94320482
:100050000C948E000C948E000C948E000C948E00E8
:100060000C948E000C948E00000000080002010029
:100070000003040700000000000000001112131428
:1000800015160A0B0C0D0E0F0001020304050000EB
:100090000000250028002B0000000000240027009D
:1000A0002A000404040404040404020202020202FA
:1000B000030303030303010204081020408001022C
:1000C00004081020010204081020220511241FBE7C
:1000D000CFEFD8E0DEBFCDBF11E0A0E0B1E0EAEAAB
:1000E000F2E102C005900D92A036B107D9F722E0E7
:1000F000A0E6B1E001C01D92A438B207E1F710E01C
:10010000C6E6D0E004C02197FE010E942609C5364C
:10011000D107C9F70E947A050C9453090C9400008A
:10012000E7E8F1E0A089B18982E08C93A485B585E8
:100130001C92A685B78587E08C93108EA489B5891B
:1001400086E08C93A289B3898C9180618C93A2897B
:10015000B3898C9188608C93A289B3898C918068D3
:100160008C930288F389E02D80818F7D80830895B0
:1001700090E0FC01EA54FF4F2491FC01EE55FF4F43
:100180008491882399F090E0880F991FFC01E8562C
:10019000FF4FA591B491FC01E257FF4F85919491D7
:1001A0008FB7F894EC91E22BEC938FBF0895CF9228
:1001B000DF92EF92FF920F931F93CF93DF936C0127
:1001C0007A018B01C0E0D0E0CE15DF0589F0D801BF
:1001D0006D918D01D601ED91FC910190F081E02DA2
:1001E000C6010995892B11F47E0102C02196ECCF3E
:1001F000C701DF91CF911F910F91FF90EF90DF909A
:10020000CF90089580917D0190917E010196909309
:100210007E0180937D010895FC01918D828D981758
:1002200061F0828DDF01A80FB11D5D968C91928DDA
:100230009F5F9F73928F90E008958FEF9FEF0895D7
:10024000FC01918D828D981731F0828DE80FF11DA0
:10025000858D90E008958FEF9FEF0895FC01918DBB
:10026000228D892F90E0805C9F4F821B91098F73B4
:100270009927089587E891E00E942E0121E0892BBB
:1002800009F420E0822F0895FC01848DDF01A80F7E
:10029000B11DA35ABF4F2C91848D90E001968F73AE
:1002A0009927848FA689B7892C93A089B1898C91CD
:1002B00080648C93938D848D981306C00288F38993
:1002C000E02D80818F7D80830895EF92FF920F93C0
:1002D0001F93CF93DF93EC0181E0888F9B8D8C8DF2
:1002E000981305C0E889F989808185FD24C0F62E20
:1002F0000B8D10E00F5F1F4F0F731127E02E8C8DB9
:10030000E8120CC00FB607FCFACFE889F9898081A2
:1003100085FFF5CFCE010E944401F1CF8B8DFE0108
:10032000E80FF11DE35AFF4FF0820B8FEA89FB893A
:100330008081806207C0EE89FF896083E889F9893E
:1003400080818064808381E090E0DF91CF911F9174
:100350000F91FF90EF900895CF93DF93EC01888D7C
:100360008823C9F0EA89FB89808185FD05C0A889B9
:10037000B9898C9186FD0FC00FB607FCF5CF80813F
:1003800085FFF2CFA889B9898C9185FFEDCFCE0189
:100390000E944401E7CFDF91CF91089580E090E083
:1003A000892B29F00E943A0181110C9400000895D4
:1003B00090E0FC01E859FF4F3491FC01EA54FF4FF3
:1003C0002491FC01EE55FF4FE491EE2309F43BC06C
:1003D000332339F1333091F038F43130A9F0323031
:1003E00001F584B58F7D12C0373091F03830A1F01F
:1003F0003430B9F4809180008F7D03C080918000FB
:100400008F77809380000DC084B58F7784BD09C03D
:100410008091B0008F7703C08091B0008F7D809372
:10042000B000F0E0EE0FFF1FE257FF4FA591B4912F
:100430008FB7F894EC91611103C020952E2301C071
:100440002E2B2C938FBF08958230910538F0880FA2
:10045000991F880F991F05970197F1F708953FB7E6
:10046000F8948091650190916601A0916701B09127
:10047000680126B5A89B05C02F3F19F00196A11D64
:10048000B11D3FBFBA2FA92F982F8827820F911D2A
:10049000A11DB11DBC01CD0142E0660F771F881F71
:1004A000991F4A95D1F708958F929F92AF92BF926C
:1004B000CF92DF92EF92FF926B017C010E942F029C
:1004C0004B015C01C114D104E104F104F1F00E947C
:1004D0002F02DC01CB0188199909AA09BB09883EC2
:1004E0009340A105B10570F321E0C21AD108E108DB
:1004F000F10888EE880E83E0981EA11CB11CC1147F
:10050000D104E104F10419F7DDCFFF90EF90DF9003
:10051000CF90BF90AF909F908F9008952FB7F89491
:100520006091610170916201809163019091640119
:100530002FBF089508958EBD00000DB407FEFDCFB6
:100540008EB50895CF93DF939CB59F7D9CBD9CB5E0
:10055000937F9CBD9CB59C7F9CBD9DB591609DBDCE
:10056000CCE6D2E0682F8A810E94D8018C899D89CF
:10057000DF91CF910C94240281E00C94A2021F938E
:10058000CF93DF931F92CDB7DEB7182F80E069833A
:100590000E94A202812F8F7180620E949B02182FFD
:1005A0006981862F0E949B020E94BC02812F0F90BE
:1005B000DF91CF911F9108951F93CF93DF931F92E7
:1005C000CDB7DEB7182F80E00E94A202812F8F7175
:1005D0000E949B028FEF0E949B0289830E94BC02B3
:1005E00089810F90DF91CF911F9108950F931F93F1
:1005F000CF938C0186E00E94DC02C82FC77D0230B9
:10060000110531F4C0628BE990E0A0E0B0E00DC0CC
:100610000130110529F085E590E0A0E0B0E005C0CB
:10062000C86081E490E0A0E0B0E080937C02909309
:100630007D02A0937E02B0937F026C2F86E00E9421
:10064000BF0286E00E94DC0291E08C1390E0892FCB
:10065000CF911F910F91089580E00E94DC0281FDEF
:100660000BC0682F626080E00E94BF0265E070E00E
:1006700080E090E00C9454020895CF93C82F82E05C
:100680000E94DC02EC2FF0E0E857FF4FE49121E0FC
:1006900030E001C0220FEA95EAF72095622F682327
:1006A00082E0CF910C94BF02CF93DF931F92CDB71E
:1006B000DEB780E00E94A20281EE0E949B02898345
:1006C0000E94BC0289810F90DF91CF910895EF9233
:1006D000FF920F931F93CF93DF9300D0CDB7DEB778
:1006E000082F162F80E049837A830E94A202802F70
:1006F0008F7180620E949B02082FE12E7A81F72E73
:100700004981140F1E1531F0F70181917F010E947C
:100710009B02F8CF0E94BC02802F0F900F90DF91B8
:10072000CF911F910F91FF90EF9008950E942C0997
:100730006115710579F0FB0101900020E9F731970F
:10074000AF01461B570BDC01ED91FC910280F38158
:10075000E02D099480E090E008954F925F926F92AF
:100760007F92EF92FF920F931F93CF93DF93CDB7BA
:10077000DEB7A1970FB6F894DEBF0FBECDBF7C01E8
:10078000FA01CB0119A2223008F42AE08E010F5D94
:100790001F4F422E512C612C712CBF01A3019201DD
:1007A0000E943109F901CA01015011096A3014F49B
:1007B000605D01C0695CD8016C93232B242B252B31
:1007C00061F7B801C7010E949803A1960FB6F8948B
:1007D000DEBF0FBECDBFDF91CF911F910F91FF9074
:1007E000EF907F906F905F904F900895CF92DF923F
:1007F000EF92FF92CF93DF936C01990FEE08FF0801
:10080000F7FE21C0E0918701F09188010190F0810D
:10081000E02D6DE287E891E00995EC01442755272A
:10082000BA014C195D096E097F092AE087E891E059
:100830000E94AD038C0F9D1FDF91CF91FF90EF9031
:10084000DF90CF9008952AE0B701A60187E891E0F4
:10085000DF91CF91FF90EF90DF90CF900C94AD039C
:100860000C9498031F920F920FB60F9211242F939E
:100870003F934F935F936F937F938F939F93AF9328
:10088000BF93EF93FF9387E891E00E944401FF91AB
:10089000EF91BF91AF919F918F917F916F915F91F8
:1008A0004F913F912F910F900FBE0F901F90189571
:1008B0001F920F920FB60F9211242F938F939F9335
:1008C000EF93FF93E0919701F09198018081E0917F
:1008D0009D01F0919E0182FD12C090818091A00146
:1008E0008F5F8F732091A101821751F0E091A001D9
:1008F000F0E0E957FE4F958F8093A00101C0808101
:10090000FF91EF919F918F912F910F900FBE0F90BC
:100910001F9018951F920F920FB60F9211242F93CC
:100920003F938F939F93AF93BF9380916101909179
:100930006201A0916301B09164013091600123E0F4
:10094000230F2D3720F40196A11DB11D05C026E807
:10095000230F0296A11DB11D2093600180936101B8
:1009600090936201A0936301B0936401809165014B
:1009700090916601A0916701B09168010196A11D57
:10098000B11D8093650190936601A0936701B093B8
:100990006801BF91AF919F918F913F912F910F90DF
:1009A0000FBE0F901F9018951F920F920FB60F92C7
:1009B00011242F933F934F935F936F937F938F9364
:1009C0009F93AF93BF93EF93FF93E0910201F09158
:1009D00003010995FF91EF91BF91AF919F918F9185
:1009E0007F916F915F914F913F912F910F900FBE2B
:1009F0000F901F9018951F920F920FB60F9211240F
:100A00002F933F934F935F936F937F938F939F9316
:100A1000AF93BF93EF93FF93E0910001F091010139
:100A20000995FF91EF91BF91AF919F918F917F9128
:100A30006F915F914F913F912F910F900FBE0F904B
:100A40001F901895E7E8F1E01382128288EE93E098
:100A5000A0E0B0E084839583A683B78388E091E02B
:100A60009183808385EC90E09587848784EC90E087
:100A70009787868780EC90E0918B808B81EC90E06B
:100A8000938B828B82EC90E0958B848B86EC90E04C
:100A9000978B868B118E128E138E148EE4E2F2E009
:100AA0001682178210861186128613861486158682
:100AB00016861786108A118A128A138A148A158A52
:100AC000ECE6F2E083E090E0918380838AE090E0BE
:100AD00093838283168280E28783108685E08687EF
:100AE00085E090E0A0E0B0E0848B958BA68BB78B7F
:100AF00011860895CF93DF93CDB7DEB728970FB651
:100B0000F894DEBF0FBECDBF789484B5826084BDFB
:100B100084B5816084BD85B5826085BD85B5816001
:100B200085BD80916E00816080936E00109281007F
:100B3000809181008260809381008091810081603A
:100B400080938100809180008160809380008091FB
:100B5000B10084608093B1008091B0008160809387
:100B6000B00080917A00846080937A0080917A004E
:100B7000826080937A0080917A00816080937A000D
:100B800080917A00806880937A001092C100109260
:100B900068021092690210926A0210926B0210921F
:100BA000260210922702109228021092290260ED6C
:100BB00077E080E090E00E94540287E891E0909313
:100BC0006702809366020E9490000E948E026093EA
:100BD000260270932702809328029093290264E1F1
:100BE00071E080916602909167020E9430046AE091
:100BF00070E080E090E00E94540281E080933A022D
:100C000080916C0290916D0220916E0230916F0282
:100C10008217930711F00E94B80080916E029091A4
:100C20006F0220916C0230916D022817390711F084
:100C30000E94B8001FB7F89480916901811124C007
:100C4000ECEAF0E08491E0ECF0E09491E82FF0E041
:100C5000EE0FFF1FE856FF4FA591B491EC91E923E9
:100C600021F461E08AE00E94D8018AE00E94B80085
:100C70008CB580618CBD8CB580648CBD8DE00E948C
:100C8000B8008BE00E94B800809169018F5F80936B
:100C900069011FBF80916C0290916D0220916E02DC
:100CA00030916F028217930719F060E00E94D8011B
:100CB00081E00E94A20265E070E080E090E00E9486
:100CC00054026CE080E00E94BF026FE584E00E9465
:100CD000BF0282E090E00E94F602882319F081E0D2
:100CE0008093720286E00E94DC0280E090E00E9425
:100CF000F60280E00E94A20280E50E949B0283E748
:100D00000E949B020E94BC0260E08DE10E94BF0233
:100D100060E08CE10E94BF021092740260E787E0FD
:100D20000E94BF026CE485E00E94BF0280E00E9446
:100D3000A20282EE0E949B020E94BC020E94540307
:100D40000E942C0380E00E94DC02682F6E7F80E00E
:100D50000E94BF0260E081E00E94BF028DE10E941C
:100D6000DC02682F697F8DE10E94BF028CE10E9446
:100D7000DC02682F607C8CE10E94BF02109274023A
:100D800083E18093730262E083E00E94BF0284E00B
:100D900080937A0281E090E00E94F60282E091E086
:100DA0009093010180930001809169008C7F8160A4
:100DB00080936900E89A0E94900044EF242E332427
:100DC0003394412C512C59E8652E50E0752ECC24DB
:100DD000C394D12C0E948E02672B682B692B41F49F
:100DE0000E948E02623071058105910508F40AC1E6
:100DF0000E948E0260938301709384018093850129
:100E00009093860100917F011091800120918101D2
:100E100030918201601771078207930740F4609355
:100E20007F017093800180938101909382010091F2
:100E30007F011091800120918101309182014B014D
:100E40005C01801A910AA20AB30A950184010A3F43
:100E500011052105310508F4D5C060937F01709319
:100E6000800180938101909382012092320230921E
:100E700033024092340250923502109236021092A0
:100E80003702109238021092390280912A02909112
:100E90002B02A0912C02B0912D0280932E029093F0
:100EA0002F02A0933002B09331020E948E02609311
:100EB0002A0270932B0280932C0290932D020E94A1
:100EC0008E026093260270932702809328029093EB
:100ED00029020E948E024B015C0166E271E0809162
:100EE0006602909167020E9430042AE041E050E0DF
:100EF00060E070E080916602909167020E94AD030D
:100F00006DE271E080916602909167020E94300468
:100F10002AE0B501A40180916602909167020E94C7
:100F2000AD036FE271E080916602909167020E94CA
:100F3000300480912A0290912B02A0912C02B09152
:100F40002D02B501A401481B590B6A0B7B0B2AE04B
:100F500080916602909167020E94AD036FE271E09A
:100F600080916602909167020E94300440912A02AB
:100F700050912B0260912C0270912D0280912E02D3
:100F800090912F02A0913002B0913102481B590B71
:100F90006A0B7B0B2AE080916602909167020E94A7
:100FA000AD0361E371E080916602909167020E9457
:100FB00030040E948E02AB01BC012AE080916602DF
:100FC000909167020E94AD03009166021091670242
:100FD00063E371E0C8010E94980363E271E0C80115
:100FE0000E94980362E070E080E090E00E9454026A
:100FF0000E948E0260932A0270932B0280932C022F
:1010000090932D02E12CF12C3EE7932E6E2D6E373E
:1010100008F06DE785E00E94BF020E942C0380E08B
:101020000E94DC02682F616080E00E94BF0260E7DE
:1010300087E00E94BF0280916C0290916D02209126
:101040006E0230916F028217930719F061E00E94DF
:10105000D80180917502882341F040917A0265E7BA
:1010600072E08AE00E94670303C080E00E943D03B3
:101070008DE10E94DC0281FD0E94540399EAA92EB1
:10108000A98223E6B22EBA8288EB8B839C821D82D2
:101090001E821F821886E3E8F0E0849140917A0274
:1010A000BE016F5F7F4F0E946703EDE7F0E0849120
:1010B000609173020E94BF0282E00E94DC02F30191
:1010C0009491960101C0220F9A95EAF7682F622B3E
:1010D00082E00E94BF026AE070E080E090E00E943F
:1010E000540289E00E94DC0280FF40C06AE371E0A4
:1010F00087E891E00E943004C7010E94F60380E077
:101100000E94A2028FEF0E949B02182F0E94BC0235
:1011100063E471E087E891E00E943004812F90E061
:101120000E94F6036DE471E087E891E00E943004CC
:1011300080917D0190917E010E94F60387E10E94DB
:10114000DC0280FF5AC012C00E94BC0260E787E048
:101150000E94BF0266E571E087E891E00E94980373
:1011600063E271E087E891E00E94980381E00E94C9
:101170003D0380916C0290916D0220916E0230913E
:101180006F028217930719F060E00E94D8018091E6
:101190007C0290917D020E9424028DE10E94DC027B
:1011A00081FF08C080917C0290917D020E94240200
:1011B0000E94540380E00E94DC02682F6E7F80E072
:1011C0000E94BF0282E00E94DC02E8E8F0E0949115
:1011D000960101C0220F9A95EAF7682F622B82E0F0
:1011E0000E94BF02FFEFEF1AFF0A88E7E816F1043A
:1011F00009F00CCF0E94CE01EDCD10917302133196
:1012000018F103E180917402811102C0101B01C02A
:1012100010E080E00E94A20281E60E949B028AE622
:10122000A82E81E0B82E015038F08FEF0E949B026B
:10123000F50181935F01F7CF112309F485CF8FEF7B
:101240000E949B021150F8CF012FDCCFEE0FFF1F41
:101250000590F491E02D099481E090E0F8940C94CD
:101260005309A1E21A2EAA1BBB1BFD010DC0AA1F28
:10127000BB1FEE1FFF1FA217B307E407F50720F0FF
:10128000A21BB30BE40BF50B661F771F881F991F7A
:101290001A9469F760957095809590959B01AC01C3
:0A12A000BD01CF010895F894FFCFBF
:1012AA009A029A02000000006501D7002E010C0183
:1012BA002001AC01564D4450565F317C315F564D8A
:1012CA004450560D0A00564D4450455F003A323A92
:1012DA00007C005F564D445045006368616E6E6540
:1012EA006C20002C2073746174757320002C2069A3
:1012FA006E74727320007265636569766564210095
:107E0000112484B714BE81FFF0D085E080938100F7
:107E100082E08093C00088E18093C10086E0809377
:107E2000C20080E18093C4008EE0C9D0259A86E02C
:107E300020E33CEF91E0309385002093840096BBD3
:107E4000B09BFECF1D9AA8958150A9F7CC24DD24C4
:107E500088248394B5E0AB2EA1E19A2EF3E0BF2EE7
:107E6000A2D0813461F49FD0082FAFD0023811F036
:107E7000013811F484E001C083E08DD089C08234E0
:107E800011F484E103C0853419F485E0A6D080C0E4
:107E9000853579F488D0E82EFF2485D0082F10E0AE
:107EA000102F00270E291F29000F111F8ED06801E7
:107EB0006FC0863521F484E090D080E0DECF843638
:107EC00009F040C070D06FD0082F6DD080E0C81688
:107ED00080E7D80618F4F601B7BEE895C0E0D1E017
:107EE00062D089930C17E1F7F0E0CF16F0E7DF06D8
:107EF00018F0F601B7BEE89568D007B600FCFDCFD4
:107F0000A601A0E0B1E02C9130E011968C91119780
:107F100090E0982F8827822B932B1296FA010C0160
:107F200087BEE89511244E5F5F4FF1E0A038BF0790
:107F300051F7F601A7BEE89507B600FCFDCF97BE46
:107F4000E89526C08437B1F42ED02DD0F82E2BD052
:107F50003CD0F601EF2C8F010F5F1F4F84911BD097
:107F6000EA94F801C1F70894C11CD11CFA94CF0C13
:107F7000D11C0EC0853739F428D08EE10CD085E9AC
:107F80000AD08FE07ACF813511F488E018D01DD067
:107F900080E101D065CF982F8091C00085FFFCCF94
:107FA0009093C60008958091C00087FFFCCF809118
:107FB000C00084FD01C0A8958091C6000895E0E648
:107FC000F0E098E1908380830895EDDF803219F02E
:107FD00088E0F5DFFFCF84E1DECF1F93182FE3DFCA
:107FE0001150E9F7F2DF1F91089580E0E8DFEE27F6
:047FF000FF270994CA
:027FFE00040479
:0400000300007E007B
:00000001FF