:100000000C9460000C9488000C9488000C94880078
:100010000C9488000C9488000C9488000C94880040
:100020000C9488000C9488000C9488000C94880030
:100030000C9488000C9488000C9488000C94880020
:100040000C94C3030C9488000C9491030C946B03E0
:100050000C9488000C9488000C9488000C94880000
:100060000C9488000C948800000000080002010035
:100070000003040700000000000000000000000072
:10008000250028002B0000000000240027002A0083
:10009000040404040404040402020202020203032E
:1000A0000303030301020408102040800102040836
:1000B00010200102040810200001020304050D04B1
:1000C00011241FBECFEFD8E0DEBFCDBF11E0A0E00E
:1000D000B1E0E0E9FFE002C005900D92A631B10762
:1000E000D9F721E0A6E1B1E001C01D92AF3DB20712
:1000F000E1F710E0C0E6D0E004C02197FE010E94C5
:100100002006CF35D107C9F70E9453040C94C607C7
:100110000C94000090E0FC01EC55FF4F2491FC0191
:10012000E057FF4F8491882399F090E0880F991F42
:10013000FC01EA57FF4FA591B491FC01E458FF4F31
:10014000859194918FB7F894EC91E22BEC938FBF4B
:100150000895CF92DF92EF92FF920F931F93CF9368
:10016000DF936C017A018B01C0E0D0E0CE15DF0592
:1001700089F0D8016D918D01D601ED91FC9101902E
:10018000F081E02DC6010995892B11F47E0102C092
:100190002196ECCFC701DF91CF911F910F91FF9076
:1001A000EF90DF90CF900895FC01918D828D98178C
:1001B00061F0828DDF01A80FB11D5D968C91928D4B
:1001C0009F5F9F73928F90E008958FEF9FEF089548
:1001D000FC01918D828D981731F0828DE80FF11D11
:1001E000858D90E008958FEF9FEF0895FC01918D2C
:1001F000228D892F90E0805C9F4F821B91098F7325
:100200009927089580E291E00E94F60021E0892B71
:1002100009F420E0822F0895FC01848DDF01A80FEE
:10022000B11DA35ABF4F2C91848D90E001968F731E
:100230009927848FA689B7892C93A089B1898C913D
:1002400080648C93938D848D981306C00288F38903
:10025000E02D80818F7D80830895EF92FF920F9330
:100260001F93CF93DF93EC0181E0888F9B8D8C8D62
:10027000981305C0E889F989808185FD24C0F62E90
:100280000B8D10E00F5F1F4F0F731127E02E8C8D29
:10029000E8120CC00FB607FCFACFE889F989808113
:1002A00085FFF5CFCE010E940C01F1CF8B8DFE01B1
:1002B000E80FF11DE35AFF4FF0820B8FEA89FB89AB
:1002C0008081806207C0EE89FF896083E889F989AF
:1002D00080818064808381E090E0DF91CF911F91E5
:1002E0000F91FF90EF900895682F80E291E00C94B9
:1002F0002D01CF93DF93C82F880FDD0BCE010E9415
:100300007401CE01DF91CF910895CF93DF93EC017B
:10031000888D8823C9F0EA89FB89808185FD05C025
:10032000A889B9898C9186FD0FC00FB607FCF5CF5F
:10033000808185FFF2CFA889B9898C9185FFEDCFA7
:10034000CE010E940C01E7CFDF91CF91089580E0AC
:1003500090E0892B29F00E94020181110C94000089
:10036000089590E0FC01E859FF4F3491FC01EC55F1
:10037000FF4F2491FC01E057FF4FE491EE2309F475
:100380003BC0332339F1333091F038F43130A9F0E8
:10039000323001F584B58F7D12C0373091F038309E
:1003A000A1F03430B9F4809180008F7D03C080913A
:1003B00080008F77809380000DC084B58F7784BDD7
:1003C00009C08091B0008F7703C08091B0008F7D0D
:1003D0008093B000F0E0EE0FFF1FE458FF4FA591AF
:1003E000B4918FB7F894EC91611103C020952E233E
:1003F00001C02E2B2C938FBF08958230910538F0C9
:10040000880F991F880F991F05970197F1F7089595
:100410003FB7F89480911B0190911C01A0911D01A0
:10042000B0911E0126B5A89B05C02F3F19F001967B
:10043000A11DB11D3FBFBA2FA92F982F8827820F6A
:10044000911DA11DB11DBC01CD0142E0660F771FBA
:10045000881F991F4A95D1F708958F929F92AF9266
:10046000BF92CF92DF92EF92FF926B017C010E94CC
:1004700008024B015C01C114D104E104F104F1F064
:100480000E940802DC01CB0188199909AA09BB095D
:10049000883E9340A105B10570F321E0C21AD1084E
:1004A000E108F10888EE880E83E0981EA11CB11CBB
:1004B000C114D104E104F10419F7DDCFFF90EF90EE
:1004C000DF90CF90BF90AF909F908F9008958EBD9A
:1004D00000000DB407FEFDCF8EB50895CF93DF93D6
:1004E0009CB59F7D9CBD9CB5937F9CBD9CB59C7F1E
:1004F0009CBD9DB591609DBDCDEBD1E0682F8A81FB
:100500000E94B1018C899D89DF91CF910C94FD01EE
:100510001F93CF93DF931F92CDB7DEB7182F80E0E4
:1005200069830E946E02812F8F7180620E94670230
:10053000182F6981862F0E94670281E00E946E0257
:10054000812F0F90DF91CF911F910895CF93C82FE6
:1005500080E00E946E028C2F8F710E9467028FEFE5
:100560000E946702C82F81E00E946E028C2FCF91FB
:10057000089580E00E94A60281FD0BC0682F626092
:1005800080E00E94880265E070E080E090E00C94DA
:100590002D020895CF9380E00E946E0281EE0E94AA
:1005A0006702C82F81E00E946E028C2FCF910895C0
:1005B0008091BD019091BE012091BF013091C00199
:1005C0008217930719F060E00E94B1018091CD017C
:1005D0009091CE010E94FD018DE10E94A60281FF53
:1005E00008C08091CD019091CE010E94FD010E9432
:1005F000CA0280E00E94A602682F6E7F80E00E94FF
:10060000880282E00E94A602E8EBF0E0E49161E05B
:1006100070E001C0660FEA95EAF7682B82E00C945F
:1006200088021F93CF93DF930E94B90280E00E945B
:10063000A602682F616080E00E94880260E787E080
:100640000E9488028091BD019091BE012091BF015E
:100650003091C0018217930719F061E00E94B10147
:100660008091C6018823A9F01091CB0180E00E94FF
:100670006E028AE20E946702C6ECD1E01C0F1C17D2
:1006800021F089910E946702FACF81E00E946E02F8
:1006900012C082E00E94A602E8EBF0E0E49121E0C3
:1006A00030E001C0220FEA95EAF72095622F682317
:1006B00082E00E9488028DE10E94A60281FF05C0AF
:1006C000DF91CF911F910C94CA02DF91CF911F91BE
:1006D00008950E9426061F920F920FB60F921124C2
:1006E0002F933F934F935F936F937F938F939F933A
:1006F000AF93BF93EF93FF9380E291E00E940C01D0
:10070000FF91EF91BF91AF919F918F917F916F91E9
:100710005F914F913F912F910F900FBE0F901F90BF
:1007200018951F920F920FB60F9211242F938F934B
:100730009F93EF93FF93E0913001F091310180811D
:10074000E0913601F091370182FD12C090818091D5
:1007500039018F5F8F7320913A01821751F0E09138
:100760003901F0E0E05EFE4F958F8093390101C0C2
:100770008081FF91EF919F918F912F910F900FBEEC
:100780000F901F9018951F920F920FB60F92112481
:100790002F933F938F939F93AF93BF9380911701B4
:1007A00090911801A0911901B0911A013091160190
:1007B00023E0230F2D3720F40196A11DB11D05C0A4
:1007C00026E8230F0296A11DB11D209316018093E8
:1007D000170190931801A0931901B0931A01809109
:1007E0001B0190911C01A0911D01B0911E01019669
:1007F000A11DB11D80931B0190931C01A0931D01AD
:10080000B0931E01BF91AF919F918F913F912F9116
:100810000F900FBE0F901F901895E0E2F1E0138249
:10082000128288EE93E0A0E0B0E084839583A683F3
:10083000B7838AE091E09183808385EC90E095878F
:10084000848784EC90E09787868780EC90E0918B9A
:10085000808B81EC90E0938B828B82EC90E0958B87
:10086000848B86EC90E0978B868B118E128E138E84
:10087000148EEDEBF1E083E090E0918380838AE0D9
:1008800090E093838283168280E28783108685E0DE
:10089000868785E090E0A0E0B0E0848B958BA68B06
:1008A000B78B11860895789484B5826084BD84B531
:1008B000816084BD85B5826085BD85B5816085BD5B
:1008C00080916E00816080936E0010928100809113
:1008D000810082608093810080918100816080939B
:1008E0008100809180008160809380008091B100C0
:1008F00084608093B1008091B00081608093B000EB
:1009000080917A00846080937A0080917A0082607E
:1009100080937A0080917A00816080937A00809140
:100920007A00806880937A001092C100E0913001D3
:10093000F091310182E08083E0912C01F0912D0152
:100940001082E0912E01F0912F0187E080831092B8
:100950003801E0913401F091350186E08083E09127
:100960003201F0913301808180618083E091320116
:10097000F0913301808188608083E0913201F091B1
:100980003301808180688083E0913201F0913301EE
:1009900080818F7D808360E070E089E791E00E9434
:1009A0002B068091BD019091BE012091BF01309135
:1009B000C0018217930711F00E948A008091BF0145
:1009C0009091C0012091BD013091BE0128173907D7
:1009D00011F00E948A00CFB7F89480911F01811115
:1009E00024C0EAE9F0E08491EEEAF0E09491E82F87
:1009F000F0E0EE0FFF1FEA57FF4FA591B491EC9185
:100A0000E92321F461E08AE00E94B1018AE00E94BA
:100A10008A008CB580618CBD8CB580648CBD8DE006
:100A20000E948A008BE00E948A0080911F018F5FE4
:100A300080931F01CFBF8091BD019091BE01209195
:100A4000BF013091C0018217930719F060E00E9446
:100A5000B10181E00E946E0265E070E080E090E00C
:100A60000E942D026CE080E00E9488026FE584E025
:100A70000E94880286E00E94A602877DC82FC0627D
:100A80008BE990E0A0E0B0E08093CD019093CE019F
:100A9000A093CF01B093D0016C2F86E00E94880212
:100AA00086E00E94A6028C1709F4C6C086E00E9468
:100AB000A60286E00E94A60245E550E060E070E0F4
:100AC0004093CD015093CE016093CF017093D0013C
:100AD000682F677D86E00E94880286E00E94A60259
:100AE00080E00E946E0280E50E94670283E70E9418
:100AF000670281E00E946E0260E08DE10E94880240
:100B000060E08CE10E9488021092C50160E787E0F6
:100B10000E9488026CE485E00E94880280E00E94C6
:100B20006E0282EE0E94670281E00E946E020E94C5
:100B3000CA020E94B90280E00E94A602682F6E7F5E
:100B400080E00E94880260E081E00E9488020E94AA
:100B500011030E94D80280E291E00E94F600892BE6
:100B600009F467C080E291E00E94D4008E34D9F18C
:100B700044F48C3409F059C08CE490E00E94740174
:100B800039C0833579F08C3609F04FC08CE690E09F
:100B90000E94740186E00E94A602867090E09695FD
:100BA000879545C083E590E00E947401C0E06C2FFA
:100BB000CE3708F06DE785E00E9488020E9411039D
:100BC00061E070E080E090E00E942D020E94D80277
:100BD00089E00E94A602817090E00E947401CF5FBC
:100BE000CE3729F726C08EE490E00E9474018EE78C
:100BF00090E01DC080E291E00E94F600892BD1F3C5
:100C000080E291E00E94D400C82F86E00E94A602F4
:100C1000887FC43018F4CC0FCF5F01C0C7E06C2FC1
:100C2000682B86E00E94880204C08FE390E00E9457
:100C300074010E94A7018FCF81E08093C30136CF5A
:100C4000EE0FFF1F0590F491E02D099481E090E0F4
:100C5000F8940C94C6070F931F93CF93DF930097DC
:100C600031F46115710519F480E090E03AC08B0110
:100C7000EC016EE070E081E090E00E947606FC01FD
:100C8000892B91F380E883830115110571F0138797
:100C9000028781E883838091D5019091D601892BC9
:100CA00021F4F093D601E093D5012097C9F0D187C4
:100CB000C0878381826083838091D7019091D8011E
:100CC000892B71F4F093D801E093D7018091D90179
:100CD0009091DA01892B21F4F093DA01E093D901A4
:100CE000CF01DF91CF911F910F9108950F931F9323
:100CF000CF93DF93869F8001879F100D969F100DE5
:100D00001124C8010E949206EC01009729F0A80165
:100D100060E070E00E94BF07CE01DF91CF911F918C
:100D20000F910895CF93DF938230910510F482E004
:100D300090E0E091DD01F091DE0120E030E0C0E0E4
:100D4000D0E0309711F14081518148175907C0F028
:100D50004817590761F482819381209719F09B838A
:100D60008A832BC09093DE018093DD0126C021157C
:100D7000310519F04217530718F49A01BE01DF013B
:100D8000EF010280F381E02DDCCF2115310509F15F
:100D9000281B390B2430310590F412968D919C91CB
:100DA00013976115710521F0FB019383828304C0C1
:100DB0009093DE018093DD01FD01329644C0FD0178
:100DC000E20FF31F81939193225031092D933C93AD
:100DD0003AC02091DB013091DC01232B41F42091BA
:100DE0000201309103013093DC012093DB0120915B
:100DF0000001309101012115310541F42DB73EB7B5
:100E00004091040150910501241B350BE091DB0159
:100E1000F091DC01E217F307A0F42E1B3F0B28171B
:100E2000390778F0AC014E5F5F4F2417350748F063
:100E30004E0F5F1F5093DC014093DB018193919330
:100E400002C0E0E0F0E0CF01DF91CF9108950F9371
:100E50001F93CF93DF93009709F48CC0FC01329766
:100E6000138212820091DD011091DE01011511053E
:100E700081F420813181820F931F2091DB01309119
:100E8000DC012817390779F5F093DC01E093DB01E9
:100E900071C0D80140E050E0AE17BF0750F4129681
:100EA0002D913C911397AD012115310509F1D9011F
:100EB000F3CF9D01DA013383228360817181860F34
:100EC000971F8217930769F4EC0128813981260F57
:100ED000371F2E5F3F4F318320838A819B8193830D
:100EE0008283452B29F4F093DE01E093DD0142C0BB
:100EF0001396FC93EE931297ED01499159919E013F
:100F0000240F351FE217F30771F480819181840F5C
:100F1000951F029611969C938E93828193811396CE
:100F20009C938E931297E0E0F0E0D80112968D9199
:100F30009C911397009719F0F8018C01F6CF8D91D1
:100F40009C9198012E5F3F4F820F931F2091DB01F0
:100F50003091DC012817390769F4309729F4109291
:100F6000DE011092DD0102C0138212821093DC01B7
:100F70000093DB01DF91CF911F910F910895DC0168
:100F800001C06D9341505040E0F70895F894FFCFB1
:100F90000000DF018000000000002D01A900F60024
:060FA000D400E800850109
:107E0000112484B714BE81FFF0D085E080938100F7
:107E100082E08093C00088E18093C10086E0809377
:107E2000C20080E18093C4008EE0C9D0259A86E02C
:107E300020E33CEF91E0309385002093840096BBD3
:107E4000B09BFECF1D9AA8958150A9F7CC24DD24C4
:107E500088248394B5E0AB2EA1E19A2EF3E0BF2EE7
:107E6000A2D0813461F49FD0082FAFD0023811F036
:107E7000013811F484E001C083E08DD089C08234E0
:107E800011F484E103C0853419F485E0A6D080C0E4
:107E9000853579F488D0E82EFF2485D0082F10E0AE
:107EA000102F00270E291F29000F111F8ED06801E7
:107EB0006FC0863521F484E090D080E0DECF843638
:107EC00009F040C070D06FD0082F6DD080E0C81688
:107ED00080E7D80618F4F601B7BEE895C0E0D1E017
:107EE00062D089930C17E1F7F0E0CF16F0E7DF06D8
:107EF00018F0F601B7BEE89568D007B600FCFDCFD4
:107F0000A601A0E0B1E02C9130E011968C91119780
:107F100090E0982F8827822B932B1296FA010C0160
:107F200087BEE89511244E5F5F4FF1E0A038BF0790
:107F300051F7F601A7BEE89507B600FCFDCF97BE46
:107F4000E89526C08437B1F42ED02DD0F82E2BD052
:107F50003CD0F601EF2C8F010F5F1F4F84911BD097
:107F6000EA94F801C1F70894C11CD11CFA94CF0C13
:107F7000D11C0EC0853739F428D08EE10CD085E9AC
:107F80000AD08FE07ACF813511F488E018D01DD067
:107F900080E101D065CF982F8091C00085FFFCCF94
:107FA0009093C60008958091C00087FFFCCF809118
:107FB000C00084FD01C0A8958091C6000895E0E648
:107FC000F0E098E1908380830895EDDF803219F02E
:107FD00088E0F5DFFFCF84E1DECF1F93182FE3DFCA
:107FE0001150E9F7F2DF1F91089580E0E8DFEE27F6
:047FF000FF270994CA
:027FFE00040479
:0400000300007E007B
:00000001FF