:100000000C944E050C9480070C9459070C947605BB
:100010000C9476050C9476050C9476050C94760574
:100020000C9476050C9476050C9476050C94760564
:100030000C9476050C9476050C9476050C94760554
:100040000C940F070C9476050C94A3060C947D0673
:100050000C9476050C9476050C9476050C94760534
:100060000C9476050C94760501B202FFFF01900412
:100070000923A135016A02060001600800000000A2
:100080000000000000600440000000016202000067
:1000900000600400400000037B034CCD6C03AB0305
:1000A00036567600680402CB47A202180400058B7E
:1000B000C1010C0400000000037F060CC92C9797B7
:1000C00097038903264666006C0220000240040064
:1000D0000000000244040000000002480400000088
:1000E00000024C0400000000025004000000000266
:1000F00054040000000002580400000000025C04E8
:100100000000000002BC040000000001EC0400003C
:100110004000037F060CC92C9797970402030D3506
:100120005D040904872D353D00A301000000000196
:10013000078601FE074105F120283038077E01308F
:100140000746019A074704F1283038076C04F12864
:1001500030380216020002FB00003E000B003600A1
:100160000100020003000000650054FFEF0000FAE8
:1001700080000B128200010002000000000000005D
:100180000000000000000000280000FFFF4581FF84
:10019000FFFA7200000000000003E8000000010008
:1001A000017FFFFFFE8001001B0000000000000037
:1001B00000000000000000003E033040000000028C
:1001C000CAE3093E8000002000000000000000405B
:1001D0000000006000000041FF000000000B2A004A
:1001E00000165500002182FD872650FD800000008A
:1001F0001F0000000580000000000000010000005A
:1002000002000000030000400000000000046F0036
:1002100002653200005EC0400000000000000000E7
:1002200000000000000000FB8C6F5DFD5D08D90040
:100230007C733B006C12CC3200139D3200D0D6325E
:10024000000800400001F4FFE68079020000000091
:1002500000D0D600002710FB000000400000000086
:10026000000000000000000000000100000000008D
:10027000000100010000000000FA36FFBC308E00D3
:1002800005FBF0FFD95BC8FFD09ABE000010A9FFA4
:10029000F41EB200CEBBF700000001000000040015
:1002A0000200020200000CFFC2800000018000007A
:1002B000CF800040000000000000010000000000AE
:1002C0000006000000001400000000000000000014
:1002D000000000000000000000000000000000001E
:1002E000000000000000000000000000000000000E
:1002F0000000000000000000000000033F68B67925
:100300003528BCC67ED16C80000000400000000093
:1003100000B26A00000000000000000000000000C1
:10032000003FF0000000300000000000000000006E
:1003300000000000000000000000000000000000BD
:10034000000000000000000000254D002F706D002F
:100350000005AE000C02D00000000000650054FF54
:10036000EF00000000000000000100004400000059
:10037000000C00000001000000000000650000000B
:10038000540000FFEF00000000000000000000002B
:10039000000000000000004000000000000000001D
:1003A000000000000000004000000000000000000D
:1003B000000000000000000000000100000002003A
:1003C000000000000000000000000000000000002D
:1003D000000000000000000000000000000000001D
:1003E00000000000000000001B00000000000000F2
:1003F00000000000000000000000000000000000FD
:1004000000000000000000000000000000000000EC
:1004100000000040000000001B0000000000000081
:1004200000000000000000000000000000000000CC
:1004300000000000000000000000000000000000BC
:1004400000000000000000000000000000000000AC
:1004500000000000000000D8DCBAA2F1DEB2B8B49F
:10046000A88191F74A907F916AF3F9DBA8F9B0BAB5
:10047000A080F2CE81F3C2F1C1F2C3F3CCA2B2806C
:10048000F1C6D880BAA7DFDFDFF2A7C3CBC5B6F0CD
:1004900087A2942448703C95406834589B78A2F118
:1004A00083922D557DD8B1B4B8A1D09180F270F36C
:1004B00070F27C80A8F101B09887D943D886C988AA
:1004C000BAA1F20EB89780F1A9DFDFDFAADFDFDF84
:1004D000F2AAC5CDC7A90CC92C97979797F1A989FE
:1004E000264666B0B4BA80ACDEF2CAF1B28C02A97C
:1004F000B69800890E161EB8A9B4992C547CB08AFF
:10050000A896365676F1B9AFB4B083C0B8A89711A3
:10051000B18F98B9AFF0240844106418F1A329559D
:100520007DAF83B593AFF0002850F1A3869F61A6FD
:10053000DADEDFD9FAA38696DB31A6D9F8DFBAA6D0
:100540008FC2C5C7B28CC1B8A2DFDFDFA3DFDFDF98
:10055000D8D8F1B8A8B286B4980D355DB8AA98B0CD
:10056000872D353DB2B6BAAF8C96198F9FA70E1660
:100570001EB49AB8AA872C547CB9A3DEDFDFA3B1DE
:1005800080F2C4CDC9F1B8A9B499830D355D89B99C
:10059000A32D557DB593A30E161EA92C547CB8B47B
:1005A000B0F19783A81184A50998A383F0DA2408F1
:1005B00044106418D8F1A529557DA58595021A2EF9
:1005C0003A565A4048F9F3A3D9F8F09883240844DE
:1005D0001064189782A8F111F098A22408441064BE
:1005E00018DAF3DED883A59401D9A302F1A2C3C51A
:1005F000C7D8F18492A24DDA2AD84869D92AD86896
:1006000055DA32D85071D932D8705DDA3AD8587983
:10061000D93AD87893A34DDA2AD84869D92AD86824
:1006200055DA32D85071D932D8705DDA3AD8587963
:10063000D93AD878A88A9AF02850789EF38818F189
:100640009F1D98A8D908D8C89F129EF315A8DA1242
:1006500010D8F1AFC8978734B5B994A421F3D92243
:10066000D8F22DF3D92AD8F235F3D932D881A46043
:100670006061D961D86C6869D969D8747071D971B1
:10068000D8B1A384193D5DA3831A3E5E93103081D7
:100690001011B8B0AF8F94F2DA3ED8B49AA8872977
:1006A000DAF8D8879A35DAF8D8879A3DDAF8D8B1E7
:1006B000B9A49885022E56A581000C14A397B08A80
:1006C000F12DD928D84DD948D86DD968D8B1840D25
:1006D000DA0ED8A32983DA2C0ED8A3844983DA2C26
:1006E0004C0ED8B8B0A88A9AF520AADADFD8A8406C
:1006F000AAD0DADED8A860AADAD0DFD8F19786A827
:10070000319B069907AB9728889BF00C201440B8C2
:10071000B0B4A88C9CF0042851791D301438B282F2
:10072000ABD0982C505078789BF11AB0F08A9CA8E6
:100730002951798B2951798A2470598B2058718AD3
:100740004469388B3940688A6448318B304960A5E8
:1007500088200971584468113964493019F1AC0096
:100760002C547CF08CA804285078F1889726A8593E
:1007700098AC8C02264666F0899CA8295179247091
:1007800059446938644831A98809205970AB113837
:100790004069A8193148608CA83C415C207C00F17C
:1007A00087981986A86E767EA999882D557D9EB961
:1007B000A38A228A6E8A568A5E9FB183062646667F
:1007C0000E2E4E6E9DB8AD002C547CF2B18CB499B7
:1007D000B9A32D557D8191AC38AD3AB58391AC2D3F
:1007E000D928D84DD948D86DD968D88C9DAE29D98B
:1007F00004AED851D904AED879D904D881F39DADCF
:10080000008DAE1981ADD901D8F2AEDA26D88E911D
:100810002983A7D9ADADADADF32AD8D8F1B0AC8955
:10082000913E5E76F3AC2E2EF1B18C5A9CAC2C2806
:1008300028289CAC3018A8988128343C9724A728F5
:10084000343C9C24F2B089AC912C4C6C8A9B2DD901
:10085000D8D851D9D8D879D9D8D8F19E88A331DA47
:10086000D8D8912DD928D84DD948D86DD968D8B1C4
:100870008393353D8025DAD8D88569DAD8D8B49302
:1008800081A328343CF3AB8BF8A391B609B4D9AB60
:10089000DEFAB0879CB9A3DDF1A3A3A3A395F1A3CE
:1008A000A3A39DF1A3A3A3A3F2A3B49080F2A3A357
:1008B000A3A3A3A3A3A3A3A3B2A3A3A3A3A3A3B0EC
:1008C00087B599F1A3A3A398F1A3A3A3A397A3A387
:1008D000A3A3F39BA3A3DCB9A7F1262626D8D8FFB0
:1008E00000000000240027002A002900444D502069
:1008F000496E697469616C697A6174696F6E2066AA
:1009000061696C65642028636F64652000444D5004
:10091000207265616479212057616974696E67206E
:10092000666F7220666972737420696E7465727284
:100930007570742E2E2E00456E61626C696E672094
:10094000696E746572727570742064657465637421
:10095000696F6E202841726475696E6F20657874C6
:1009600065726E616C20696E746572727570742048
:1009700030292E2E2E00456E61626C696E67204410
:100980004D502E2E2E00496E697469616C697A692A
:100990006E6720444D502E2E2E004D50553630356A
:1009A0003020636F6E6E656374696F6E2066616977
:1009B0006C6564004D50553630353020636F6E6E77
:1009C000656374696F6E20737563636573736675B1
:1009D0006C000A53656E6420616E792063686172F1
:1009E000616374657220746F20626567696E20446C
:1009F0004D502070726F6772616D6D696E67206116
:100A00006E642064656D6F3A200054657374696E7E
:100A1000672064657669636520636F6E6E656374D5
:100A2000696F6E732E2E2E00496E697469616C6950
:100A30007A696E672049324320646576696365731D
:100A40002E2E2E0000000000250028002B0004049C
:100A50000404040404040202020202020303030366
:100A60000303010204081020408001020408102042
:100A70000102040810200000000800020100000329
:100A8000040700000000000000004649464F206FA8
:100A9000766572666C6F77210000D51411241FBE35
:100AA000CFEFD8E0DEBFCDBF11E0A0E0B1E0E8ECD1
:100AB000F2E302C005900D92A434B107D9F722E009
:100AC000A4E4B1E001C01D92A03CB207E1F715E03B
:100AD000CEE4D5E004C02197FE010E945315CD3429
:100AE000D107C9F70E947F0D0C9462190C94000085
:100AF000FC01918D828D981761F0828DDF01A80F26
:100B0000B11D5D968C91928D9F5F9F73928F90E047
:100B100008958FEF9FEF0895FC01918D828D9817B6
:100B200031F0828DE80FF11D858D90E008958FEFF3
:100B30009FEF0895FC01918D228D892F90E0805CBC
:100B40009F4F821B91098F739927089586E991E041
:100B50000E949A0521E0892B09F420E0822F089554
:100B6000FC01848DDF01A80FB11DA35ABF4F2C914A
:100B7000848D90E001968F739927848FA689B78919
:100B80002C93A089B1898C9180648C93938D848DF2
:100B9000981306C00288F389E02D80818F7D8083C1
:100BA0000895EF92FF920F931F93CF93DF93EC0181
:100BB00081E0888F9B8D8C8D981305C0E889F98919
:100BC000808185FD24C0F62E0B8D10E00F5F1F4F36
:100BD0000F731127E02E8C8DE8120CC00FB607FCA6
:100BE000FACFE889F989808185FFF5CFCE010E948F
:100BF000B005F1CF8B8DFE01E80FF11DE35AFF4FD9
:100C0000F0820B8FEA89FB898081806207C0EE89C0
:100C1000FF896083E889F98980818064808381E02D
:100C200090E0DF91CF911F910F91FF90EF90089589
:100C3000CF93DF93EC01888D8823C9F0EA89FB8983
:100C4000808185FD05C0A889B9898C9186FD0FC07A
:100C50000FB607FCF5CF808185FFF2CFA889B9894F
:100C60008C9185FFEDCFCE010E94B005E7CFDF91DB
:100C7000CF91089580E090E0892B29F00E94A6058D
:100C800081110C94000008953FB7F894809192016F
:100C900090919301A0919401B091950126B5A89BE4
:100CA00005C02F3F19F00196A11DB11D3FBFBA2FFE
:100CB000A92F982F8827820F911DA11DB11DBC015E
:100CC000CD0142E0660F771F881F991F4A95D1F723
:100CD000089508952AEF30E08091BC0087FD03C09D
:100CE00021503109C8F781E0121613060CF080E09C
:100CF000089581E08093480108951F920F920FB6E6
:100D00000F9211242F933F934F935F936F937F9391
:100D10008F939F93AF93BF93EF93FF9386E991E0F7
:100D20000E94B005FF91EF91BF91AF919F918F917C
:100D30007F916F915F914F913F912F910F900FBED7
:100D40000F901F9018951F920F920FB60F921124BB
:100D50002F938F939F93EF93FF93E091A601F091D0
:100D6000A7018081E091AC01F091AD0182FD12C03C
:100D700090818091AF018F5F8F732091B0018217B6
:100D800051F0E091AF01F0E0EA56FE4F958F80936D
:100D9000AF0101C08081FF91EF919F918F912F91C1
:100DA0000F900FBE0F901F9018958F929F92AF9249
:100DB000BF92CF92DF92EF92FF926B017C010E9473
:100DC00044064B015C01C114D104E104F104F1F0CB
:100DD0000E944406DC01CB0188199909AA09BB09C4
:100DE000883E9340A105B10570F321E0C21AD108F5
:100DF000E108F10888EE880E83E0981EA11CB11C62
:100E0000C114D104E104F10419F7DDCFFF90EF9094
:100E1000DF90CF90BF90AF909F908F9008951F92DA
:100E20000F920FB60F9211242F933F938F939F939E
:100E3000AF93BF938091440190914501A0914601E9
:100E4000B09147013091910123E0230F2D3720F419
:100E50000196A11DB11D05C026E8230F0296A11D14
:100E6000B11D209391018093440190934501A0937B
:100E70004601B09347018091920190919301A09116
:100E80009401B09195010196A11DB11D809392012D
:100E900090939301A0939401B0939501BF91AF916A
:100EA0009F918F913F912F910F900FBE0F901F90A8
:100EB00018951F920F920FB60F9211242F933F9304
:100EC0004F935F936F937F938F939F93AF93BF9352
:100ED000EF93FF93E0910201F09103010995FF91D7
:100EE000EF91BF91AF919F918F917F916F915F91A2
:100EF0004F913F912F910F900FBE0F901F9018951B
:100F00001F920F920FB60F9211242F933F934F937E
:100F10005F936F937F938F939F93AF93BF93EF9361
:100F2000FF93E0910001F09101010995FF91EF918C
:100F3000BF91AF919F918F917F916F915F914F91F1
:100F40003F912F910F900FBE0F901F90189584E93D
:100F50008093BC000E946A0691E0892708958093DF
:100F6000BB0084E88093BC000E946A06882339F0A5
:100F70008091B900887F883221F480E0089581E073
:100F8000089582E008950F931F93CF93DF93D82F96
:100F9000DD0FC3E014EB04E81093BC000E946A0666
:100FA0008823B9F09091B900987F983011F0903172
:100FB00091F4D093BB000093BC000E946A06882382
:100FC00061F09091B900987F903259F4C15021F7A7
:100FD00006C081E009C082E007C083E005C084E06C
:100FE00003C09831E1F780E0DF91CF911F910F911D
:100FF0000895CF93DF9300D0CDB7DEB74A836983DE
:101000000E94C3076981862F0E94AF074A81842FFF
:101010000E94AF070E94A70781E00F900F90DF9119
:10102000CF9108953F924F925F926F927F928F92ED
:101030009F92AF92BF92CF92DF92EF92FF920F9367
:101040001F93CF93DF93C62ED42F79019FB7F894C7
:1010500040904401509045016090460170904701D6
:101060009FBFC82FCC0F43E0D42E54EBB52E64E8BD
:10107000A62EB092BC000E946A06882319F18091C6
:10108000B900887F883011F08031E1F4C093BB0053
:10109000A092BC000E946A068823A1F08091B9004A
:1010A000887F803221F4DA94D110E3CF0BC08831ED
:1010B00049F4C092BB0084E88093BC000E946A0699
:1010C000811148C08FEF1FC08091BB00F601819352
:1010D0006F01FFEFEF1AFF0AE814F90409F47BC06F
:1010E000EA14FB0409F074C0C093BC000E946A06B5
:1010F000882341F38091B900982F907F903521F398
:10110000887F01F78D2F0115110509F467C09FB77E
:10111000F8944091440150914501609146017091CD
:1011200047019FBF441955096609770920E030E05F
:10113000401751076207730708F450C04D2F50E065
:10114000282F082E000C330B241735070CF046C04F
:101150008FEF44C08091B900887F883209F0B2CF08
:1011600093E0D92E24EBC22EC16034E8B32EC09296
:10117000BC000E946A06882309F4A4CF9091B900AC
:10118000987F983019F0903109F09CCFC093BB0044
:10119000B092BC000E946A06882309F493CF909114
:1011A000B900987F983421F4DA94D110E0CF8ACF37
:1011B000903409F087CF67018D2E912CE12CF12C12
:1011C000540181E0A81AB10884EC382EC4E884CF19
:1011D0003092BC008BCF0E94A70794CFDF91CF91B4
:1011E0001F910F91FF90EF90DF90CF90BF90AF9045
:1011F0009F908F907F906F905F904F903F90089559
:10120000BF92CF92DF92EF92FF920F931F93CF93F3
:10121000DF931F92CDB7DEB7F82EE62EC42EB22E86
:10122000D02E08EE13E09E012F5F3F4F41E00E9459
:101230001208882321F1EC2DF0E0EB19F109319629
:1012400021E030E002C0220F331FBA94E2F72150B0
:1012500031090E2E01C0220F0A94EAF78D2D01C02C
:10126000880FEA95EAF7422F409599814923282370
:10127000422B49836E2D8F2D0E94F90701C080E01B
:101280000F90DF91CF911F910F91FF90EF90DF9022
:10129000CF90BF900895CF92DF92EF92FF920F937D
:1012A0001F93CF93DF931F92CDB7DEB7F82EE62EB4
:1012B000D42EC22E08EE13E09E012F5F3F4F41E077
:1012C0000E9412089981CC2041F041E050E001C019
:1012D000440FDA94EAF7492B09C021E030E0A90174
:1012E00001C0440FDA94EAF74095492349836E2DF3
:1012F0008F2D0E94F9070F90DF91CF911F910F91D1
:10130000FF90EF90DF90CF9008954F925F926F9291
:101310007F928F929F92AF92BF92CF92DF92EF9285
:10132000FF920F931F93CF93DF93CDB7DEB76897EC
:101330000FB6F894DEBF0FBECDBF8C01FB018BA5AD
:101340009CA5ADA5BEA58D879E87AF87B88B8FA5C1
:1013500098A9A9A9BAA9898B9A8BAB8BBC8B8BA9AD
:101360009CA9ADA9BEA98D8B9E8BAF8BB88F8FA882
:1013700098ACA9ACBAACC080D180E280F380848103
:101380009581A681B78189839A83AB83BC8380854D
:101390009185A285B3858D839E83AF83B88784852D
:1013A0009585A685B78589879A87AB87BC872D8564
:1013B0003E854F855889C701B6010E944B182B0105
:1013C0003C0129893A894B895C8969817A818B81C1
:1013D0009C810E944B189B01AC01C301B2010E9489
:1013E00059152B013C012D893E894F89588D6D81FE
:1013F0007E818F8198850E944B189B01AC01C301AF
:10140000B2010E9459152B013C01A5019401698587
:101410007A858B859C850E944B189B01AC01C3018A
:10142000B2010E945915D8016D937D938D939C93C1
:10143000139729893A894B895C89C701B6010E94B3
:101440004B182B013C012D853E854F8558896981BC
:101450007A818B819C810E944B189B01AC01C30156
:10146000B2010E945A152B013C01A50194016D8126
:101470007E818F8198850E944B189B01AC01C3012E
:10148000B2010E945A152B013C012D893E894F89DA
:10149000588D69857A858B859C850E944B189B01A8
:1014A000AC01C301B2010E945915F8016483758330
:1014B000868397832D893E894F89588DC701B60150
:1014C0000E944B182B013C01A501940169817A818E
:1014D0008B819C810E944B189B01AC01C301B2011E
:1014E0000E9459152B013C012D853E854F85588959
:1014F0006D817E818F8198850E944B189B01AC0184
:10150000C301B2010E945A152B013C0129893A8975
:101510004B895C8969857A858B859C850E944B18EF
:101520009B01AC01C301B2010E945A15D801189663
:101530006D937D938D939C931B97A5019401C70197
:10154000B6010E944B186B017C012D893E894F89A1
:10155000588D69817A818B819C810E944B189B01F7
:10156000AC01C701B6010E945A156B017C012989A3
:101570003A894B895C896D817E818F8198850E9433
:101580004B189B01AC01C701B6010E9459156B01B4
:101590007C012D853E854F85588969857A858B85A7
:1015A0009C850E944B189B01AC01C701B6010E94AB
:1015B0005A15F8016487758786879787C8016896EA
:1015C0000FB6F894DEBF0FBECDBFDF91CF911F9154
:1015D0000F91FF90EF90DF90CF90BF90AF909F90D2
:1015E0008F907F906F905F904F900895CF92DF9291
:1015F000EF92FF920F931F93CF93DF936C017A01C9
:101600008B01C0E0D0E0CE15DF0589F0D8016D91E7
:101610008D01D601ED91FC910190F081E02DC60184
:101620000995892B11F47E0102C02196ECCFC701E8
:10163000DF91CF911F910F91FF90EF90DF90CF90AE
:1016400008950E94F317E6E9F1E0A089B18982E0EC
:101650008C93A485B5851C92A685B78580E18C9373
:10166000108EA489B58986E08C93A289B3898C9168
:1016700080618C93A289B3898C9188608C93A289B4
:10168000B3898C9180688C930288F389E02D8081E6
:101690008F7D808308950F931F93CF93DF93C7E9C6
:1016A000D2E008EE13E028E932E041E06AE3888105
:1016B0000E9412088981DF91CF911F910F910895A7
:1016C00021E042E06AE6809197020C944B09482F92
:1016D0006EE6809197020C94F9072F923F924F92F9
:1016E0005F926F927F928F929F92AF92BF92CF92B2
:1016F000DF92EF92FF920F931F93CF93DF933C0102
:101700005B01342ED22F202E4F716DE6809197020F
:101710000E94F9078D2F0E94670B80E190E00E94E4
:10172000FC156C01002331F080E190E00E94FC1573
:10173000C82F492EE12CF12CEA14FB0408F07CC0E0
:10174000C7014096A816B90618F45A2C5E1802C0B4
:1017500080E1582E852D90E020E031E02D1B3109ED
:101760002817390714F45D2E5194F301EE0DFF1D77
:10177000222059F09C2FAC2FB42D8A2F891B851560
:1017800030F484918D933196F8CFCE2F4F2E8091E7
:1017900097020E94C3078FE60E94AF071C2F8C2E72
:1017A000942C882D811B851530F4F40181914F0113
:1017B0000E94AF07F6CF0E94A707852C912CC11479
:1017C000D10429F1432D4F716DE6809197020E945B
:1017D000F9078D2F0E94670B08EE13E09601452D47
:1017E0006FE6809197020E941208A401B6018C2F27
:1017F000942D0E94F817892B51F0C6010E94911672
:10180000222021F18C2F942D0E9491161FC0E80CEC
:10181000F91CD50DEA14FB0408F08ECFD11101C0DC
:101820003394432D4F716DE6809197020E94F90722
:101830008D2F0E94670B80CFC6010E949116222037
:1018400039F08C2F942D0E94911602C080E001C0C7
:1018500081E0DF91CF911F910F91FF90EF90DF908A
:10186000CF90BF90AF909F908F907F906F905F9040
:101870004F903F902F9008950F931F93462F08EE9F
:1018800013E09C0164E7809197020E9412081F9167
:101890000F9108950F931F93CF93DF93C7E9D2E081
:1018A00008EE13E028E932E042E062E788810E9416
:1018B0001208898190E0982F88272A81822BDF9156
:1018C000CF911F910F910895EF92FF920F931F9365
:1018D000CF93DF931F92CDB7DEB77A0189019E01C6
:1018E0002F5F3F4F41E00E941208882339F0298181
:1018F0002E7730E035952795F70120830F90DF9103
:10190000CF911F910F91FF90EF9008950F931F9328
:10191000CF93DF938C01C0E0D0E0F801EC0FFD1F06
:101920006491662371F0E0919601F0919701019026
:10193000F081E02D86E991E00995892B11F021963F
:10194000ECCFCE01DF91CF911F910F9108950F93AE
:101950001F93CF93DF931F92CDB7DEB78A016983C0
:101960000E94C3076981862F0E94AF07F801818119
:101970000E94AF07F80180810E94AF07182F0E94D4
:10198000A70781E0111180E00F90DF91CF911F91A7
:101990000F9108956115710579F0FB010190002008
:1019A000E9F73197AF01461B570BDC01ED91FC9134
:1019B0000280F381E02D099480E090E00895CF93B8
:1019C000DF930E94860CEC016BE271E086E991E006
:1019D0000E94CA0C8C0F9D1FDF91CF9108954F92EA
:1019E0005F926F927F92EF92FF920F931F93CF932C
:1019F000DF93CDB7DEB7A1970FB6F894DEBF0FBE69
:101A0000CDBF7C01FA01CB0119A2223008F42AE0F3
:101A10008E010F5D1F4F422E512C612C712CBF0186
:101A2000A30192010E940919F901CA01015011098B
:101A30006A3014F4605D01C0695CD8016C93232B9B
:101A4000242B252B61F7B801C7010E94CA0CA1966F
:101A50000FB6F894DEBF0FBECDBFDF91CF911F91BF
:101A60000F91FF90EF907F906F905F904F9008954F
:101A7000CF92DF92EF92FF92CF93DF936B017C01C5
:101A8000E0919601F09197010190F081E02D6DE2D7
:101A900086E991E00995EC0144275527BA014C19D4
:101AA0005D096E097F092AE086E991E00E94EF0C4A
:101AB0008C0F9D1FDF91CF91FF90EF90DF90CF9023
:101AC0000895CF93DF93AC01990F660B770B77FFE7
:101AD00005C0CB01BA010E94380D05C02AE086E995
:101AE00091E00E94EF0CEC016BE271E086E991E07D
:101AF0000E94CA0C8C0F9D1FDF91CF910895CF9348
:101B0000DF93CDB7DEB7CE5AD1090FB6F894DEBF5A
:101B10000FBECDBF789484B5826084BD84B58160EA
:101B200084BD85B5826085BD85B5816085BD8091A8
:101B30006E00816080936E00109281008091810020
:101B40008260809381008091810081608093810018
:101B5000809180008160809380008091B1008460DA
:101B60008093B1008091B00081608093B00080913B
:101B70007A00846080937A0080917A0082608093FA
:101B80007A0080917A00816080937A0080917A0057
:101B9000806880937A001092C100109277021092B0
:101BA00078021092790210927A0210923502109205
:101BB0003602109237021092380260ED77E080E032
:101BC00090E00E94D50686E991E09093760280939A
:101BD00075020E94230B2FB7F894809144019091D5
:101BE0004501A0914601B09147012FBF8093350276
:101BF00090933602A0933702B09338026CE171E003
:101C000080917502909176020E94CA0C6AE070E0A1
:101C100080E090E00E94D50681E080934902109216
:101C2000BC0088B1806388B91092B9008CE08093C1
:101C3000B80084E08093BC000E94230B88E29AE005
:101C40000E94DF0C01E023E042E06BE68091970206
:101C50000E94000900E022E044E06BE180919702DD
:101C60000E94000922E044E06CE1809197020E940A
:101C7000000920E046E06BE6809197020E944B0944
:101C80008AE09AE00E94DF0C28EE33E048E952E057
:101C900065E7809197020E94640C0091980210E021
:101CA0006EE271E086E991E00E94CA0CC8010E94D0
:101CB000610D0833110519F08AE999E002C084EB3F
:101CC00099E00E94DF0C82ED99E00E94DF0C86E92A
:101CD00091E00E949A05892B31F086E991E00E94FB
:101CE0007805892BA1F786E991E00E949A05892B56
:101CF000D1F386E991E00E949A05892B31F086E9BB
:101D000091E00E947805892BA1F786E899E00E946E
:101D1000DF0C21E047E06BE6809197020E944B09BF
:101D20006EE170E080E090E00E94D50620E046E0A1
:101D30006BE6809197020E944B0940E76DE6809127
:101D400097020E94F90786E00E94670B08EE13E0F5
:101D500028E932E041E06FE6809197020E94120884
:101D600040E06DE6809197020E94F9079E012F5F87
:101D70003F4F41E060E0809197020E941208898104
:101D800081708093980228EE33E048E952E060E0E9
:101D9000809197020E94640C7090980228EE33E0C4
:101DA00048E952E061E0809197020E94640C9090B3
:101DB000980228EE33E048E952E062E08091970211
:101DC0000E94640CA09098024FE765E28091970210
:101DD0000E94F90720E045E06AE6809197020E94A0
:101DE0004B0948E665E2809197020E94F90721E0DD
:101DF00041E06AE6809197020E944B0964E170E03D
:101E000080E090E00E94D50601E020E040E069E833
:101E100077E087E591E00E946D0B882309F496C373
:101E200088E090E00E94FC15B82E192FE12CF12CCF
:101E3000F701E956FF4F4491F701E856FF4F24910F
:101E4000670183E0C80ED11CF701E756FF4FE4910C
:101E5000EE23D1F1EE2EF12CE330D8F0B7018B2D2B
:101E6000912FC255DF4F2883CE5AD040C355DF4F44
:101E70004883CD5AD0400E942917B82E192FC35538
:101E8000DF4F4881CD5AD040C255DF4F2881CE5A0E
:101E9000D040AB2DB12F80E090E08E159F0548F427
:101EA000F601E80FF91FE956FF4FE491ED93019613
:101EB000F4CF00E0B7018B2D912F0E946D0BEC0C3D
:101EC000FD1C811117C010C094E0E90EF11CF60151
:101ED000E956FF4FE491E13039F442E368E3809141
:101EE00097020E94F90706C08B2D912F0E94911630
:101EF00012E066C2A0ECEA16F10408F499CF8B2D2B
:101F0000912F0E94911603E023E042E06BE680915E
:101F100097020E94000942E168E3809197020E94C3
:101F2000F90744E069E1809197020E94F90701E016
:101F300023E045E06AE1809197020E94000903E0F6
:101F400023E042E06AE1809197020E94000922E0CA
:101F500044E06BE1809197020E94000943E060E752
:101F6000809197020E94F90740E061E78091970213
:101F70000E94F90720E040E060E0809197020E9413
:101F80004B09072D26E046E060E0809197020E9411
:101F90000009092D26E046E061E0809197020E9449
:101FA00000090A2D26E046E062E0809197020E9437
:101FB0000009E12CF12CF701E859FF4FE491A1E869
:101FC000B0E0AC0FBD1FAE0DB11DEC9381E08E0DE6
:101FD000BFEFEB1AFB0AE3E0EE1568F7CD57DF4FD2
:101FE0006881C358D04070E09B012E5F3F4F90E066
:101FF0002817390704F700E0CE57DF4F2881C25871
:10200000D040CF57DF4F4881C158D04081E890E0A1
:102010008C0F9D1F03960E946D0B80E0F701E8591D
:10202000FF4FE491A1E8B0E0AC0FBD1FA80FB11DB8
:10203000EC938F5FFFEFEF1AFF0A843078F3CD57F0
:10204000DF4F6881C358D04070E0AB014E5F5F4FF7
:10205000282F30E0421753070CF700E0CE57DF4F30
:102060002881C258D040CF57DF4F4881C158D04057
:1020700081E890E08C0F9D1F03960E946D0B0E94DB
:10208000600B0E944A0C682FCE0101960E943C0C06
:1020900042E06FE1809197020E94F9074CE961E20A
:1020A000809197020E94F90740E560E280919702D3
:1020B0000E94F90740E062E2809197020E94F907CE
:1020C0000E94600B21E046E06AE6809197020E9440
:1020D0004B0921E047E06AE6809197020E944B0994
:1020E00021E043E06AE6809197020E944B0980E07C
:1020F000F701E859FF4FE491A1E8B0E0AC0FBD1F34
:10210000A80FB11DEC938F5F2FEFE21AF20A843013
:1021100078F3CD57DF4F6881C358D04070E0AB01F2
:102120004E5F5F4F282F30E0421753070CF700E057
:10213000CE57DF4F2881C258D040CF57DF4F48815C
:10214000C158D04081E890E08C0F9D1F03960E94FB
:102150006D0B80E0F701E859FF4FE491A1E8B0E092
:10216000AC0FBD1FA80FB11DEC938F5F9FEFE91A55
:10217000F90A843078F3CD57DF4F6881C358D040D7
:1021800070E0AB014E5F5F4F282F30E042175307DE
:102190000CF700E0CE57DF4F2881C258D040CF5710
:1021A000DF4F4881C158D04081E890E08C0F9D1FDF
:1021B00003960E946D0B80E0F701E859FF4FE49110
:1021C000A1E8B0E0AC0FBD1FA80FB11DEC938F5F6D
:1021D000AFEFEA1AFA0A843078F3CD57DF4F6881FF
:1021E000C358D04070E0AB014E5F5F4F282F30E006
:1021F000421753070CF700E0CE57DF4F2881C25833
:10220000D040CF57DF4F4881C158D04081E890E09F
:102210008C0F9D1F03960E946D0B0E944A0C833009
:102220009105D8F3682FCE0101960E943C0C0E94C4
:102230004B0B80E0F701E859FF4FE491A1E8B0E0D3
:10224000AC0FBD1FA80FB11DEC938F5FBFEFEB1A52
:10225000FB0A843078F3CD57DF4F9880C358D040C5
:10226000692C712CA3014E5F5F4F282F30E042177D
:10227000530704F7CE57DF4FB880C258D040CF572E
:10228000DF4F8880C158D040482D4F716DE6809156
:1022900097020E94F9078B2D0E94670BC12CD12C4D
:1022A000412C5524539481E8282E312C2C0E3D1EB0
:1022B000E3E02E0E311CC614D70498F5C6014096F3
:1022C0006816790618F4A92CAC1802C010E1A12EEA
:1022D0008A2D90E092012B1931092817390714F43F
:1022E000AB2CA19491012C0D3D1D08EE13E04A2D5D
:1022F0006FE6809197020E941208CA0CD11CBA0C9A
:10230000C614D704C0F6B11001C08394482D4F7194
:102310006DE6809197020E94F9078B2D0E94670B52
:10232000CACF0E944A0C83309105D8F3682FCE01A2
:1023300001960E943C0C0E944B0BF701E859FF4F9D
:1023400080E09491A1E8B0E0AC0FBD1FA80FB11DD3
:102350009C938F5F843010F43196F3CFCD57DF4FCD
:102360006881C358D04070E0AB014E5F5F4F282FAB
:1023700030E04217530784F700E0CE57DF4F288143
:10238000C258D040CF57DF4F4881C158D04081E874
:1023900090E08C0F9D1F03960E946D0B20E047E09C
:1023A0006AE6809197020E944B098AE290E090933E
:1023B0009A02809399020E94600B0E944B0B10E0DE
:1023C0001093490180919702C956DF4F19821882F4
:1023D000C759D040AE0149565F4F63E10E94A70C38
:1023E00080919702CB56DF4F19821882C559D04091
:1023F000AE014B565F4F65E10E94A70C809197029A
:10240000CD56DF4F19821882C359D040AE014D56C8
:102410005F4F67E10E94A70C80919702CF56DF4F74
:1024200019821882C159D040AE014F565F4F6AE001
:102430000E94A70C11112FC086E799E00E94DF0CC3
:1024400021E047E06AE6809197020E944B0987E30A
:1024500099E00E94DF0C89E796E090930101809358
:10246000000180916900836080936900E89A0E946E
:102470004B0B80938B018DE099E00E94DF0C81E093
:10248000809390018091990290919A0290938D018E
:1024900080938C0112C08CEE98E00E94860C4091D3
:1024A000490150E060E070E02AE086E991E00E9496
:1024B000EF0C8AEE98E00E94DF0CEFE6FAE0249140
:1024C000EBE5FAE08491882399F090E0880F991F5A
:1024D000FC01E052F74FA591B491FC01EC5BF54F84
:1024E000859194918FB7F8949C91292B2C938FBF51
:1024F00080919001882339F120918E0130918F01D4
:1025000080918C0190918D0140914801411103C04F
:1025100028173907C8F3109248010E944B0B182F57
:1025200080938B010E944A0C90938F0180938E01BF
:1025300014FD03C08115944059F40E94600B8AE891
:102540009AE00E94DF0C0E943A06D2CF11E038CF09
:1025500011FFF9CF00918E0110918F01E0908C0155
:10256000F0908D010E151F0538F40E944A0C9093CF
:102570008F0180938E01EECF6E2D8BE491E00E944F
:102580003C0C0E191F0910938F0100938E01C0900F
:102590004F01D12CDC2CCC2480915001C80ED11CD1
:1025A000E0905301F12CFE2CEE2480915401E80EB2
:1025B000F11C0091570110E0102F00278091580165
:1025C000080F111D60914B0170E0762F66278091F6
:1025D0004C01680F711D072E000C880B990B0E948F
:1025E000101820E030E040E858E30E944B18C7552F
:1025F000DF4F688379838A839B83C95AD040609375
:102600008702709388028093890290938A02B601B0
:10261000DD0C880B990B0E94101820E030E040E898
:1026200058E30E944B182B013C0160938B0270937E
:102630008C0280938D0290938E02B701FF0C880B61
:10264000990B0E94101820E030E040E858E30E9407
:102650004B186B017C0160938F0270939002809302
:10266000910290939202B801110F880B990B0E946E
:10267000101820E030E040E858E30E944B184B016E
:102680005C016093930270939402809395029093FF
:1026900096026091670170E0762F6627809168014D
:1026A000680F711D709382026093810200916B012B
:1026B00010E0102F002780916C01080F111D10935E
:1026C00084020093830220906F01312C322C22244B
:1026D00080917001280E311C309286022092850272
:1026E000E1E8F2E0ABE7B2E086E001900D928A9576
:1026F000E1F7CF57DF4F188219821A821B82C15827
:10270000D040072E000C880B990B0E941018CB5755
:10271000DF4F688379838A839B83C558D040B80193
:10272000110F880B990B0E941018C757DF4F688351
:1027300079838A839B83C958D040B101330C880BBD
:10274000990B0E941018C357DF4F688379838A83DF
:102750009B83CD58D0408DB79EB740970FB6F89465
:102760009EBF0FBE8DBFADB7BEB71196FE01EF572E
:10277000FF4F80E101900D928A95E1F767E872E0E2
:10278000CE0187569F4F0E948509FE01E756FF4FF5
:10279000DE01AF57BF4F80E101900D928A95E1F7BE
:1027A000C755DF4F88819981AA81BB81C95AD04022
:1027B00089839A83AB83BC8377FA709477F870949B
:1027C0004D825E826F827886F7FAF094F7F8F09483
:1027D000C986DA86EB86FC86D501C401B0588D87A0
:1027E0009E87AF87B88BADB7BEB750970FB6F8943A
:1027F000BEBF0FBEADBF1196FE01319680E10190C4
:102800000D928A95E1F7BE016F577F4FCE01875633
:102810009F4F0E948509FE01E756FF4FDE01AF572B
:10282000BF4F80E101900D928A95E1F7CB57DF4FC2
:10283000688179818A819B81C558D0400E94C615E4
:1028400070937C0260937B02C757DF4F6881798168
:102850008A819B81C958D0400E94C61570937E0220
:1028600060937D02C357DF4F688179818A819B81A4
:10287000CD58D0400E94C6157093800260937F02AD
:102880000FB6F894DEBF0FBECDBF68E371E086E9F6
:1028900091E00E94CA0C40917B0250917C02052E6F
:1028A000000C660B770B77FF05C0CB01BA010E94C5
:1028B000380D05C02AE086E991E00E94EF0C62E441
:1028C00071E086E991E00E94CA0C40917D0250912E
:1028D0007E02052E000C660B770B77FF05C0CB013F
:1028E000BA010E94380D05C02AE086E991E00E94F5
:1028F000EF0C62E471E086E991E00E94CA0C8091DD
:102900007F02909180020E94610D20914A01F1E0C6
:102910002F2720934A01E3E8FAE09491EFE6FAE0EA
:102920008491EBE5FAE03491332309F40CCE99233A
:1029300039F1933091F038F49130A9F0923001F5EB
:1029400094B59F7D12C0973091F09830A1F09430EB
:10295000B9F4909180009F7D03C0909180009F7793
:10296000909380000DC094B59F7794BD09C090915D
:10297000B0009F7703C09091B0009F7D9093B0000E
:10298000E32FF0E0EE0FFF1FEC5BF54FA591B49144
:102990009FB7F894211104C02C918095822302C026
:1029A0002C91822B8C939FBFCECDE6E9F1E0138270
:1029B000128288EE93E0A0E0B0E084839583A68342
:1029C000B78380E191E09183808385EC90E09587E7
:1029D000848784EC90E09787868780EC90E0918BE9
:1029E000808B81EC90E0938B828B82EC90E0958BD6
:1029F000848B86EC90E0978B868B118E128E138ED3
:102A0000148EE3E3F2E01682178210861186128696
:102A100013861486158616861786108A118A128ADE
:102A2000138A148A158A88E680939702E7E8F2E011
:102A300080E090E0A0E8BFE380839183A283B3832A
:102A400014821582168217821086118612861386CA
:102A50001486158616861786E1E8F2E01182108248
:102A60001382128215821482E6EBF2E01182108248
:102A70001382128215821482EBE7F2E01182108237
:102A80001382128215821482EAEAF2E01082118225
:102A90001282138214821582168217821086118682
:102AA000128613860895EE0FFF1F0590F491E02D16
:102AB00009945058BB27AA270E9471150C94CF186F
:102AC0000E94C11838F00E94C81820F039F49F3FC6
:102AD00019F426F40C94BE180EF4E095E7FB0C9460
:102AE000B818E92F0E94E01858F3BA176207730765
:102AF0008407950720F079F4A6F50C9402190EF4DA
:102B0000E0950B2EBA2FA02D0B01B90190010C01FD
:102B1000CA01A0011124FF27591B99F0593F50F415
:102B2000503E68F11A16F040A22F232F342F44276D
:102B3000585FF3CF469537952795A795F040539565
:102B4000C9F77EF41F16BA0B620B730B840BBAF035
:102B50009150A1F0FF0FBB1F661F771F881FC2F7A0
:102B60000EC0BA0F621F731F841F48F487957795B4
:102B70006795B795F7959E3F08F0B0CF9395880F6E
:102B800008F09927EE0F9795879508950E94CD1527
:102B90006894B1110C94031908950E94E81888F004
:102BA0009F5798F0B92F9927B751B0F0E1F0660F11
:102BB000771F881F991F1AF0BA95C9F714C0B13052
:102BC00091F00E940219B1E008950C940219672F48
:102BD000782F8827B85F39F0B93FCCF38695779581
:102BE0006795B395D9F73EF490958095709561956A
:102BF0007F4F8F4F9F4F0895CF93DF938230910582
:102C000010F482E090E0E091BE02F091BF0220E07B
:102C100030E0C0E0D0E0309711F140815181481799
:102C20005907C0F04817590761F4828193812097B2
:102C300019F09B838A832BC09093BF028093BE02BE
:102C400026C02115310519F04217530718F49A01CF
:102C5000BE01DF01EF010280F381E02DDCCF211501
:102C6000310509F1281B390B2430310590F41296F7
:102C70008D919C9113976115710521F0FB01938350
:102C8000828304C09093BF028093BE02FD013296FE
:102C900044C0FD01E20FF31F81939193225031094B
:102CA0002D933C933AC02091BC023091BD02232B5E
:102CB00041F420910601309107013093BD02209329
:102CC000BC0220910401309105012115310541F428
:102CD0002DB73EB74091080150910901241B350BD7
:102CE000E091BC02F091BD02E217F307A0F42E1BA5
:102CF0003F0B2817390778F0AC014E5F5F4F241760
:102D0000350748F04E0F5F1F5093BD024093BC0241
:102D10008193919302C0E0E0F0E0CF01DF91CF9189
:102D200008950F931F93CF93DF93009709F48CC0FE
:102D3000FC013297138212820091BE021091BF02F1
:102D40000115110581F420813181820F931F20919B
:102D5000BC023091BD022817390779F5F093BD0206
:102D6000E093BC0271C0D80140E050E0AE17BF074D
:102D700050F412962D913C911397AD012115310518
:102D800009F1D901F3CF9D01DA01338322836081F8
:102D90007181860F971F8217930769F4EC012881D0
:102DA0003981260F371F2E5F3F4F318320838A8161
:102DB0009B8193838283452B29F4F093BF02E09398
:102DC000BE0242C01396FC93EE931297ED01499117
:102DD00059919E01240F351FE217F30771F480818A
:102DE0009181840F951F029611969C938E938281F8
:102DF000938113969C938E931297E0E0F0E0D801B4
:102E000012968D919C911397009719F0F8018C01FF
:102E1000F6CF8D919C9198012E5F3F4F820F931FAB
:102E20002091BC023091BD022817390769F4309710
:102E300029F41092BF021092BE0202C013821282C5
:102E40001093BD020093BC02DF91CF911F910F91AF
:102E50000895A0E0B0E0EFE2F7E10C942F19EC0147
:102E6000009721F4CB010E94FC15B8C0FC01E60FCD
:102E7000F71F9C0122503109E217F30708F4ACC098
:102E8000D9010D911C91119706171707B0F0053065
:102E9000110508F49FC0C80104978617970708F426
:102EA00099C002501109061B170B019311936D93E2
:102EB0007C93CF010E9491168DC05B01A01AB10ACC
:102EC0004C01800E911EA091BE02B091BF0240E065
:102ED00050E0E12CF12C109709F44AC0A815B9056F
:102EE000D1F56D907C901197630182E0C80ED11CE2
:102EF000CA14DB0480F1A3014A195B096A0182E06C
:102F0000C80ED11C1296BC9012971396AC91B5E0E6
:102F1000CB16D10440F0B282A38351834083D90100
:102F20006D937C930AC00E5F1F4FC301800F911FEA
:102F3000F90191838083EB2DFA2FE114F10431F034
:102F4000D7011396FC93EE93129744C0F093BF02FF
:102F5000E093BE023FC08D919C911197481759078D
:102F600008F4AC017D0112960D90BC91A02DB3CF59
:102F70008091BC029091BD0288159905E1F4461735
:102F80005707C8F48091040190910501009741F41E
:102F90008DB79EB74091080150910901841B950B94
:102FA000E817F907C8F4F093BD02E093BC02F901F9
:102FB000718360830FC0CB010E94FC157C010097D8
:102FC00059F0A801BE010E940518CE010E94911679
:102FD000C70104C0CE0102C080E090E0CDB7DEB7EB
:102FE000EEE00C944B1981E090E0F8940C94621997
:102FF000FB01DC0104C08D910190801921F4415046
:103000005040C8F7881B990B0895FB01DC0102C0F2
:1030100001900D9241505040D8F70895E89409C0AE
:1030200097FB3EF490958095709561957F4F8F4FFB
:103030009F4F9923A9F0F92F96E9BB279395F69511
:10304000879577956795B795F111F8CFFAF4BB0F8F
:1030500011F460FF1BC06F5F7F4F8F4F9F4F16C0F3
:10306000882311F096E911C0772321F09EE8872F7D
:10307000762F05C0662371F096E8862F70E060E039
:103080002AF09A95660F771F881FDAF7880F9695B2
:10309000879597F908950E945E180C94CF180E94A6
:1030A000C11838F00E94C81820F0952311F00C9434
:1030B000B8180C94BE1811240C9403190E94E0183F
:1030C00070F3959FC1F3950F50E0551F629FF0017B
:1030D000729FBB27F00DB11D639FAA27F00DB11D94
:1030E000AA1F649F6627B00DA11D661F829F22271D
:1030F000B00DA11D621F739FB00DA11D621F839FA4
:10310000A00D611D221F749F3327A00D611D231F79
:10311000849F600D211D822F762F6A2F11249F57C7
:1031200050409AF0F1F088234AF0EE0FFF1FBB1FCA
:10313000661F771F881F91505040A9F79E3F510589
:1031400080F00C94B8180C9403195F3FE4F3983E98
:10315000D4F3869577956795B795F795E7959F5F33
:10316000C1F7FE2B880F911D9695879597F90895C5
:1031700097F99F6780E870E060E008959FEF80EC2A
:10318000089500240A9416161706180609060895CD
:1031900000240A9412161306140605060895092E33
:1031A0000394000C11F4882352F0BB0F40F4BF2BA2
:1031B00011F460FF04C06F5F7F4F8F4F9F4F0895E2
:1031C00057FD9058440F551F59F05F3F71F04795D8
:1031D000880F97FB991F61F09F3F79F087950895BD
:1031E000121613061406551FF2CF4695F1DF08C0DC
:1031F000161617061806991FF1CF869571056105F9
:1032000008940895E894BB2766277727CB0197F9A0
:103210000895A1E21A2EAA1BBB1BFD010DC0AA1F17
:10322000BB1FEE1FFF1FA217B307E407F50720F02F
:10323000A21BB30BE40BF50B661F771F881F991FAA
:103240001A9469F760957095809590959B01AC01F3
:10325000BD01CF0108952F923F924F925F926F92DE
:103260007F928F929F92AF92BF92CF92DF92EF9216
:10327000FF920F931F93CF93DF93CDB7DEB7CA1B97
:10328000DB0B0FB6F894DEBF0FBECDBF09942A88C2
:10329000398848885F846E847D848C849B84AA846A
:1032A000B984C884DF80EE80FD800C811B81AA81F7
:1032B000B981CE0FD11D0FB6F894DEBF0FBECDBFC2
:0832C000ED010895F894FFCF21
:1032C800690669060000C0028000E80300000000EB
:1032D800D105F60A9A0578058C051806564D44500E
:1032E800565F317C315F564D4450560D0A00646577
:1032F800766963654964200061776F726C64206148
:0433080062730900E3
:107E0000112484B714BE81FFF0D085E080938100F7
:107E100082E08093C00088E18093C10086E0809377
:107E2000C20080E18093C4008EE0C9D0259A86E02C
:107E300020E33CEF91E0309385002093840096BBD3
:107E4000B09BFECF1D9AA8958150A9F7CC24DD24C4
:107E500088248394B5E0AB2EA1E19A2EF3E0BF2EE7
:107E6000A2D0813461F49FD0082FAFD0023811F036
:107E7000013811F484E001C083E08DD089C08234E0
:107E800011F484E103C0853419F485E0A6D080C0E4
:107E9000853579F488D0E82EFF2485D0082F10E0AE
:107EA000102F00270E291F29000F111F8ED06801E7
:107EB0006FC0863521F484E090D080E0DECF843638
:107EC00009F040C070D06FD0082F6DD080E0C81688
:107ED00080E7D80618F4F601B7BEE895C0E0D1E017
:107EE00062D089930C17E1F7F0E0CF16F0E7DF06D8
:107EF00018F0F601B7BEE89568D007B600FCFDCFD4
:107F0000A601A0E0B1E02C9130E011968C91119780
:107F100090E0982F8827822B932B1296FA010C0160
:107F200087BEE89511244E5F5F4FF1E0A038BF0790
:107F300051F7F601A7BEE89507B600FCFDCF97BE46
:107F4000E89526C08437B1F42ED02DD0F82E2BD052
:107F50003CD0F601EF2C8F010F5F1F4F84911BD097
:107F6000EA94F801C1F70894C11CD11CFA94CF0C13
:107F7000D11C0EC0853739F428D08EE10CD085E9AC
:107F80000AD08FE07ACF813511F488E018D01DD067
:107F900080E101D065CF982F8091C00085FFFCCF94
:107FA0009093C60008958091C00087FFFCCF809118
:107FB000C00084FD01C0A8958091C6000895E0E648
:107FC000F0E098E1908380830895EDDF803219F02E
:107FD00088E0F5DFFFCF84E1DECF1F93182FE3DFCA
:107FE0001150E9F7F2DF1F91089580E0E8DFEE27F6
:047FF000FF270994CA
:027FFE00040479
:0400000300007E007B
:00000001FF