:100000000C9458000C9480000C9480000C94800098
:100010000C9480000C9480000C9480000C94800060
:100020000C9480000C9480000C9480000C94800050
:100030000C9480000C9480000C9480000C94800040
:100040000C949B040C9480000C9469040C9443045D
:100050000C9480000C9480000C9480000C94800020
:100060000C94E5040C94800000000000250028009A
:100070002B00040404040404040402020202020229
:10008000030303030303010204081020408001025C
:1000900004081020010204081020000000080002DB
:1000A0000100000304070000000000000000130628
:1000B00011241FBECFEFD8E0DEBFCDBF11E0A0E01E
:1000C000B1E0ECE3F7E102C005900D92A837B1076B
:1000D000D9F722E0A8E7B1E001C01D92A63EB20721
:1000E000E1F710E0C8E5D0E004C02197FE010E94CE
:1000F0005509C735D107C9F70E944C060C949C0BD3
:100100000C940000382F20913C0290913B02213248
:1001100008F049C0809118028111FCCF42E0409361
:100120001802309317023FEF309316021092150217
:1001300020931402ABE1B2E044EF51E0FA013E2F0C
:10014000341B321718F43D913193F9CF1092F3011B
:100150002091F301990F922B9093F3019091F2016A
:10016000913061F41092F2019091F3019093BB00F1
:100170009091BC0093FDF8CF95EC01C095EE909363
:10018000BC00909118029230E1F3909116029F3FCB
:1001900079F080911602803241F08091160280330E
:1001A00031F084E005C081E003C082E001C083E05B
:1001B00010921A0210923C0210921902089590E0D7
:1001C000FC01E656FF4F2491FC01EA57FF4F3491A2
:1001D000FC01EE58FF4FE491EE23B1F1222339F1F7
:1001E000233091F038F42130A9F0223001F584B5A4
:1001F0008F7D12C0273091F02830A1F02430B9F45F
:10020000809180008F7D03C0809180008F778093E4
:1002100080000DC084B58F7784BD09C08091B00087
:100220008F7703C08091B0008F7D8093B000F0E0A5
:10023000EE0FFF1FE859FF4FA591B4918FB7F894C7
:10024000EC913E2B3C938FBF0895CF92DF92EF92BB
:10025000FF920F931F93CF93DF936C017A018B0171
:10026000C0E0D0E0CE15DF0589F0D8016D918D0199
:10027000D601ED91FC910190F081E02DC601099528
:10028000892B11F47E0102C02196ECCFC701DF91CA
:10029000CF911F910F91FF90EF90DF90CF90089535
:1002A000FC01918D828D981761F0828DDF01A80F7E
:1002B000B11D5D968C91928D9F5F9F73928F90E0A0
:1002C00008958FEF9FEF0895FC01918D828D98170F
:1002D00031F0828DE80FF11D858D90E008958FEF4C
:1002E0009FEF0895FC01918D228D892F90E0805C15
:1002F0009F4F821B91098F73992708958DE392E098
:100300000E94720121E0892B09F420E0822F0895D8
:10031000FC01848DDF01A80FB11DA35ABF4F2C91A2
:10032000848D90E001968F739927848FA689B78971
:100330002C93A089B1898C9180648C93938D848D4A
:10034000981306C00288F389E02D80818F7D808319
:100350000895EF92FF920F931F93CF93DF93EC01D9
:1003600081E0888F9B8D8C8D981305C0E889F98971
:10037000808185FD24C0F62E0B8D10E00F5F1F4F8E
:100380000F731127E02E8C8DE8120CC00FB607FCFE
:10039000FACFE889F989808185FFF5CFCE010E94E7
:1003A0008801F1CF8B8DFE01E80FF11DE35AFF4F5D
:1003B000F0820B8FEA89FB898081806207C0EE8919
:1003C000FF896083E889F98980818064808381E086
:1003D00090E0DF91CF911F910F91FF90EF900895E2
:1003E000CF93DF93EC01888D8823C9F0EA89FB89DC
:1003F000808185FD05C0A889B9898C9186FD0FC0D3
:100400000FB607FCF5CF808185FFF2CFA889B989A7
:100410008C9185FFEDCFCE010E948801E7CFDF915F
:10042000CF91089580E090E0892B29F00E947E0111
:1004300081110C94000008953FB7F8948091C00199
:100440009091C101A091C201B091C30126B5A89BB2
:1004500005C02F3F19F00196A11DB11D3FBFBA2F56
:10046000A92F982F8827820F911DA11DB11DBC01B6
:10047000CD0142E0660F771F881F991F4A95D1F77B
:10048000089585ED8093BC008091BC0084FDFCCF75
:1004900010921802089540919A01262F30E0240FFF
:1004A000311D21323105DCF4209118022430C9F4C9
:1004B000FC0180E090E0861758F430919A01219178
:1004C000DC01A858BE4FA30FB11D2C930196F3CFAA
:1004D00080919A01680F60939A0180E0089581E00D
:1004E000089582E008950895E091D1018091D001AE
:1004F000E81730F4F0E0EE52FE4F808190E008956E
:100500008FEF9FEF08959091D1018091D0019817BE
:1005100050F4E92FF0E0EE52FE4F208130E09F5F73
:100520009093D10102C02FEF3FEFC9010895809150
:10053000D00190E02091D101821B91090895CF92C2
:10054000DF92EF92FF920F931F93CF93DF937C0183
:10055000262F972F8A0180911902882391F0C62FA8
:10056000D72F6E01C40ED51ECC15DD0571F0699133
:10057000D701ED91FC910190F081E02DC701099523
:10058000F3CF642F822F0E944B02C801DF91CF91DD
:100590001F910F91FF90EF90DF90CF900895CF9330
:1005A000DF931F92CDB7DEB7698320911902222312
:1005B000D1F020913C02203240F021E030E0FC01FB
:1005C0003383228380E090E015C080911A02E82FE7
:1005D000F0E0E55EFD4F998190838F5F80931A0272
:1005E00080933C0205C061E0CE0101960E944B025F
:1005F00081E090E00F90DF91CF910895CF93C62FC7
:1006000091E09093190298E690933B0210921A029F
:1006100010923C02682F8AED92E00E94CF026C2F6C
:100620008AED92E00E94CF0281E0CF910C9482008B
:10063000909118029111FCCF813208F080E291E094
:1006400090931802909317022FEF209316021092A6
:100650001502280F209314029093F3019091F30157
:10066000906D9093F3019091F201913061F41092AA
:10067000F2019091F3019093BB009091BC0093FD27
:10068000F8CF95EC01C095EE9093BC0090911802C4
:100690009130E1F390911502981710F480911502B2
:1006A000A4EFB1E022ED31E0F9019E2F921B9817E3
:1006B00018F49D919193F9CF1092D1018093D001BC
:1006C000089591E09093190298E690933B0210925E
:1006D0001A0210923C02682F8AED92E00E94CF022B
:1006E00081E00E94820081E090E00E9418038AED80
:1006F00092E00E9483020895CF9391E090931902B3
:1007000098E690933B0210921A0210923C02682FD6
:100710008AED92E00E94CF0281E00E94820082E096
:1007200090E00E9418038AED92E00E948302C82F95
:100730008AED92E00E94830220E030E03C2F822B81
:10074000932BCF910895009769F0FC010190002050
:10075000E9F73197AF01481B590BBC018DE392E0DB
:100760000C94250180E090E008958F929F92AF92C3
:10077000BF920F931F93CF93DF93CDB7DEB7A197AF
:100780000FB6F894DEBF0FBECDBF19A2423008F4F9
:100790004AE08E010F5D1F4F842E912CA12CB12CAD
:1007A000A50194010E943309E62FB901CA01015045
:1007B0001109EA3014F4E05D01C0E95CD801EC9362
:1007C000232B242B252B61F7C8010E94A303A1969C
:1007D0000FB6F894DEBF0FBECDBFDF91CF911F9152
:1007E0000F91BF90AF909F908F900895CF92DF921E
:1007F000EF92FF92CF93DF936B017C01E0913D027A
:10080000F0913E020190F081E02D6DE28DE392E0E7
:100810000995EC0166277727CB016C197D098E09B4
:100820009F094AE00E94B5038C0F9D1FDF91CF9175
:10083000FF90EF90DF90CF900895BC01990F880B47
:10084000990B97FD0C94F6034AE00C94B503CF93F3
:10085000DF93BC01990F880B990B97FF03C00E948F
:10086000F60303C04AE00E94B503EC0182E291E086
:100870000E94A3038C0F9D1FDF91CF9108950C94CC
:10088000A3030E94970B1F920F920FB60F92112491
:100890002F933F934F935F936F937F938F939F9388
:1008A000AF93BF93EF93FF938DE392E00E94880193
:1008B000FF91EF91BF91AF919F918F917F916F9138
:1008C0005F914F913F912F910F900FBE0F901F900E
:1008D00018951F920F920FB60F9211242F938F939A
:1008E0009F93EF93FF93E0914D02F0914E02808130
:1008F000E0915302F091540282FD12C090818091E8
:1009000056028F5F8F7320915702821751F0E0914A
:100910005602F0E0E35CFD4F958F8093560201C0D4
:100920008081FF91EF919F918F912F910F900FBE3A
:100930000F901F9018951F920F920FB60F921124CF
:100940002F933F938F939F93AF93BF938091C40155
:100950009091C501A091C601B091C7013091BF012E
:1009600023E0230F2D3720F40196A11DB11D05C0F2
:1009700026E8230F0296A11DB11D2093BF0180938D
:10098000C4019093C501A093C601B093C7018091A3
:10099000C0019091C101A091C201B091C301019623
:1009A000A11DB11D8093C0019093C101A093C2010C
:1009B000B093C301BF91AF919F918F913F912F91C0
:1009C0000F900FBE0F901F9018951F920F920FB6A9
:1009D0000F9211242F933F934F935F936F937F93C5
:1009E0008F939F93AF93BF93EF93FF938091B90041
:1009F000887F803609F49CC068F5883209F45BC0B2
:100A000090F4803109F454C038F4882309F4F6C016
:100A1000883009F44DC0F6C0883109F44CC08032EA
:100A200009F45DC0EFC0803409F468C048F4803335
:100A300009F455C0883309F0E5C080931602D8C088
:100A4000803509F44FC0883509F45DC0883409F059
:100A5000D9C0D6C0883909F4C7C0A8F4883709F4CA
:100A600067C038F4883609F463C0803709F460C081
:100A7000C9C0883809F4B8C0803909F45FC080382B
:100A800009F0C0C05BC0803B09F486C038F4803AEE
:100A900009F466C0883A09F47FC0B4C0803C09F408
:100AA000A7C0883C09F4A4C0883B09F48AC0AAC046
:100AB0008091F30110C09091150280911402981753
:100AC00070F5E091150281E08E0F80931502F0E041
:100AD000EC50FE4F80818093BB0085EC86C08093F4
:100AE00016028EC0E091150281E08E0F80931502F0
:100AF0008091BB00F0E0EC50FE4F80839091150296
:100B0000809114026EC0E091150281E08E0F8093F7
:100B100015028091BB00F0E0EC50FE4F8083809185
:100B2000170281116DC081E08093F20184EA61C0F7
:100B300083E0809318021092BE01CFCF8091BE0156
:100B4000803208F051C0E091BE0181E08E0F8093A9
:100B5000BE018091BB00F0E0E256FE4F8083BDCF26
:100B600085EC8093BC00109218028091BE01803207
:100B700030F4E091BE01F0E0E256FE4F1082609149
:100B8000BE0170E0E0919C01F0919D018EE991E041
:100B900009951092BE0136C084E08093180210922D
:100BA0009B0110929A01E0919801F09199010995A9
:100BB00080919A01811105C081E080939A01109281
:100BC0007801E0919B0181E08E0F80939B01F0E022
:100BD000E858FE4F80818093BB0090919B018091EB
:100BE0009A01981708F479CF85E88093BC000AC071
:100BF00085EC8093BC001092180204C0109216027B
:100C00000E944102FF91EF91BF91AF919F918F910F
:100C10007F916F915F914F913F912F910F900FBEF8
:100C20000F901F901895EDE3F2E01382128288EE88
:100C300093E0A0E0B0E084839583A683B78326E0A9
:100C400031E03183208325EC30E03587248724ECA4
:100C500030E03787268720EC30E0318B208B21EC89
:100C600030E0338B228B22EC30E0358B248B26EC6A
:100C700030E0378B268B118E128E138E148EEAED98
:100C8000F2E01382128284839583A683B78386E180
:100C900091E0918380830895789484B5826084BDC7
:100CA00084B5816084BD85B5826085BD85B5816070
:100CB00085BD80916E00816080936E0010928100EE
:100CC00080918100826080938100809181008160A9
:100CD000809381008091800081608093800080916A
:100CE000B10084608093B1008091B00081608093F6
:100CF000B00080917A00846080937A0080917A00BD
:100D0000826080937A0080917A00816080937A007B
:100D100080917A00806880937A001092C100E091FF
:100D20004D02F0914E0282E08083E0914902F09101
:100D30004A021082E0914B02F0914C0287E08083DE
:100D400010925502E0915102F091520286E08083A8
:100D5000E0914F02F0915002808180618083E091A8
:100D60004F02F0915002808188608083E0914F02B1
:100D7000F0915002808180688083E0914F02F09171
:100D8000500280818F7D808385E291E00E94A303E1
:100D900082E291E00E94A3031092D1011092D0014F
:100DA00010921A0210923C021092180281E0809375
:100DB00017021092F20182E10E94DF0083E10E949B
:100DC000DF008091B9008E7F8093B9008091B900D7
:100DD0008D7F8093B90088E48093B80085E4809388
:100DE000BC0085E70E946103C82F80E391E00E9468
:100DF0003F048C2F90E00E9427048BE60E94610341
:100E0000682F60688BE60E94FE020E941C024B0164
:100E10005C0184E6C82ED12CE12CF12C0E941C022E
:100E2000DC01CB0188199909AA09BB09883E9340C6
:100E3000A105B10558F001E0C01AD108E108F10898
:100E400018EE810E13E0911EA11CB11CC114D10437
:100E5000E104F10419F768E08CE10E94FE0287E7E3
:100E60000E947C037C018AE70E947C038C018DE751
:100E70000E947C03EC0185E391E00E943F04C701DE
:100E80000E9427048AE391E00E943F04C8010E9467
:100E900027048FE391E00E943F04CE010E942704C3
:100EA000C0E0D0E08C2F0E946103182F84E491E011
:100EB0000E943F04CE010E941D0489E491E00E943B
:100EC0003F04812F90E00E9427042196CF37D1055F
:100ED00049F78AE10E946103887F682F61608AE197
:100EE0000E94FE0269E089E10E94FE0268E783E257
:100EF0000E94FE028AE60E946103682F60648AE60F
:100F00000E94FE0282E70E947C03C0E0D0E08931AB
:100F100091056CF00CE010E084E70E946103015041
:100F20001109D1F72C9682E70E947C03F0CF0C9731
:100F300034F4209709F06EC0C0E0D0E072C184E7BD
:100F40000E946103C82E84E70E946103D82E84E7C3
:100F50000E946103082F84E70E946103E82E84E762
:100F60000E946103182F84E70E946103F82E8DE42C
:100F700091E00E943F048D2D90E09C290E941D0469
:100F80008BE491E00E943F048E2D90E0902B0E9414
:100F90001D048BE491E00E943F048F2D90E0912B83
:100FA0000E941D0480E591E00E943F0484E70E94B6
:100FB0006103C82E84E70E946103D82E84E70E9453
:100FC0006103082F84E70E946103E82E84E70E94F2
:100FD0006103182F84E70E946103F82E8D2D90E0A5
:100FE0009C290E941D048BE491E00E943F048E2DF9
:100FF00090E0902B0E941D048BE491E00E943F043E
:101000008F2D90E0912B0E941D0482E291E00E94BE
:10101000A3032C968FB7F894C090C401D090C5015B
:10102000E090C601F090C7018FBF8091CC019091F4
:10103000CD01A091CE01B091CF01AE010D2E000CDB
:10104000660B770B8A019B01080F191F2A1F3B1F94
:10105000C901B8010093CC011093CD012093CE01BA
:101060003093CF014090C8015090C9016090CA01EF
:101070007090CB01411451046104710449F4C09291
:10108000C801D092C901E092CA01F092CB01C9C057
:101090000E94700A4B015C01C701B6016419750911
:1010A000860997090E94700A20E030E04AE754E47C
:1010B0000E94CD099B01AC01C501B4010E94CD097C
:1010C0006B017C014B015C0184E591E00E943F04CF
:1010D000A7019601C701B6010E94920B882319F05F
:1010E00089E591E01AC026013701E89477F82FEFDF
:1010F0003FEF4FE75FE7C301B2010E94920B8111FE
:101100000FC02FEF3FEF4FE75FE7C301B2010E942F
:10111000C80918162CF48DE591E00E94A3037DC048
:101120002FEF3FEF4FE75FE4C701B6010E94200BAE
:1011300018161CF481E691E0F0CF2FEF3FEF4FE758
:101140005FECC701B6010E94C80987FDF3CF20E01C
:1011500030E0A901C701B6010E94C80987FF11C08C
:10116000E0913D02F0913E020190F081E02D6DE2B0
:101170008DE392E0099546015701B7FAB094B7F8AC
:10118000B0942AE037ED43EA5BE3C501B4010E9465
:101190005C094B015C010E943F0A6B017C010E94CB
:1011A0006E0A9B01AC01C501B4010E945B094B01B1
:1011B0005C014AE0C701B6010E94B5038EE291E0EE
:1011C0000E94A30320E030E040E251E4C501B401F5
:1011D0000E94250B4B015C010E943F0A6B01E12C30
:1011E000F12C4AE0C701B6010E94B503C701B60160
:1011F0000E946E0A9B01AC01C501B4010E945B090B
:1012000020E030E040E251E40E94250B0E943F0ABA
:1012100080E090E04AE00E94B50382E291E00E9403
:10122000A3038091000190910101C817D90759F0DB
:1012300085E691E00E943F04CE010E942704D093EE
:101240000101C09300018AE30E94610384FF08C08A
:101250008EE691E00E94A30382E291E00E94A30344
:101260000E9412024FCEA1E21A2EAA1BBB1BFD0147
:101270000DC0AA1FBB1FEE1FFF1FA217B307E40775
:10128000F50720F0A21BB30BE40BF50B661F771FCD
:10129000881F991F1A9469F76095709580959095AD
:1012A0009B01AC01BD01CF010895EE0FFF1F05901A
:1012B000F491E02D09945058BB27AA270E94730986
:1012C0000C94E60A0E94D80A38F00E94DF0A20F047
:1012D00039F49F3F19F426F40C94D50A0EF4E095E6
:1012E000E7FB0C94CF0AE92F0E94F70A58F3BA17CC
:1012F000620773078407950720F079F4A6F50C942C
:10130000190B0EF4E0950B2EBA2FA02D0B01B9018D
:1013100090010C01CA01A0011124FF27591B99F06B
:10132000593F50F4503E68F11A16F040A22F232F77
:10133000342F4427585FF3CF469537952795A795C7
:10134000F0405395C9F77EF41F16BA0B620B730B6E
:10135000840BBAF09150A1F0FF0FBB1F661F771FDF
:10136000881FC2F70EC0BA0F621F731F841F48F494
:10137000879577956795B795F7959E3F08F0B0CF1D
:101380009395880F08F09927EE0F97958795089504
:101390000E94AB0A08F481E008950E94E1090C94D0
:1013A000E60A0E94DF0A58F00E94D80A40F029F4A9
:1013B0005F3F29F00C94CF0A51110C941A0B0C9436
:1013C000D50A0E94F70A68F39923B1F3552391F3E4
:1013D000951B550BBB27AA2762177307840738F0A4
:1013E0009F5F5F4F220F331F441FAA1FA9F335D001
:1013F0000E2E3AF0E0E832D091505040E695001CB5
:10140000CAF72BD0FE2F29D0660F771F881FBB1F6E
:10141000261737074807AB07B0E809F0BB0B802D4C
:10142000BF01FF2793585F4F3AF09E3F510578F078
:101430000C94CF0A0C941A0B5F3FE4F3983ED4F35C
:10144000869577956795B795F7959F5FC9F7880F4C
:10145000911D9695879597F90895E1E0660F771F9E
:10146000881FBB1F621773078407BA0720F0621B2F
:10147000730B840BBA0BEE1F88F7E09508950E945A
:10148000FF0A88F09F5798F0B92F9927B751B0F00D
:10149000E1F0660F771F881F991F1AF0BA95C9F7F8
:1014A00014C0B13091F00E94190BB1E008950C9472
:1014B000190B672F782F8827B85F39F0B93FCCF325
:1014C000869577956795B395D9F73EF49095809575
:1014D000709561957F4F8F4F9F4F0895E89409C095
:1014E00097FB3EF490958095709561957F4F8F4F57
:1014F0009F4F9923A9F0F92F96E9BB279395F6956D
:10150000879577956795B795F111F8CFFAF4BB0FEA
:1015100011F460FF1BC06F5F7F4F8F4F9F4F16C04E
:10152000882311F096E911C0772321F09EE8872FD8
:10153000762F05C0662371F096E8862F70E060E094
:101540002AF09A95660F771F881FDAF7880F96950D
:10155000879597F90895990F0008550FAA0BE0E8B1
:10156000FEEF16161706E807F907C0F01216130665
:10157000E407F50798F0621B730B840B950B39F4A5
:101580000A2661F0232B242B252B21F408950A260B
:1015900009F4A140A6958FEF811D811D089597F94B
:1015A0009F6780E870E060E008959FEF80EC089509
:1015B00000240A9416161706180609060895002432
:1015C0000A9412161306140605060895092E0394AC
:1015D000000C11F4882352F0BB0F40F4BF2B11F420
:1015E00060FF04C06F5F7F4F8F4F9F4F089557FD7F
:1015F0009058440F551F59F05F3F71F04795880F81
:1016000097FB991F61F09F3F79F087950895121617
:1016100013061406551FF2CF4695F1DF08C01616C3
:1016200017061806991FF1CF869571056105089474
:101630000895E894BB2766277727CB0197F908958B
:101640000E94AB0A08F48FEF08950E94380B0C94A7
:10165000E60A0E94D80A38F00E94DF0A20F095239B
:1016600011F00C94CF0A0C94D50A11240C941A0B87
:101670000E94F70A70F3959FC1F3950F50E0551F34
:10168000629FF001729FBB27F00DB11D639FAA27D7
:10169000F00DB11DAA1F649F6627B00DA11D661F26
:1016A000829F2227B00DA11D621F739FB00DA11D47
:1016B000621F839FA00D611D221F749F3327A00D01
:1016C000611D231F849F600D211D822F762F6A2F9D
:1016D00011249F5750409AF0F1F088234AF0EE0F02
:1016E000FF1FBB1F661F771F881F91505040A9F72F
:1016F0009E3F510580F00C94CF0A0C941A0B5F3F6B
:10170000E4F3983ED4F3869577956795B795F7956A
:10171000E7959F5FC1F7FE2B880F911D96958795E2
:1017200097F908950E94AB0A880B990B089581E000
:0C17300090E0F8940C949C0BF894FFCF10
:10173C00FFFF00000000A9012501720150016401A6
:10174C00F00100000000CF029F0297028302740296
:10175C0073020D0A00737461727475702E2E2E0054
:10176C0076616C200061786F200061796F200061D8
:10177C007A6F20007265672000203D2000612000F8
:10178C002067200062707320006E616E00696E66C7
:10179C00006F7666006669666F636E7420004F7624
:0817AC006572666C6F770000A6
:107E0000112484B714BE81FFF0D085E080938100F7
:107E100082E08093C00088E18093C10086E0809377
:107E2000C20080E18093C4008EE0C9D0259A86E02C
:107E300020E33CEF91E0309385002093840096BBD3
:107E4000B09BFECF1D9AA8958150A9F7CC24DD24C4
:107E500088248394B5E0AB2EA1E19A2EF3E0BF2EE7
:107E6000A2D0813461F49FD0082FAFD0023811F036
:107E7000013811F484E001C083E08DD089C08234E0
:107E800011F484E103C0853419F485E0A6D080C0E4
:107E9000853579F488D0E82EFF2485D0082F10E0AE
:107EA000102F00270E291F29000F111F8ED06801E7
:107EB0006FC0863521F484E090D080E0DECF843638
:107EC00009F040C070D06FD0082F6DD080E0C81688
:107ED00080E7D80618F4F601B7BEE895C0E0D1E017
:107EE00062D089930C17E1F7F0E0CF16F0E7DF06D8
:107EF00018F0F601B7BEE89568D007B600FCFDCFD4
:107F0000A601A0E0B1E02C9130E011968C91119780
:107F100090E0982F8827822B932B1296FA010C0160
:107F200087BEE89511244E5F5F4FF1E0A038BF0790
:107F300051F7F601A7BEE89507B600FCFDCF97BE46
:107F4000E89526C08437B1F42ED02DD0F82E2BD052
:107F50003CD0F601EF2C8F010F5F1F4F84911BD097
:107F6000EA94F801C1F70894C11CD11CFA94CF0C13
:107F7000D11C0EC0853739F428D08EE10CD085E9AC
:107F80000AD08FE07ACF813511F488E018D01DD067
:107F900080E101D065CF982F8091C00085FFFCCF94
:107FA0009093C60008958091C00087FFFCCF809118
:107FB000C00084FD01C0A8958091C6000895E0E648
:107FC000F0E098E1908380830895EDDF803219F02E
:107FD00088E0F5DFFFCF84E1DECF1F93182FE3DFCA
:107FE0001150E9F7F2DF1F91089580E0E8DFEE27F6
:047FF000FF270994CA
:027FFE00040479
:0400000300007E007B
:00000001FF