:100000000C9466000C94A4040C947D040C948E0053
:100010000C948E000C948E000C948E000C948E0028
:100020000C948E000C948E000C948E000C948E0018
:100030000C948E000C948E000C948E000C948E0008
:100040000C9433040C948E000C9401040C94DB0388
:100050000C948E000C948E000C948E000C948E00E8
:100060000C948E000C948E00000000080002010029
:100070000003040700000000000000001112131428
:1000800015160A0B0C0D0E0F0001020304050000EB
:100090000000250028002B0000000000240027009D
:1000A0002A000404040404040404020202020202FA
:1000B000030303030303010204081020408001022C
:1000C00004081020010204081020CB0411241FBED4
:1000D000CFEFD8E0DEBFCDBF11E0A0E0B1E0EEEBA6
:1000E000FFE002C005900D92AE33B107D9F722E0D0
:1000F000AEE3B1E001C01D92A231B207E1F710E01A
:10010000C6E6D0E004C02197FE010E94D207C536A2
:10011000D107C9F70E9411050C94DD070C9400006B
:1001200090E0FC01EA54FF4F2491FC01EE55FF4F93
:100130008491882399F090E0880F991FFC01E8567C
:10014000FF4FA591B491FC01E257FF4F8591949127
:100150008FB7F894EC91E22BEC938FBF0895CF9278
:10016000DF92EF92FF920F931F93CF93DF936C0177
:100170007A018B01C0E0D0E0CE15DF0589F0D8010F
:100180006D918D01D601ED91FC910190F081E02DF2
:10019000C6010995892B11F47E0102C02196ECCF8E
:1001A000C701DF91CF911F910F91FF90EF90DF90EA
:1001B000CF90089580915B0190915C01019690939E
:1001C0005C0180935B010895FC01918D828D9817ED
:1001D00061F0828DDF01A80FB11D5D968C91928D2B
:1001E0009F5F9F73928F90E008958FEF9FEF089528
:1001F000FC01918D828D981731F0828DE80FF11DF1
:10020000858D90E008958FEF9FEF0895FC01918D0B
:10021000228D892F90E0805C9F4F821B91098F7304
:10022000992708958DE591E00E94060121E0892B30
:1002300009F420E0822F0895FC01848DDF01A80FCE
:10024000B11DA35ABF4F2C91848D90E001968F73FE
:100250009927848FA689B7892C93A089B1898C911D
:1002600080648C93938D848D981306C00288F389E3
:10027000E02D80818F7D80830895EF92FF920F9310
:100280001F93CF93DF93EC0181E0888F9B8D8C8D42
:10029000981305C0E889F989808185FD24C0F62E70
:1002A0000B8D10E00F5F1F4F0F731127E02E8C8D09
:1002B000E8120CC00FB607FCFACFE889F9898081F3
:1002C00085FFF5CFCE010E941C01F1CF8B8DFE0181
:1002D000E80FF11DE35AFF4FF0820B8FEA89FB898B
:1002E0008081806207C0EE89FF896083E889F9898F
:1002F00080818064808381E090E0DF91CF911F91C5
:100300000F91FF90EF900895CF93DF93EC01888DCC
:100310008823C9F0EA89FB89808185FD05C0A88909
:10032000B9898C9186FD0FC00FB607FCF5CF80818F
:1003300085FFF2CFA889B9898C9185FFEDCFCE01D9
:100340000E941C01E7CFDF91CF91089580E090E0FB
:10035000892B29F00E94120181110C94000008954C
:1003600090E0FC01E859FF4F3491FC01EA54FF4F43
:100370002491FC01EE55FF4FE491EE2309F43BC0BC
:10038000332339F1333091F038F43130A9F0323081
:1003900001F584B58F7D12C0373091F03830A1F06F
:1003A0003430B9F4809180008F7D03C0809180004B
:1003B0008F77809380000DC084B58F7784BD09C08E
:1003C0008091B0008F7703C08091B0008F7D8093C3
:1003D000B000F0E0EE0FFF1FE257FF4FA591B49180
:1003E0008FB7F894EC91611103C020952E2301C0C2
:1003F0002E2B2C938FBF08958230910538F0880FF3
:10040000991F880F991F05970197F1F708953FB736
:10041000F8948091430190914401A0914501B091DD
:10042000460126B5A89B05C02F3F19F00196A11DD6
:10043000B11D3FBFBA2FA92F982F8827820F911D7A
:10044000A11DB11DBC01CD0142E0660F771F881FC1
:10045000991F4A95D1F708958F929F92AF92BF92BC
:10046000CF92DF92EF92FF926B017C010E94070214
:100470004B015C01C114D104E104F104F1F00E94CC
:100480000702DC01CB0188199909AA09BB09883E3A
:100490009340A105B10570F321E0C21AD108E1082B
:1004A000F10888EE880E83E0981EA11CB11CC114CF
:1004B000D104E104F10419F7DDCFFF90EF90DF9054
:1004C000CF90BF90AF909F908F90089508958EBD6C
:1004D00000000DB407FEFDCF8EB50895CF93DF93D6
:1004E0009CB59F7D9CBD9CB5937F9CBD9CB59C7F1E
:1004F0009CBD9DB591609DBDCAEFD1E0682F8A81FA
:100500000E94B0018C899D89DF91CF910C94FC01F0
:1005100080E00C946E021F93CF93DF931F92CDB7B0
:10052000DEB789830E94880289818F710E946702E9
:100530008FEF0E946702182F81E00E946E02812FC8
:100540000F90DF91CF911F9108951F93CF93DF9369
:1005500000D0CDB7DEB76A8389830E948802898183
:100560008F7180620E946702182F6A81862F0E9415
:10057000670281E00E946E02812F0F900F90DF9141
:10058000CF911F9108950F931F93CF938C0186E015
:100590000E948B02C82FC77D0230110531F4C06262
:1005A0008BE990E0A0E0B0E00DC00130110529F02A
:1005B00085E590E0A0E0B0E005C0C86081E490E08F
:1005C000A0E0B0E080930A0290930B02A0930C028B
:1005D000B0930D026C2F86E00E94A50286E00E9477
:1005E0008B0291E08C1390E0892FCF911F910F9196
:1005F000089580E00E948B0281FD0BC0682F62602D
:1006000080E00E94A50265E070E080E090E00C943C
:100610002C020895CF93C82F82E00E948B02EC2F0A
:10062000F0E0E857FF4FE49121E030E001C0220FF5
:10063000EA95EAF72095622F682382E0CF910C9427
:10064000A502CF930E94880281EE0E946702C82F04
:1006500081E00E946E028C2FCF910895EF92FF925D
:100660000F931F93CF93DF9300D01F92CDB7DEB7C8
:10067000162F4A837B8389830E94880289818F7128
:1006800080620E946702082FE12E7B81F72E4A814B
:10069000140F1E1531F0F70181917F010E9467024E
:1006A000F8CF81E00E946E02802F0F900F900F9084
:1006B000DF91CF911F910F91FF90EF9008950097D8
:1006C00069F0FC0101900020E9F73197AF01481B68
:1006D000590BBC018DE591E00C94AF0080E090E0F7
:1006E00008958F929F92AF92BF920F931F93CF93D3
:1006F000DF93CDB7DEB7A1970FB6F894DEBF0FBE7C
:10070000CDBF19A2423008F44AE08E010F5D1F4FA1
:10071000842E912CA12CB12CA50194010E94B0072C
:10072000E62FB901CA0101501109EA3014F4E05D65
:1007300001C0E95CD801EC93232B242B252B61F716
:10074000C8010E945F03A1960FB6F894DEBF0FBEEA
:10075000CDBFDF91CF911F910F91BF90AF909F9030
:100760008F900895CF92DF92EF92FF92CF93DF9315
:100770006B017C01E0915D01F0915E010190F081DF
:10078000E02D6DE28DE591E00995EC016627772774
:10079000CB016C197D098E099F094AE00E94710303
:1007A0008C0F9D1FDF91CF91FF90EF90DF90CF9046
:1007B00008950E94D8071F920F920FB60F9211242E
:1007C0002F933F934F935F936F937F938F939F9359
:1007D000AF93BF93EF93FF938DE591E00E941C01CF
:1007E000FF91EF91BF91AF919F918F917F916F9109
:1007F0005F914F913F912F910F900FBE0F901F90DF
:1008000018951F920F920FB60F9211242F938F936A
:100810009F93EF93FF93E0916D01F0916E018081C2
:10082000E0917301F091740182FD12C0908180917A
:1008300076018F5F8F7320917701821751F0E091DD
:100840007601F0E0E35AFE4F958F8093760101C068
:100850008081FF91EF919F918F912F910F900FBE0B
:100860000F901F9018951F920F920FB60F921124A0
:100870002F933F938F939F93AF93BF9380913F01AB
:1008800090914001A0914101B091420130913E010F
:1008900023E0230F2D3720F40196A11DB11D05C0C3
:1008A00026E8230F0296A11DB11D20933E018093DF
:1008B0003F0190934001A0934101B0934201809188
:1008C000430190914401A0914501B09146010196E8
:1008D000A11DB11D8093430190934401A093450154
:1008E000B0934601BF91AF919F918F913F912F910E
:1008F0000F900FBE0F901F9018951F920F920FB67A
:100900000F9211242F933F934F935F936F937F9395
:100910008F939F93AF93BF93EF93FF93E091020167
:10092000F09103010995FF91EF91BF91AF919F91D4
:100930008F917F916F915F914F913F912F910F9088
:100940000FBE0F901F9018951F920F920FB60F9227
:1009500011242F933F934F935F936F937F938F93C4
:100960009F93AF93BF93EF93FF93E0910001F091BA
:1009700001010995FF91EF91BF91AF919F918F91E7
:100980007F916F915F914F913F912F910F900FBE8B
:100990000F901F901895EDE5F1E01382128288EE1A
:1009A00093E0A0E0B0E084839583A683B78388E0DA
:1009B00091E09183808385EC90E09587848784EC37
:1009C00090E09787868780EC90E0918B808B81EC1C
:1009D00090E0938B828B82EC90E0958B848B86ECFD
:1009E00090E0978B868B118E128E138E148EEAEF09
:1009F000F1E083E090E0918380838AE090E093834C
:100A00008283168280E28783108685E0868785E070
:100A100090E0A0E0B0E0848B958BA68BB78B11861D
:100A20000895CF93DF93CDB7DEB728970FB6F8942C
:100A3000DEBF0FBECDBF789484B5826084BD84B51F
:100A4000816084BD85B5826085BD85B5816085BDC9
:100A500080916E00816080936E0010928100809181
:100A60008100826080938100809181008160809309
:100A70008100809180008160809380008091B1002E
:100A800084608093B1008091B00081608093B00059
:100A900080917A00846080937A0080917A008260ED
:100AA00080937A0080917A00816080937A008091AF
:100AB0007A00806880937A001092C1008091FA01D8
:100AC0009091FB012091FC013091FD018217930769
:100AD00011F00E9490008091FC019091FD01209105
:100AE000FA013091FB012817390711F00E9490009C
:100AF0001FB7F89480914701811124C0ECEAF0E01F
:100B00008491E0ECF0E09491E82FF0E0EE0FFF1F0D
:100B1000E856FF4FA591B491EC91E92321F461E0EF
:100B20008AE00E94B0018AE00E9490008CB580614A
:100B30008CBD8CB580648CBD8DE00E9490008BE0F4
:100B40000E949000809147018F5F809347011FBFF3
:100B50008091FA019091FB012091FC013091FD01FF
:100B60008217930719F060E00E94B00181E00E94B3
:100B70006E0265E070E080E090E00E942C026CE084
:100B800080E00E94A5026FE584E00E94A50282E059
:100B900090E00E94C302882319F081E08093000254
:100BA00086E00E948B0280E090E00E94C3020E94D7
:100BB000880280E50E94670283E70E94670281E065
:100BC0000E946E0260E08DE10E94A50260E08CE16F
:100BD0000E94A5021092020260E787E00E94A5022F
:100BE0006CE485E00E94A5020E94880282EE0E94C9
:100BF000670281E00E946E020E9421030E94F902B6
:100C000080E00E948B02682F6E7F80E00E94A50228
:100C100060E081E00E94A5028DE10E948B02682FB6
:100C2000697F8DE10E94A5028CE10E948B02682FF2
:100C3000607C8CE10E94A5021092020283E1809305
:100C4000010262E083E00E94A50284E08093080232
:100C500081E090E00E94C30280E00E948B02682F36
:100C60006C6080E00E94A50280E00E948B02682FE9
:100C70006F7880E00E94A5028AED90E090930101D8
:100C800080930001809169008C7F8160809369006E
:100C9000E89AE0916D01F0916E0182E08083E0912D
:100CA0006901F0916A011082E0916B01F0916C0191
:100CB00087E0808310927501E0917101F0917201DB
:100CC00086E08083E0916F01F09170018081806106
:100CD0008083E0916F01F091700180818860808352
:100CE000E0916F01F0917001808180688083E091D4
:100CF0006F01F091700180818F7D80830EE728EB7A
:100D0000522E33E6432E49EA342E5DE7A52E50E0FD
:100D1000B52E69E8862E60E0962EEE24E394F12C41
:100D2000E8E86E2EE0E07E2E60E585E00E94A502F8
:100D30000E94F90280E00E948B02682F616080E0CF
:100D40000E94A50260E787E00E94A5028091FA0157
:100D50009091FB012091FC013091FD0182179307D6
:100D600019F061E00E94B00180910302882341F0F4
:100D70004091080263E072E08AE00E942E0303C003
:100D800080E00E940A038DE10E948B0281FD0E9497
:100D9000210309835A824B823C821D821E821F825C
:100DA0001886E3E8F0E0849140910802BE016F5F8D
:100DB0007F4F0E942E03F5018491609101020E94F1
:100DC000A50282E00E948B02F4019491970101C078
:100DD000220F9A95EAF7682F622B82E00E94A50203
:100DE0006AE070E080E090E00E942C0289E00E94BE
:100DF0008B0280FF4CC084E191E00E945F034AE0D7
:100E000060E570E080E090E00E9471030E9488023B
:100E10008FEF0E946702182F81E00E946E028DE121
:100E200091E00E945F03612F70E080E090E04AE073
:100E30000E94710387E291E00E945F0360915B0171
:100E400070915C01072E000C880B990B97FF03C073
:100E50000E94B20303C04AE00E94710380E391E064
:100E60000E945F0387E10E948B0280FF4EC00FC08B
:100E700081E00E946E0260E787E00E94A50283E3A2
:100E800091E00E945F0380E391E00E945F0381E0B4
:100E90000E940A038091FA019091FB012091FC01CC
:100EA0003091FD018217930719F060E00E94B001B4
:100EB00080910A0290910B020E94FC018DE10E9438
:100EC0008B0281FF08C080910A0290910B020E9460
:100ED000FC010E94210380E00E948B02682F6E7F3C
:100EE00080E00E94A50282E00E948B02F3019491AF
:100EF000970101C0220F9A95EAF7682F622B82E0D2
:100F00000E94A5020E94A6010FCF10910102133189
:100F100028F193E1292E80910202811102C0121959
:100F200001C010E00E94880281E60E94670288E406
:100F3000C82E81E0D82E2A94FFEF2F1639F08FEFBC
:100F40000E946702F60181936F01F5CF112309F426
:100F50008FCF8FEF0E9467021150F8CF212EDBCF89
:100F6000A1E21A2EAA1BBB1BFD010DC0AA1FBB1FAD
:100F7000EE1FFF1FA217B307E407F50720F0A21B1F
:100F8000B30BE40BF50B661F771F881F991F1A948C
:100F900069F760957095809590959B01AC01BD01B6
:100FA000CF010895EE0FFF1F0590F491E02D0994F5
:0E0FB00081E090E0F8940C94DD07F894FFCFF8
:100FBE0066026602000000003D01AF000601E4007B
:100FCE00F80084016368616E6E656C20002C2073DE
:100FDE00746174757320002C20696E747273200016
:0E0FEE000D0A00726563656976656421000076
:00000001FF
