:100000000C9460000C9488000C9488000C94880078
:100010000C9488000C9488000C9488000C94880040
:100020000C9488000C9488000C9488000C94880030
:100030000C9488000C9488000C9488000C94880020
:100040000C9455040C9488000C9423040C94FD0328
:100050000C9488000C9488000C9488000C94880000
:100060000C9488000C948800000000080002010035
:100070000003040700000000000000000000000072
:10008000250028002B0000000000240027002A0083
:10009000040404040404040402020202020203032E
:1000A0000303030301020408102040800102040836
:1000B00010200102040810200001020304059F041F
:1000C00011241FBECFEFD8E0DEBFCDBF11E0A0E00E
:1000D000B1E0EEE2F4E102C005900D92AA34B1075E
:1000E000D9F722E0AAE4B1E001C01D92AB35B20716
:1000F000E1F710E0C0E6D0E004C02197FE010E94C5
:100100004D08CF35D107C9F70E94F7040C94150AA2
:100110000C940000E4E5F1E0A089B18982E08C93C1
:10012000A485B5851C92A685B78587E08C93108E33
:10013000A489B58986E08C93A289B3898C9180616A
:100140008C93A289B3898C9188608C93A289B3899E
:100150008C9180688C930288F389E02D80818F7D5B
:100160008083089590E0FC01EC55FF4F2491FC0141
:10017000E057FF4F8491882399F090E0880F991FF2
:10018000FC01EA57FF4FA591B491FC01E458FF4FE1
:10019000859194918FB7F894EC91E22BEC938FBFFB
:1001A0000895CF92DF92EF92FF920F931F93CF9318
:1001B000DF936C017A018B01C0E0D0E0CE15DF0542
:1001C00089F0D8016D918D01D601ED91FC910190DE
:1001D000F081E02DC6010995892B11F47E0102C042
:1001E0002196ECCFC701DF91CF911F910F91FF9026
:1001F000EF90DF90CF9008958230910538F0880F0E
:10020000991F880F991F05970197F1F70895FC0131
:10021000918D828D981761F0828DDF01A80FB11D3D
:100220005D968C91928D9F5F9F73928F90E0089561
:100230008FEF9FEF0895FC01918D828D981731F01B
:10024000828DE80FF11D858D90E008958FEF9FEF6F
:100250000895FC01918D228D892F90E0805C9F4F45
:10026000821B91098F739927089584E591E00E947C
:10027000290121E0892B09F420E0822F0895FC0157
:10028000848DDF01A80FB11DA35ABF4F2C91848D1F
:1002900090E001968F739927848FA689B7892C9354
:1002A000A089B1898C9180648C93938D848D9813EF
:1002B00006C00288F389E02D80818F7D80830895B8
:1002C000EF92FF920F931F93CF93DF93EC0181E0A6
:1002D000888F9B8D8C8D981305C0E889F989808162
:1002E00085FD24C0F62E0B8D10E00F5F1F4F0F739E
:1002F0001127E02E8C8DE8120CC00FB607FCFACF48
:10030000E889F989808185FFF5CFCE010E943F0100
:10031000F1CF8B8DFE01E80FF11DE35AFF4FF08204
:100320000B8FEA89FB898081806207C0EE89FF8993
:100330006083E889F98980818064808381E090E02E
:10034000DF91CF911F910F91FF90EF900895682F4B
:1003500084E591E00C946001CF93DF93C82F880F60
:10036000DD0BCE010E94A701CE01DF91CF91089550
:10037000CF93DF93EC01888D8823C9F0EA89FB894C
:10038000808185FD05C0A889B9898C9186FD0FC043
:100390000FB607FCF5CF808185FFF2CFA889B98918
:1003A0008C9185FFEDCFCE010E943F01E7CFDF9119
:1003B000CF91089580E090E0892B29F00E943501CB
:1003C00081110C940000089590E0FC01E859FF4F62
:1003D0003491FC01EC55FF4F2491FC01E057FF4F95
:1003E000E491EE2309F43BC0332339F1333091F02B
:1003F00038F43130A9F0323001F584B58F7D12C068
:10040000373091F03830A1F03430B9F48091800069
:100410008F7D03C0809180008F77809380000DC016
:1004200084B58F7784BD09C08091B0008F7703C0F9
:100430008091B0008F7D8093B000F0E0EE0FFF1F41
:10044000E458FF4FA591B4918FB7F894EC916111E6
:1004500003C020952E2301C02E2B2C938FBF08950F
:100460003FB7F89480914F0190915001A0915101B4
:10047000B091520126B5A89B05C02F3F19F00196F7
:10048000A11DB11D3FBFBA2FA92F982F8827820F1A
:10049000911DA11DB11DBC01CD0142E0660F771F6A
:1004A000881F991F4A95D1F708958F929F92AF9216
:1004B000BF92CF92DF92EF92FF926B017C010E947C
:1004C00030024B015C01C114D104E104F104F1F0EC
:1004D0000E943002DC01CB0188199909AA09BB09E5
:1004E000883E9340A105B10570F321E0C21AD108FE
:1004F000E108F10888EE880E83E0981EA11CB11C6B
:10050000C114D104E104F10419F7DDCFFF90EF909D
:10051000DF90CF90BF90AF909F908F9008952FB7AE
:10052000F89460914B0170914C0180914D01909134
:100530004E012FBF08958EBD00000DB407FEFDCF04
:100540008EB50895CF93DF939CB59F7D9CBD9CB5E0
:10055000937F9CBD9CB59C7F9CBD9DB591609DBDCE
:10056000C9E3D2E0682F8A810E94E4018C899D89C9
:10057000DF91CF910C94FC001F93CF93DF931F92D8
:10058000CDB7DEB7182F80E069830E94A202812FC9
:100590008F7180620E949B02182F6981862F0E94B2
:1005A0009B0281E00E94A202812F0F90DF91CF91E8
:1005B0001F910895CF93C82F80E00E94A2028C2F34
:1005C0008F710E949B028FEF0E949B02C82F81E0D7
:1005D0000E94A2028C2FCF91089580E00E94DA023F
:1005E00081FD0BC0682F626080E00E94BC0265E064
:1005F00070E080E090E00C9455020895CF9380E085
:100600000E94A20281EE0E949B02C82F81E00E94FC
:10061000A2028C2FCF9108958091390290913A02D5
:1006200020913B0230913C028217930719F060E061
:100630000E94E4018091490290914A020E94FC00CC
:100640008DE10E94DA0281FF08C0809149029091F9
:100650004A020E94FC000E94FE0280E00E94DA0230
:10066000682F6E7F80E00E94BC0282E00E94DA0266
:10067000E8EBF0E0E49161E070E001C0660FEA951C
:10068000EAF7682B82E00C94BC021F93CF93DF93B0
:100690000E94ED0280E00E94DA02682F616080E033
:1006A0000E94BC0260E787E00E94BC028091390290
:1006B00090913A0220913B0230913C0282179307BD
:1006C00019F061E00E94E401809142028823A9F0C0
:1006D0001091470280E00E94A2028AE20E949B02DF
:1006E000C2E4D2E01C0F1C1721F089910E949B02EA
:1006F000FACF81E00E94A20212C082E00E94DA02D8
:10070000E8EBF0E0E49121E030E001C0220FEA954F
:10071000EAF72095622F682382E00E94BC028DE1F7
:100720000E94DA0281FF05C0DF91CF911F910C94E6
:10073000FE02DF91CF911F9108950E945308611529
:10074000710579F0FB0101900020E9F73197AF01C5
:10075000461B570BDC01ED91FC910280F381E02DEB
:10076000099480E090E008954F925F926F927F929B
:10077000EF92FF920F931F93CF93DF93CDB7DEB726
:10078000A1970FB6F894DEBF0FBECDBF7C01FA0172
:10079000CB0119A2223008F42AE08E010F5D1F4F11
:1007A000422E512C612C712CBF01A30192010E9499
:1007B000F309F901CA01015011096A3014F4605DAE
:1007C00001C0695CD8016C93232B242B252B61F786
:1007D000B801C7010E949F03A1960FB6F894DEBF2F
:1007E0000FBECDBFDF91CF911F910F91FF90EF9082
:1007F0007F906F905F904F9008951F920F920FB669
:100800000F9211242F933F934F935F936F937F9396
:100810008F939F93AF93BF93EF93FF9384E591E002
:100820000E943F01FF91EF91BF91AF919F918F91F6
:100830007F916F915F914F913F912F910F900FBEDC
:100840000F901F9018951F920F920FB60F921124C0
:100850002F938F939F93EF93FF93E0916401F09117
:1008600065018081E0916A01F0916B0182FD12C007
:10087000908180916D018F5F8F7320916E0182173F
:1008800051F0E0916D01F0E0EC5AFE4F958F8093AE
:100890006D0101C08081FF91EF919F918F912F9108
:1008A0000F900FBE0F901F9018951F920F920FB6CA
:1008B0000F9211242F933F938F939F93AF93BF93E6
:1008C00080914B0190914C01A0914D01B0914E014E
:1008D00030914A0123E0230F2D3720F40196A11D0A
:1008E000B11D05C026E8230F0296A11DB11D20935E
:1008F0004A0180934B0190934C01A0934D01B0931A
:100900004E0180914F0190915001A0915101B09101
:1009100052010196A11DB11D80934F01909350018A
:10092000A0935101B0935201BF91AF919F918F91CC
:100930003F912F910F900FBE0F901F901895E4E5F7
:10094000F1E01382128288EE93E0A0E0B0E08483AD
:100950009583A683B7838AE091E09183808385ECB9
:1009600090E09587848784EC90E09787868780EC79
:1009700090E0918B808B81EC90E0938B828B82EC6A
:1009800090E0958B848B86EC90E0978B868B118E14
:10099000128E138E148EE1EFF1E01682178210860C
:1009A0001186128613861486158616861786108A77
:1009B000118A128A138A148A158AE9E3F2E083E025
:1009C00090E0918380838AE090E093838283168213
:1009D00080E28783108685E0868785E090E0A0E04E
:1009E000B0E0848B958BA68BB78B11860895789495
:1009F00084B5826084BD84B5816084BD85B5826024
:100A000085BD85B5816085BD80916E0081608093D4
:100A10006E0010928100809181008260809381003D
:100A2000809181008160809381008091800081604D
:100A3000809380008091B10084608093B1008091A8
:100A4000B00081608093B00080917A0084608093D0
:100A50007A0080917A00826080937A0080917A0097
:100A6000816080937A0080917A00806880937A0018
:100A70001092C10010923502109236021092370285
:100A8000109238021092F3011092F4011092F501C5
:100A90001092F60160ED77E080E090E00E94550250
:100AA00084E591E090933402809333020E948A009F
:100AB0000E948F026093F3017093F4018093F5011B
:100AC0009093F60166E171E08091330290913402D7
:100AD0000E949F036AE070E080E090E00E9455026F
:100AE00081E0809307020E948A0060E070E08CEA57
:100AF00091E00E9458088091390290913A02209129
:100B00003B0230913C028217930711F00E94B20021
:100B100080913B0290913C022091390230913A023F
:100B20002817390711F00E94B200CFB7F8948091CE
:100B30005301811124C0EAE9F0E08491EEEAF0E08B
:100B40009491E82FF0E0EE0FFF1FEA57FF4FA591B9
:100B5000B491EC91E92321F461E08AE00E94E40180
:100B60008AE00E94B2008CB580618CBD8CB5806437
:100B70008CBD8DE00E94B2008BE00E94B20080919B
:100B800053018F5F80935301CFBF809139029091C1
:100B90003A0220913B0230913C028217930719F0F0
:100BA00060E00E94E40181E00E94A20265E070E042
:100BB00080E090E00E9455026CE080E00E94BC0260
:100BC0006FE584E00E94BC0286E00E94DA02877D25
:100BD000C82FC0628BE990E0A0E0B0E080934902AA
:100BE00090934A02A0934B02B0934C026C2F86E084
:100BF0000E94BC0286E00E94DA028C1709F449C206
:100C000086E00E94DA0286E00E94DA0245E550E0C2
:100C100060E070E04093490250934A0260934B02B7
:100C200070934C02682F677D86E00E94BC0286E0CC
:100C30000E94DA0280E00E94A20280E50E949B02EC
:100C400083E70E949B0281E00E94A20260E08DE1A6
:100C50000E94BC0260E08CE10E94BC021092410242
:100C600060E787E00E94BC026CE485E00E94BC0261
:100C700080E00E94A20282EE0E949B0281E00E941C
:100C8000A2020E94FE020E94ED0280E00E94DA02AF
:100C9000682F6E7F80E00E94BC0260E081E00E94CD
:100CA000BC020E9445030E940C030BEF11E034EFDD
:100CB000C32EDD24D394E12CF12CD5E684E591E01C
:100CC0000E942901892B09F4E1C184E591E00E9489
:100CD00007018E3409F476C00CF045C08C3409F05D
:100CE000D1C18CE490E00E94A70184E591E00E94CC
:100CF0000701C82FC092FF01D0920002E0920102CA
:100D0000F092020210920302109204021092050265
:100D1000109206028091F7019091F801A091F901DB
:100D2000B091FA018093FB019093FC01A093FD0127
:100D3000B093FE010E948F026093F7017093F80157
:100D40008093F9019093FA0162E070E080E090E016
:100D50000E9455026AE070E080E090E00E94550237
:100D6000D093080253C0833579F08C3609F08AC1DC
:100D70008CE690E00E94A70186E00E94DA0286706D
:100D800090E09695879580C183E590E00E94A70149
:100D9000C0E06C2FCE3708F06DE785E00E94BC0202
:100DA0000E944503C8010197F1F70E940C0389E0F6
:100DB0000E94DA02817090E00E94A701CF5FCE37D7
:100DC00041F764C18EE490E00E94A7018EE790E0B5
:100DD0005BC1853601F16AE070E080E090E00E943E
:100DE000550280910702882309F430C180913302B3
:100DF00090913402DC01ED91FC910480F581E02DAD
:100E000009958111E3C085E680930802809108026C
:100E10008336F9F61DC18091030290910402A091DE
:100E20000502B09106020196A11DB11D8093030237
:100E300090930402A0930502B09306024091FF0133
:100E4000509100026091010270910202452B462BE5
:100E5000472B29F4892B8A2B8B2B09F0BCCF0E94BE
:100E60008F028090F3019090F401A090F501B09072
:100E7000F601DC01CB0188199909AA09BB09819700
:100E8000A105B10538F463E070E080E090E00E94D5
:100E90005502E5CF0E948F026093F3017093F40135
:100EA0008093F5019093F6010E948F024B015C0143
:100EB00068E271E080913302909134020E949F03B6
:100EC0002AE041E050E060E070E0809133029091D0
:100ED00034020E94B4036FE271E08091330290917A
:100EE00034020E949F032AE0B501A40180913302DD
:100EF000909134020E94B40361E371E08091330267
:100F0000909134020E949F038091F7019091F80123
:100F1000A091F901B091FA01B501A401481B590B48
:100F20006A0B7B0B2AE080913302909134020E947D
:100F3000B40361E371E080913302909134020E9426
:100F40009F034091F7015091F8016091F901709170
:100F5000FA018091FB019091FC01A091FD01B091FB
:100F6000FE01481B590B6A0B7B0B2AE08091330270
:100F7000909134020E94B403A0903302B0903402E6
:100F800063E371E0C5010E949F0367E471E0C5015E
:100F90000E949F0364EF71E080E090E00E945502A0
:100FA0001ACF8091330290913402DC01ED91FC91D3
:100FB0000680F781E02D0995883609F447C0A0F036
:100FC000813709F443C0863709F41ECF809133027C
:100FD00090913402DC01ED91FC910480F581E02DCB
:100FE00009958111DECF0FCF883571F1833671F706
:100FF0000E948F026093F3017093F4018093F501D6
:101000009093F6016AE371E080913302909134028B
:101010000E949F032AE041E050E060E070E0809190
:101020003302909134020E94B40361E471E0809134
:101030003302909134020E949F0362E370E080E0EB
:1010400090E00E94550202C01092070283E6DCCEB7
:101050000E948F026093F7017093F8018093F90169
:101060009093FA0186E00E94DA02887FC43018F477
:10107000CC0FCF5F01C0C7E06C2F682B86E00E94C9
:10108000BC0204C08FE390E00E94A7010E94DA0135
:1010900015CE81E080933F02B3CDEE0FFF1F059088
:1010A000F491E02D099481E090E0F8940C94150AF5
:1010B0000F931F93CF93DF93009731F46115710560
:1010C00019F480E090E03AC08B01EC016EE070E032
:1010D00081E090E00E94A308FC01892B91F380E855
:1010E00083830115110571F01387028781E88383DB
:1010F0008091510290915202892B21F4F093520277
:10110000E09351022097C9F0D187C0878381826024
:1011100083838091530290915402892B71F4F09350
:101120005402E09353028091550290915602892B0C
:1011300021F4F0935602E0935502CF01DF91CF9155
:101140001F910F9108950F931F93CF93DF93869F65
:101150008001879F100D969F100D1124C8010E94D9
:10116000BF08EC01009729F0A80160E070E00E9440
:10117000EC09CE01DF91CF911F910F910895CF938C
:10118000DF938230910510F482E090E0E091590203
:10119000F0915A0220E030E0C0E0D0E0309711F149
:1011A0004081518148175907C0F04817590761F429
:1011B00082819381209719F09B838A832BC090931F
:1011C0005A028093590226C02115310519F04217A1
:1011D000530718F49A01BE01DF01EF010280F38189
:1011E000E02DDCCF2115310509F1281B390B243006
:1011F000310590F412968D919C91139761157105AC
:1012000021F0FB019383828304C090935A02809360
:101210005902FD01329644C0FD01E20FF31F819394
:101220009193225031092D933C933AC0209157025B
:1012300030915802232B41F4209102013091030197
:101240003093580220935702209100013091010100
:101250002115310541F42DB73EB74091040150915D
:101260000501241B350BE0915702F0915802E2175B
:10127000F307A0F42E1B3F0B2817390778F0AC01B9
:101280004E5F5F4F2417350748F04E0F5F1F509396
:101290005802409357028193919302C0E0E0F0E03E
:1012A000CF01DF91CF9108950F931F93CF93DF93D9
:1012B000009709F48CC0FC013297138212820091CE
:1012C000590210915A020115110581F420813181D2
:1012D000820F931F20915702309158022817390727
:1012E00079F5F0935802E093570271C0D80140E0BD
:1012F00050E0AE17BF0750F412962D913C91139712
:10130000AD012115310509F1D901F3CF9D01DA01B4
:101310003383228360817181860F971F8217930721
:1013200069F4EC0128813981260F371F2E5F3F4F6A
:10133000318320838A819B8193838283452B29F487
:10134000F0935A02E093590242C01396FC93EE9335
:101350001297ED01499159919E01240F351FE21713
:10136000F30771F480819181840F951F0296119685
:101370009C938E938281938113969C938E93129764
:10138000E0E0F0E0D80112968D919C9113970097C0
:1013900019F0F8018C01F6CF8D919C9198012E5F88
:1013A0003F4F820F931F2091570230915802281708
:1013B000390769F4309729F410925A0210925902B1
:1013C00002C0138212821093580200935702DF91D9
:1013D000CF911F910F910895DC0101C06D93415091
:1013E0005040E0F70895A1E21A2EAA1BBB1BFD0195
:1013F0000DC0AA1FBB1FEE1FFF1FA217B307E407F4
:10140000F50720F0A21BB30BE40BF50B661F771F4B
:10141000881F991F1A9469F760957095809590952B
:0E1420009B01AC01BD01CF010895F894FFCFF0
:10142E0000005B028000000000006001D100290175
:10143E0007011B01B801564D4450565F317C315F98
:10144E00564D4450560D0A00564D4450455F003AD5
:10145E00323A005F564D44504500564D4450435F5E
:0A146E00005F564D4450430D0A0084
:00000001FF
