:100000000C945D000C9485000C9485000C94850084
:100010000C9485000C9485000C9485000C9485004C
:100020000C9485000C9485000C9485000C9485003C
:100030000C9485000C9485000C9485000C9485002C
:100040000C94A5020C9485000C9473020C944D0240
:100050000C9485000C9485000C9485000C9485000C
:100060000C9485000C9485000000000025002800F9
:100070002B0000000008000201000003040700003C
:1000800000000000000000000000240027002A00FB
:10009000010204081020408001020408102001021F
:1000A00004081020040404040404040402020202EC
:1000B0000202030303030303EF0211241FBECFEF69
:1000C000D8E0DEBFCDBF11E0A0E0B1E0ECEBF9E09D
:1000D00002C005900D92A83BB107D9F722E0A8EB2A
:1000E000B1E001C01D92AD38B207E1F710E0CDE5F7
:1000F000D0E004C02197FE010E94C804CC35D1078E
:10010000C9F70E9421030C94DC040C940000CF92E8
:10011000DF92EF92FF920F931F93CF93DF936C01C7
:100120007A018B01C0E0D0E0CE15DF0589F0D8015F
:100130006D918D01D601ED91FC910190F081E02D42
:10014000C6010995892B11F47E0102C02196ECCFDE
:10015000C701DF91CF911F910F91FF90EF90DF903A
:10016000CF900895FC01918D828D981761F0828D5A
:10017000DF01A80FB11D5D968C91928D9F5F9F73DB
:10018000928F90E008958FEF9FEF0895FC01918D7D
:10019000828D981731F0828DE80FF11D858D90E0EA
:1001A00008958FEF9FEF0895FC01918D228D892F87
:1001B00090E0805C9F4F821B91098F73992708956F
:1001C0008EEE91E00E94D40021E0892B09F420E01A
:1001D000822F0895FC01848DDF01A80FB11DA35A61
:1001E000BF4F2C91848D90E001968F739927848F57
:1001F000A689B7892C93A089B1898C9180648C934E
:10020000938D848D981306C00288F389E02D808138
:100210008F7D80830895EF92FF920F931F93CF936A
:10022000DF93EC0181E0888F9B8D8C8D981305C046
:10023000E889F989808185FD24C0F62E0B8D10E0B8
:100240000F5F1F4F0F731127E02E8C8DE8120CC02B
:100250000FB607FCFACFE889F989808185FFF5CFD1
:10026000CE010E94EA00F1CF8B8DFE01E80FF11D57
:10027000E35AFF4FF0820B8FEA89FB89808180620D
:1002800007C0EE89FF896083E889F98980818064ED
:10029000808381E090E0DF91CF911F910F91FF90DB
:1002A000EF900895CF93DF93EC01888D8823C9F0F8
:1002B000EA89FB89808185FD05C0A889B9898C916F
:1002C00086FD0FC00FB607FCF5CF808185FFF2CF0A
:1002D000A889B9898C9185FFEDCFCE010E94EA00F3
:1002E000E7CFDF91CF91089580E090E0892B29F04E
:1002F0000E94E00081110C940000089590E0FC0140
:10030000EE58FF4F3491FC01E057FF4F2491FC0160
:10031000EC55FF4FE491EE2309F43BC0332339F150
:10032000333091F038F43130A9F0323001F584B532
:100330008F7D12C0373091F03830A1F03430B9F4ED
:10034000809180008F7D03C0809180008F778093A3
:1003500080000DC084B58F7784BD09C08091B00046
:100360008F7703C08091B0008F7D8093B000F0E064
:10037000EE0FFF1FE859FF4FA591B4918FB7F89486
:10038000EC91611103C020952E2301C02E2B2C93DC
:100390008FBF0895CF93DF93EC0160E08AE00E9465
:1003A0007E018BE891E00197F1F72097E1F08091D1
:1003B000DA018EBDAAEDB1E0EBEDF1E0CE0186529F
:1003C0009E4FE817F90741F031910DB407FEFDCFBC
:1003D0002EB53EBD2D93F5CFC752DE4F0DB407FEAF
:1003E000FDCF8EB588838BE891E00197F1F761E04E
:1003F0008AE0DF91CF910C947E01CF93DF9390E060
:10040000FC01E057FF4F2491FC01EC55FF4F849114
:10041000882361F190E0880F991FFC01EA57FF4F94
:10042000C591D491FC01E859FF4FA591B491611198
:1004300009C09FB7F8948881209582238883EC9126
:100440002E230BC0623061F49FB7F8943881822F5D
:10045000809583238883EC912E2B2C939FBF06C01D
:100460008FB7F894E8812E2B28838FBFDF91CF912F
:100470000895009769F0FC0101900020E9F7319799
:10048000AF01481B590BBC018EEE91E00C94870024
:1004900080E090E008950E94CE041F920F920FB664
:1004A0000F9211242F933F934F935F936F937F93FA
:1004B0008F939F93AF93BF93EF93FF938EEE91E053
:1004C0000E94EA00FF91EF91BF91AF919F918F91B0
:1004D0007F916F915F914F913F912F910F900FBE40
:1004E0000F901F9018951F920F920FB60F92112424
:1004F0002F938F939F93EF93FF93E091FE01F091E1
:10050000FF018081E0910402F091050282FD12C09A
:100510009081809107028F5F8F732091080282176C
:1005200051F0E0910702F0E0E251FE4F958F809389
:10053000070201C08081FF91EF919F918F912F91D0
:100540000F900FBE0F901F9018951F920F920FB62D
:100550000F9211242F933F938F939F93AF93BF9349
:100560008091BD019091BE01A091BF01B091C001E9
:100570003091BC0123E0230F2D3720F40196A11DFB
:10058000B11D05C026E8230F0296A11DB11D2093C1
:10059000BC018093BD019093BE01A093BF01B093B5
:1005A000C0018091B8019091B901A091BA01B091B8
:1005B000BB010196A11DB11D8093B8019093B901B3
:1005C000A093BA01B093BB01BF91AF919F918F915E
:1005D0003F912F910F900FBE0F901F901895EEEE48
:1005E000F1E01382128288EE93E0A0E0B0E0848311
:1005F0009583A683B7838BE991E09183808385EC13
:1006000090E09587848784EC90E09787868780ECDC
:1006100090E0918B808B81EC90E0938B828B82ECCD
:1006200090E0958B848B86EC90E0978B868B118E77
:10063000128E138E148EEBE8F2E080E58083118237
:100640000895CF93DF93CDB7DEB7A1970FB6F89497
:10065000DEBF0FBECDBF789484B5826084BD84B503
:10066000816084BD85B5826085BD85B5816085BDAD
:1006700080916E00816080936E0010928100809165
:1006800081008260809381008091810081608093ED
:100690008100809180008160809380008091B10012
:1006A00084608093B1008091B00081608093B0003D
:1006B00080917A00846080937A0080917A008260D1
:1006C00080937A0080917A00816080937A00809193
:1006D0007A00806880937A001092C100E091FE0158
:1006E000F091FF0182E08083E091FA01F091FB013B
:1006F0001082E091FC01F091FD0187E0808310926F
:100700000602E0910202F091030286E08083E0910C
:100710000002F0910102808180618083E0910002FB
:10072000F0910102808188608083E0910002F09165
:100730000102808180688083E0910002F0910102D3
:1007400080818F7D80831FB7F8948091C1018111D2
:1007500027C0EEEAF0E08491EAE9F0E09491E82F16
:10076000F0E0EE0FFF1FEA57FF4FA591B491EC9117
:10077000E92321F461E08AE00E947E0161E08AE0E1
:100780000E94FD018CB580618CBD8CB580648CBDF0
:1007900061E08DE00E94FD0161E08BE00E94FD01BF
:1007A0008091C1018F5F8093C1011FBF61E08AE02A
:1007B0000E94FD0161E083E00E94FD0160E08CE0A9
:1007C0000E94FD0160E082E00E94FD0160E083E0A4
:1007D0000E947E0161E08AE00E947E0139E6E32EFC
:1007E00031E0F32EF701619171917F01FB010191DD
:1007F000BF0110E0A8018AED91E00E94D304C80176
:100800000E94CA01F7E9EF16F1E0FF0659F7E2ECA2
:10081000F1E0119281E0E53DF807D9F760E083E06F
:100820000E947E012AE0822E912CA12CB12C0091F5
:10083000660110E0A80167E671E08AED91E00E9490
:10084000D304C8010E94CA018091DA0190E090931C
:10085000D9018093D80187EA91E00E943902C090C3
:10086000D801D090D90108E010E090E8E92EF12CF1
:10087000C7018C219D21892B11F460E301C061E344
:10088000E091EE01F091EF010190F081E02D8EEE0C
:1008900091E00995F594E7940150110949F78DEA23
:1008A00091E00E94390280EB91E00E943902C090F1
:1008B000D601D090D7010D2C000CEE08FF08F7FEF2
:1008C00026C0E091EE01F091EF010190F081E02D62
:1008D0006DE28EEE91E0099522273327A9012C19AC
:1008E0003D094E095F0919A28E010F5D1F4FCA0114
:1008F000B901A50194010E94A604605DF80162930C
:100900008F01211531054105510589F715C0A70152
:10091000960119A28E010F5D1F4FCA01B901A501F1
:1009200094010E94A604605DF80162938F01211575
:1009300031054105510589F7C8010E9439028DEA48
:1009400091E00E9439020E94740171CFA1E21A2E37
:10095000AA1BBB1BFD010DC0AA1FBB1FEE1FFF1F63
:10096000A217B307E407F50720F0A21BB30BE40BB3
:10097000F50B661F771F881F991F1A9469F76095FA
:100980007095809590959B01AC01BD01CF010895B4
:10099000EE0FFF1F0590F491E02D099481E090E0A7
:1009A000F8940C94DC04FB01DC0102C001900D9270
:0C09B00041505040D8F70895F894FFCF54
:1009BC00022503023D010226270530010215A7027C
:1009CC00207E022302022627022550022400023D2B
:1009DC000102220102210002230214B000000000D7
:1009EC0000000000000000000000000000000005F6
:1009FC002A7EB863A905307EB863A9023D01023195
:100A0C0013022627022201022100052A7EB863A9BF
:100A1C0005307EB863A902070060015A01570154E2
:100A2C000151014E014B0145013F012A01270124CF
:100A3C000121011E011B011801150112010F0109F1
:100A4C0001060103010001000000000B018700D426
:100A5C0000B200C60052017374617420000D0A00CC
:080A6C00697372636E742000CF
:00000001FF
