:10000000D2C00000FEC00000FCC00000FAC000002A
:10001000F8C00000F6C00000F4C00000F2C000000C
:10002000F0C00000EEC00000ECC00000EAC000001C
:10003000E8C00000E6C00000E4C00000E2C000002C
:10004000E0C00000DEC00000DCC00000DAC000003C
:10005000D8C00000D6C00000D4C000009DC200007F
:10006000E5C2000063C2000038C20000CAC0000040
:10007000C8C00000C6C00000C4C00000C2C000006C
:10008000C0C00000BEC00000BCC00000BAC000007C
:10009000B8C00000B6C00000B4C00000B2C000008C
:1000A000B0C00000AEC00000ACC00000AAC000009C
:1000B000A8C00000A6C00000A4C00000A2C00000AC
:1000C000A0C000009EC000009CC000009AC00000BC
:1000D00098C0000096C0000094C0000092C00000CC
:1000E00090C0000000002200250028002B002E00F8
:1000F0003100340002010000050108010B0100007D
:100100002100240027002A002D00300033000101C7
:100110000000040107010A01050505050705080897
:100120000808020202020A0A080804040404010181
:100130000101010101010303030303030303040796
:1001400007070C0C0C0C0C0C0C0C0202020206062D
:100150000606060606060B0B0B0B0B0B0B0B010220
:1001600010202008081020401020408002010201C9
:100170000804020101020408102040808040201081
:1001800008040201800402018040201008040201DA
:100190000804020101020408102040800102040842
:1001A00010204080200311241FBECFEFD1E2DEBF1C
:1001B000CDBF00E00CBF12E0A0E0B2E0E2E3FBE064
:1001C00000E00BBF02C007900D92A831B107D9F72C
:1001D00022E0A8E1B2E001C01D92A03FB207E1F722
:1001E00010E0C3EDD0E000E005C021970109802FA9
:1001F000FE0164D3C23DD10780E00807B1F76FD29A
:1002000096C4FECECF93DF9390E0FC01E25AFE4FFE
:100210002491FC01E85EFE4F84918823C1F090E0B8
:10022000880F991FFC01E250FF4FC591D491FC014A
:10023000EC51FF4FA591B4919FB7F8948881E22FBC
:10024000E0958E2388838C91E823EC939FBFDF9108
:10025000CF910895CF92DF92EF92FF920F931F9369
:10026000CF93DF936C017A018B01C0E0D0E0CE1513
:10027000DF0589F0D8016D918D01D601ED91FC91DA
:100280000190F081E02DC6011995892B11F47E01B2
:1002900002C02196ECCFC701DF91CF911F910F9142
:1002A000FF90EF90DF90CF900895FC01918D828DAB
:1002B000981761F0828DDF01A80FB11D5D968C91BA
:1002C000928D9F5F9F73928F90E008958FEF9FEFC5
:1002D0000895FC01918D828D981731F0828DE80F81
:1002E000F11D858D90E008958FEF9FEF0895FC013B
:1002F000918D228D892F90E0805C9F4F821B910908
:100300008F739927089587E392E0F1DF21E0892B2D
:1003100009F420E0822F0895FC01848DDF01A80FED
:10032000B11DA35ABF4F2C91848D90E001968F731D
:100330009927848FA689B7892C93A089B1898C913C
:1003400080648C93938D848D981306C00288F38902
:10035000E02D80818F7D80830895EF92FF920F932F
:100360001F93CF93DF93EC0181E0888F9B8D8C8D61
:10037000981305C0E889F989808185FD23C0F62E90
:100380000B8D10E00F5F1F4F0F731127E02E8C8D28
:10039000E8120BC00FB607FCFACFE889F989808113
:1003A00085FFF5CFCE01B8DFF2CF8B8DFE01E80FD0
:1003B000F11DE35AFF4FF0820B8FEA89FB898081A0
:1003C000806207C0EE89FF896083E889F9898081AE
:1003D0008064808381E090E0DF91CF911F910F9145
:1003E000FF90EF900895CF93DF93EC01888D8823E1
:1003F000C1F0EA89FB89808185FD05C0A889B9899A
:100400008C9186FD0EC00FB607FCF5CF808185FF6D
:10041000F2CFA889B9898C9185FFEDCFCE017CDF21
:10042000E8CFDF91CF91089580E090E0892B19F01B
:100430006ADF811125C080E090E0892B41F080E0E7
:1004400090E0892B21F00E94000081111CC080E007
:1004500090E0892B41F080E090E0892B21F00E9410
:100460000000811113C080E090E0892BA1F080E0B2
:1004700090E0892B81F00E94000081110AC008954C
:100480000E940000D8CF0E940000E1CF0E9400002F
:10049000EACF0C94000008952091000230910102EF
:1004A00024313105C4F4909136029923A1F0A901B9
:1004B0004F5F5F4F5093010240930002F901EE5DE0
:1004C000FD4F80834431510531F480912202803BFD
:1004D00011F410923602089526D31F920F920FB690
:1004E0000F9211240BB60F922F933F934F935F936C
:1004F0006F937F938F939F93AF93BF93EF93FF93EC
:1005000087E392E009DFFF91EF91BF91AF919F9157
:100510008F917F916F915F914F913F912F910F90AC
:100520000BBE0F900FBE0F901F9018951F920F9249
:100530000FB60F9211240BB60F922F938F939F93A8
:10054000EF93FF93E0914702F09148028081E091A0
:100550004D02F0914E0282FD12C0908180915002B6
:100560008F5F8F7320915102821751F0E0915002FA
:10057000F0E0E95CFD4F958F8093500201C08081CF
:10058000FF91EF919F918F912F910F900BBE0F9044
:100590000FBE0F901F9018951F920F920FB60F92DB
:1005A00011242F933F938F939F93AF93BF93809189
:1005B0001D0290911E02A0911F02B0912002309165
:1005C0001C0223E0230F2D3720F40196A11DB11D3D
:1005D00005C026E8230F0296A11DB11D20931C0221
:1005E00080931D0290931E02A0931F02B0932002DD
:1005F0008091180290911902A0911A02B0911B02E9
:100600000196A11DB11D8093180290931902A09329
:100610001A02B0931B02BF91AF919F918F913F91AE
:100620002F910F900FBE0F901F9018951F920F9251
:100630000FB60F9211240F900FBE0F901F901895B8
:100640000F931F93CF93DF93E7E3F2E013821282BD
:1006500088EE93E0A0E0B0E084839583A683B7831F
:100660008CE092E09183808385EC90E0958784878D
:1006700084EC90E09787868780EC90E0918B808B6C
:1006800081EC90E0938B828B82EC90E0958B848B55
:1006900086EC90E0978B868B118E128E138E148EC3
:1006A000C4EDD2E085E390E09983888384E690E00E
:1006B0009F878E870BD19B838A8384E690E006D147
:1006C0008C019D838C8384E690E000D19F838E8390
:1006D0001D870C87DF91CF911F910F91089578941A
:1006E00084B5826084BD84B5816084BD85B5826037
:1006F00085BD85B5816085BD80916E0081608093E8
:100700006E00109281008091810082608093810050
:100710008091810081608093810080918000816060
:10072000809380008091B10084608093B1008091BB
:10073000B00081608093B0008091910082608093CE
:100740009100809191008160809391008091900050
:100750008160809390008091A10082608093A100CD
:100760008091A10081608093A1008091A0008160B0
:100770008093A0008091210182608093210180916B
:10078000210181608093210180912001816080930B
:10079000200180917A00846080937A0080917A00B1
:1007A000826080937A0080917A00816080937A00E1
:1007B00080917A00806880937A001092C100E09165
:1007C0004702F091480282E08083E0914302F09179
:1007D00044021082E0914502F091460287E0808356
:1007E00010924F02E0914B02F0914C0286E0808320
:1007F000E0914902F0914A02808180618083E0911A
:100800004902F0914A02808188608083E091490228
:10081000F0914A02808180688083E0914902F091E2
:100820004A0280818F7D80838FEF8EBD84E3EADC76
:1008300083E3E8DC82E3E6DC85E3E4DC80E48CBD92
:1008400011E087E392E053DD892BB1F187E392E079
:100850002CDD10920102109200021093360280915A
:1008600036028823D9F00DB407FC03C018990BC0D9
:10087000F6CF8EB511DE109221028DB587FFF6CF2F
:100880008EB50ADEFACF809121028111E8CF109354
:1008900021021092010210920002E1CF62E687E38A
:1008A00092E05BDDC3E2D2E0699187E392E055DD3F
:1008B00082E0C633D807C1F7B7DDC3CFEE0FFF1F05
:1008C000881F8BBF0790F691E02D1994CF93DF938B
:1008D0008230910510F482E090E0E091EE02F09118
:1008E000EF0220E030E0C0E0D0E0309711F140812D
:1008F000518148175907C0F04817590761F48281A0
:100900009381209719F09B838A832BC09093EF02E9
:100910008093EE0226C02115310519F042175307C6
:1009200018F49A01BE01DF01EF010280F381E02D8E
:10093000DCCF2115310509F1281B390B2430310595
:1009400090F412968D919C9113976115710521F089
:10095000FB019383828304C09093EF028093EE02A5
:10096000FD01329644C0FD01E20FF31F8193919384
:10097000225031092D933C933AC02091EC023091E2
:10098000ED02232B41F420910402309105023093B3
:10099000ED022093EC022091020230910302211516
:1009A000310541F42DB73EB7409106025091070240
:1009B000241B350BE091EC02F091ED02E217F307F6
:1009C000A0F42E1B3F0B2817390778F0AC014E5FBF
:1009D0005F4F2417350748F04E0F5F1F5093ED020D
:1009E0004093EC028193919302C0E0E0F0E0CF01EC
:1009F000DF91CF9108950F931F93CF93DF930097CB
:100A000009F48CC0FC013297138212820091EE022D
:100A10001091EF020115110581F420813181820FBF
:100A2000931F2091EC023091ED022817390779F5D8
:100A3000F093ED02E093EC0271C0D80140E050E089
:100A4000AE17BF0750F412962D913C911397AD014C
:100A50002115310509F1D901F3CF9D01DA01338365
:100A6000228360817181860F971F8217930769F433
:100A7000EC0128813981260F371F2E5F3F4F3183CC
:100A800020838A819B8193838283452B29F4F09371
:100A9000EF02E093EE0242C01396FC93EE9312979E
:100AA000ED01499159919E01240F351FE217F3077B
:100AB00071F480819181840F951F029611969C9309
:100AC0008E938281938113969C938E931297E0E08C
:100AD000F0E0D80112968D919C911397009719F030
:100AE000F8018C01F6CF8D919C9198012E5F3F4FBC
:100AF000820F931F2091EC023091ED0228173907E5
:100B000069F4309729F41092EF021092EE0202C0BD
:100B1000138212821093ED020093EC02DF91CF91C9
:100B20001F910F91089581E090E0F89400C0F8942F
:020B3000FFCFF5
:100B320014000000F002800000000000AD012A0154
:080B4200770155016901F3017F
:00000001FF
